{
	"browse/test/Chama_test.sol": {
		"ChamaTest": {
			"abi": [
				{
					"inputs": [],
					"name": "beforeAll",
					"outputs": [],
					"stateMutability": "payable",
					"type": "function"
				},
				{
					"inputs": [],
					"name": "testDeposit",
					"outputs": [],
					"stateMutability": "payable",
					"type": "function"
				},
				{
					"inputs": [],
					"name": "testFailDepositZero",
					"outputs": [],
					"stateMutability": "nonpayable",
					"type": "function"
				},
				{
					"inputs": [],
					"name": "testFailOverWithdraw",
					"outputs": [],
					"stateMutability": "nonpayable",
					"type": "function"
				},
				{
					"inputs": [],
					"name": "testInitialChairperson",
					"outputs": [],
					"stateMutability": "nonpayable",
					"type": "function"
				},
				{
					"inputs": [],
					"name": "testTotalFunds",
					"outputs": [],
					"stateMutability": "nonpayable",
					"type": "function"
				},
				{
					"inputs": [],
					"name": "testWithdrawal",
					"outputs": [],
					"stateMutability": "nonpayable",
					"type": "function"
				},
				{
					"stateMutability": "payable",
					"type": "receive"
				}
			],
			"devdoc": {
				"kind": "dev",
				"methods": {},
				"version": 1
			},
			"evm": {
				"assembly": "    /* \"browse/test/Chama_test.sol\":123:1774  contract ChamaTest {... */\n  mstore(0x40, 0x80)\n  callvalue\n  dup1\n  iszero\n  tag_1\n  jumpi\n  revert(0x00, 0x00)\ntag_1:\n  pop\n  dataSize(sub_0)\n  dup1\n  dataOffset(sub_0)\n  0x00\n  codecopy\n  0x00\n  return\nstop\n\nsub_0: assembly {\n        /* \"browse/test/Chama_test.sol\":123:1774  contract ChamaTest {... */\n      mstore(0x40, 0x80)\n      jumpi(tag_1, lt(calldatasize, 0x04))\n      shr(0xe0, calldataload(0x00))\n      dup1\n      0x7fea0d4b\n      gt\n      tag_10\n      jumpi\n      dup1\n      0x7fea0d4b\n      eq\n      tag_6\n      jumpi\n      dup1\n      0xb5b9af13\n      eq\n      tag_7\n      jumpi\n      dup1\n      0xc417572c\n      eq\n      tag_8\n      jumpi\n      dup1\n      0xcc8af67e\n      eq\n      tag_9\n      jumpi\n      jump(tag_2)\n    tag_10:\n      dup1\n      0x3dd04a80\n      eq\n      tag_3\n      jumpi\n      dup1\n      0x5bc07a74\n      eq\n      tag_4\n      jumpi\n      dup1\n      0x7f924c4e\n      eq\n      tag_5\n      jumpi\n      jump(tag_2)\n    tag_1:\n      jumpi(tag_2, calldatasize)\n      stop\n    tag_2:\n      revert(0x00, 0x00)\n        /* \"browse/test/Chama_test.sol\":1452:1771  function testFailOverWithdraw() public {... */\n    tag_3:\n      callvalue\n      dup1\n      iszero\n      tag_13\n      jumpi\n      revert(0x00, 0x00)\n    tag_13:\n      pop\n      tag_14\n      tag_15\n      jump\t// in\n    tag_14:\n      stop\n        /* \"browse/test/Chama_test.sol\":263:409  function testInitialChairperson() public {... */\n    tag_4:\n      callvalue\n      dup1\n      iszero\n      tag_16\n      jumpi\n      revert(0x00, 0x00)\n    tag_16:\n      pop\n      tag_17\n      tag_18\n      jump\t// in\n    tag_17:\n      stop\n        /* \"browse/test/Chama_test.sol\":442:620  function testDeposit() public payable {... */\n    tag_5:\n      tag_19\n      tag_20\n      jump\t// in\n    tag_19:\n      stop\n        /* \"browse/test/Chama_test.sol\":175:255  function beforeAll() public payable {... */\n    tag_6:\n      tag_21\n      tag_22\n      jump\t// in\n    tag_21:\n      stop\n        /* \"browse/test/Chama_test.sol\":1144:1444  function testFailDepositZero() public {... */\n    tag_7:\n      callvalue\n      dup1\n      iszero\n      tag_23\n      jumpi\n      revert(0x00, 0x00)\n    tag_23:\n      pop\n      tag_24\n      tag_25\n      jump\t// in\n    tag_24:\n      stop\n        /* \"browse/test/Chama_test.sol\":628:757  function testTotalFunds() public {... */\n    tag_8:\n      callvalue\n      dup1\n      iszero\n      tag_26\n      jumpi\n      revert(0x00, 0x00)\n    tag_26:\n      pop\n      tag_27\n      tag_28\n      jump\t// in\n    tag_27:\n      stop\n        /* \"browse/test/Chama_test.sol\":765:1099  function testWithdrawal() public {... */\n    tag_9:\n      callvalue\n      dup1\n      iszero\n      tag_29\n      jumpi\n      revert(0x00, 0x00)\n    tag_29:\n      pop\n      tag_30\n      tag_31\n      jump\t// in\n    tag_30:\n      stop\n        /* \"browse/test/Chama_test.sol\":1452:1771  function testFailOverWithdraw() public {... */\n    tag_15:\n        /* \"browse/test/Chama_test.sol\":1506:1511  chama */\n      0x00\n      0x00\n      swap1\n      sload\n      swap1\n      0x0100\n      exp\n      swap1\n      div\n      0xffffffffffffffffffffffffffffffffffffffff\n      and\n        /* \"browse/test/Chama_test.sol\":1506:1520  chama.withdraw */\n      0xffffffffffffffffffffffffffffffffffffffff\n      and\n      0x2e1a7d4d\n        /* \"browse/test/Chama_test.sol\":1521:1529  10 ether */\n      0x8ac7230489e80000\n        /* \"browse/test/Chama_test.sol\":1506:1530  chama.withdraw(10 ether) */\n      mload(0x40)\n      dup3\n      0xffffffff\n      and\n      0xe0\n      shl\n      dup2\n      mstore\n      0x04\n      add\n      tag_33\n      swap2\n      swap1\n      tag_34\n      jump\t// in\n    tag_33:\n      0x00\n      mload(0x40)\n      dup1\n      dup4\n      sub\n      dup2\n      0x00\n      dup8\n      dup1\n      extcodesize\n      iszero\n      dup1\n      iszero\n      tag_35\n      jumpi\n      revert(0x00, 0x00)\n    tag_35:\n      pop\n      gas\n      call\n      swap3\n      pop\n      pop\n      pop\n      dup1\n      iszero\n      tag_36\n      jumpi\n      pop\n      0x01\n    tag_36:\n        /* \"browse/test/Chama_test.sol\":1502:1764  try chama.withdraw(10 ether) {... */\n      tag_37\n      jumpi\n      tag_41\n      tag_42\n      jump\t// in\n    tag_41:\n      dup1\n      0x08c379a0\n      sub\n      tag_40\n      jumpi\n      pop\n      tag_43\n      tag_44\n      jump\t// in\n    tag_43:\n      dup1\n      tag_45\n      jumpi\n      pop\n      jump(tag_39)\n    tag_45:\n        /* \"browse/test/Chama_test.sol\":1669:1675  Assert */\n      linkerSymbol(\"acbfb1c35000d78352310b16a054a6b1066124b9c6f054b10c085f549bff80c6\")\n        /* \"browse/test/Chama_test.sol\":1669:1681  Assert.equal */\n      0xe8c2cb16\n        /* \"browse/test/Chama_test.sol\":1682:1688  reason */\n      dup3\n        /* \"browse/test/Chama_test.sol\":1669:1752  Assert.equal(reason, \"Insufficient balance in your account\", \"Wrong revert reason\") */\n      mload(0x40)\n      dup3\n      0xffffffff\n      and\n      0xe0\n      shl\n      dup2\n      mstore\n      0x04\n      add\n      tag_46\n      swap2\n      swap1\n      tag_47\n      jump\t// in\n    tag_46:\n      0x20\n      mload(0x40)\n      dup1\n      dup4\n      sub\n      dup2\n      dup7\n      gas\n      delegatecall\n      iszero\n      dup1\n      iszero\n      tag_49\n      jumpi\n      returndatacopy(0x00, 0x00, returndatasize)\n      revert(0x00, returndatasize)\n    tag_49:\n      pop\n      pop\n      pop\n      pop\n      mload(0x40)\n      returndatasize\n      not(0x1f)\n      0x1f\n      dup3\n      add\n      and\n      dup3\n      add\n      dup1\n      0x40\n      mstore\n      pop\n      dup2\n      add\n      swap1\n      tag_50\n      swap2\n      swap1\n      tag_51\n      jump\t// in\n    tag_50:\n      pop\n        /* \"browse/test/Chama_test.sol\":1620:1764  catch Error(string memory reason) {... */\n      pop\n        /* \"browse/test/Chama_test.sol\":1502:1764  try chama.withdraw(10 ether) {... */\n      jump(tag_38)\n    tag_40:\n      pop\n    tag_39:\n      returndatacopy(0x00, 0x00, returndatasize)\n      revert(0x00, returndatasize)\n    tag_38:\n      jump(tag_52)\n    tag_37:\n        /* \"browse/test/Chama_test.sol\":1546:1552  Assert */\n      linkerSymbol(\"acbfb1c35000d78352310b16a054a6b1066124b9c6f054b10c085f549bff80c6\")\n        /* \"browse/test/Chama_test.sol\":1546:1555  Assert.ok */\n      0x39df137f\n        /* \"browse/test/Chama_test.sol\":1556:1561  false */\n      0x00\n        /* \"browse/test/Chama_test.sol\":1546:1607  Assert.ok(false, \"Should have reverted for over-withdrawing\") */\n      mload(0x40)\n      dup3\n      0xffffffff\n      and\n      0xe0\n      shl\n      dup2\n      mstore\n      0x04\n      add\n      tag_53\n      swap2\n      swap1\n      tag_54\n      jump\t// in\n    tag_53:\n      0x20\n      mload(0x40)\n      dup1\n      dup4\n      sub\n      dup2\n      dup7\n      gas\n      delegatecall\n      iszero\n      dup1\n      iszero\n      tag_56\n      jumpi\n      returndatacopy(0x00, 0x00, returndatasize)\n      revert(0x00, returndatasize)\n    tag_56:\n      pop\n      pop\n      pop\n      pop\n      mload(0x40)\n      returndatasize\n      not(0x1f)\n      0x1f\n      dup3\n      add\n      and\n      dup3\n      add\n      dup1\n      0x40\n      mstore\n      pop\n      dup2\n      add\n      swap1\n      tag_57\n      swap2\n      swap1\n      tag_51\n      jump\t// in\n    tag_57:\n      pop\n        /* \"browse/test/Chama_test.sol\":1502:1764  try chama.withdraw(10 ether) {... */\n    tag_52:\n        /* \"browse/test/Chama_test.sol\":1452:1771  function testFailOverWithdraw() public {... */\n      jump\t// out\n        /* \"browse/test/Chama_test.sol\":263:409  function testInitialChairperson() public {... */\n    tag_18:\n        /* \"browse/test/Chama_test.sol\":315:321  Assert */\n      linkerSymbol(\"acbfb1c35000d78352310b16a054a6b1066124b9c6f054b10c085f549bff80c6\")\n        /* \"browse/test/Chama_test.sol\":315:327  Assert.equal */\n      0xbfba5dd6\n        /* \"browse/test/Chama_test.sol\":328:333  chama */\n      0x00\n      0x00\n      swap1\n      sload\n      swap1\n      0x0100\n      exp\n      swap1\n      div\n      0xffffffffffffffffffffffffffffffffffffffff\n      and\n        /* \"browse/test/Chama_test.sol\":328:345  chama.chairperson */\n      0xffffffffffffffffffffffffffffffffffffffff\n      and\n      0x2e4176cf\n        /* \"browse/test/Chama_test.sol\":328:347  chama.chairperson() */\n      mload(0x40)\n      dup2\n      0xffffffff\n      and\n      0xe0\n      shl\n      dup2\n      mstore\n      0x04\n      add\n      0x20\n      mload(0x40)\n      dup1\n      dup4\n      sub\n      dup2\n      dup7\n      gas\n      staticcall\n      iszero\n      dup1\n      iszero\n      tag_60\n      jumpi\n      returndatacopy(0x00, 0x00, returndatasize)\n      revert(0x00, returndatasize)\n    tag_60:\n      pop\n      pop\n      pop\n      pop\n      mload(0x40)\n      returndatasize\n      not(0x1f)\n      0x1f\n      dup3\n      add\n      and\n      dup3\n      add\n      dup1\n      0x40\n      mstore\n      pop\n      dup2\n      add\n      swap1\n      tag_61\n      swap2\n      swap1\n      tag_62\n      jump\t// in\n    tag_61:\n        /* \"browse/test/Chama_test.sol\":357:361  this */\n      address\n        /* \"browse/test/Chama_test.sol\":315:401  Assert.equal(chama.chairperson(), address(this), \"Chairperson should be the deployer\") */\n      mload(0x40)\n      dup4\n      0xffffffff\n      and\n      0xe0\n      shl\n      dup2\n      mstore\n      0x04\n      add\n      tag_63\n      swap3\n      swap2\n      swap1\n      tag_64\n      jump\t// in\n    tag_63:\n      0x20\n      mload(0x40)\n      dup1\n      dup4\n      sub\n      dup2\n      dup7\n      gas\n      delegatecall\n      iszero\n      dup1\n      iszero\n      tag_66\n      jumpi\n      returndatacopy(0x00, 0x00, returndatasize)\n      revert(0x00, returndatasize)\n    tag_66:\n      pop\n      pop\n      pop\n      pop\n      mload(0x40)\n      returndatasize\n      not(0x1f)\n      0x1f\n      dup3\n      add\n      and\n      dup3\n      add\n      dup1\n      0x40\n      mstore\n      pop\n      dup2\n      add\n      swap1\n      tag_67\n      swap2\n      swap1\n      tag_51\n      jump\t// in\n    tag_67:\n      pop\n        /* \"browse/test/Chama_test.sol\":263:409  function testInitialChairperson() public {... */\n      jump\t// out\n        /* \"browse/test/Chama_test.sol\":442:620  function testDeposit() public payable {... */\n    tag_20:\n        /* \"browse/test/Chama_test.sol\":491:496  chama */\n      0x00\n      0x00\n      swap1\n      sload\n      swap1\n      0x0100\n      exp\n      swap1\n      div\n      0xffffffffffffffffffffffffffffffffffffffff\n      and\n        /* \"browse/test/Chama_test.sol\":491:504  chama.deposit */\n      0xffffffffffffffffffffffffffffffffffffffff\n      and\n      0xd0e30db0\n        /* \"browse/test/Chama_test.sol\":512:519  1 ether */\n      0x0de0b6b3a7640000\n        /* \"browse/test/Chama_test.sol\":491:522  chama.deposit{value: 1 ether}() */\n      mload(0x40)\n      dup3\n      0xffffffff\n      and\n      0xe0\n      shl\n      dup2\n      mstore\n      0x04\n      add\n      0x00\n      mload(0x40)\n      dup1\n      dup4\n      sub\n      dup2\n      dup6\n      dup9\n      dup1\n      extcodesize\n      iszero\n      dup1\n      iszero\n      tag_69\n      jumpi\n      revert(0x00, 0x00)\n    tag_69:\n      pop\n      gas\n      call\n      iszero\n      dup1\n      iszero\n      tag_71\n      jumpi\n      returndatacopy(0x00, 0x00, returndatasize)\n      revert(0x00, returndatasize)\n    tag_71:\n      pop\n      pop\n      pop\n      pop\n      pop\n        /* \"browse/test/Chama_test.sol\":533:539  Assert */\n      linkerSymbol(\"acbfb1c35000d78352310b16a054a6b1066124b9c6f054b10c085f549bff80c6\")\n        /* \"browse/test/Chama_test.sol\":533:545  Assert.equal */\n      0xabcd7960\n        /* \"browse/test/Chama_test.sol\":546:551  chama */\n      0x00\n      0x00\n      swap1\n      sload\n      swap1\n      0x0100\n      exp\n      swap1\n      div\n      0xffffffffffffffffffffffffffffffffffffffff\n      and\n        /* \"browse/test/Chama_test.sol\":546:560  chama.balances */\n      0xffffffffffffffffffffffffffffffffffffffff\n      and\n      0x27e235e3\n        /* \"browse/test/Chama_test.sol\":569:573  this */\n      address\n        /* \"browse/test/Chama_test.sol\":546:575  chama.balances(address(this)) */\n      mload(0x40)\n      dup3\n      0xffffffff\n      and\n      0xe0\n      shl\n      dup2\n      mstore\n      0x04\n      add\n      tag_72\n      swap2\n      swap1\n      tag_73\n      jump\t// in\n    tag_72:\n      0x20\n      mload(0x40)\n      dup1\n      dup4\n      sub\n      dup2\n      dup7\n      gas\n      staticcall\n      iszero\n      dup1\n      iszero\n      tag_75\n      jumpi\n      returndatacopy(0x00, 0x00, returndatasize)\n      revert(0x00, returndatasize)\n    tag_75:\n      pop\n      pop\n      pop\n      pop\n      mload(0x40)\n      returndatasize\n      not(0x1f)\n      0x1f\n      dup3\n      add\n      and\n      dup3\n      add\n      dup1\n      0x40\n      mstore\n      pop\n      dup2\n      add\n      swap1\n      tag_76\n      swap2\n      swap1\n      tag_77\n      jump\t// in\n    tag_76:\n        /* \"browse/test/Chama_test.sol\":577:584  1 ether */\n      0x0de0b6b3a7640000\n        /* \"browse/test/Chama_test.sol\":533:612  Assert.equal(chama.balances(address(this)), 1 ether, \"Balance should be 1 ETH\") */\n      mload(0x40)\n      dup4\n      0xffffffff\n      and\n      0xe0\n      shl\n      dup2\n      mstore\n      0x04\n      add\n      tag_78\n      swap3\n      swap2\n      swap1\n      tag_79\n      jump\t// in\n    tag_78:\n      0x20\n      mload(0x40)\n      dup1\n      dup4\n      sub\n      dup2\n      dup7\n      gas\n      delegatecall\n      iszero\n      dup1\n      iszero\n      tag_81\n      jumpi\n      returndatacopy(0x00, 0x00, returndatasize)\n      revert(0x00, returndatasize)\n    tag_81:\n      pop\n      pop\n      pop\n      pop\n      mload(0x40)\n      returndatasize\n      not(0x1f)\n      0x1f\n      dup3\n      add\n      and\n      dup3\n      add\n      dup1\n      0x40\n      mstore\n      pop\n      dup2\n      add\n      swap1\n      tag_82\n      swap2\n      swap1\n      tag_51\n      jump\t// in\n    tag_82:\n      pop\n        /* \"browse/test/Chama_test.sol\":442:620  function testDeposit() public payable {... */\n      jump\t// out\n        /* \"browse/test/Chama_test.sol\":175:255  function beforeAll() public payable {... */\n    tag_22:\n        /* \"browse/test/Chama_test.sol\":230:247  new SimpleChama() */\n      mload(0x40)\n      tag_84\n      swap1\n      tag_85\n      jump\t// in\n    tag_84:\n      mload(0x40)\n      dup1\n      swap2\n      sub\n      swap1\n      0x00\n      create\n      dup1\n      iszero\n      dup1\n      iszero\n      tag_86\n      jumpi\n      returndatacopy(0x00, 0x00, returndatasize)\n      revert(0x00, returndatasize)\n    tag_86:\n      pop\n        /* \"browse/test/Chama_test.sol\":222:227  chama */\n      0x00\n      0x00\n        /* \"browse/test/Chama_test.sol\":222:247  chama = new SimpleChama() */\n      0x0100\n      exp\n      dup2\n      sload\n      dup2\n      0xffffffffffffffffffffffffffffffffffffffff\n      mul\n      not\n      and\n      swap1\n      dup4\n      0xffffffffffffffffffffffffffffffffffffffff\n      and\n      mul\n      or\n      swap1\n      sstore\n      pop\n        /* \"browse/test/Chama_test.sol\":175:255  function beforeAll() public payable {... */\n      jump\t// out\n        /* \"browse/test/Chama_test.sol\":1144:1444  function testFailDepositZero() public {... */\n    tag_25:\n        /* \"browse/test/Chama_test.sol\":1197:1202  chama */\n      0x00\n      0x00\n      swap1\n      sload\n      swap1\n      0x0100\n      exp\n      swap1\n      div\n      0xffffffffffffffffffffffffffffffffffffffff\n      and\n        /* \"browse/test/Chama_test.sol\":1197:1210  chama.deposit */\n      0xffffffffffffffffffffffffffffffffffffffff\n      and\n      0xd0e30db0\n        /* \"browse/test/Chama_test.sol\":1218:1219  0 */\n      0x00\n        /* \"browse/test/Chama_test.sol\":1197:1222  chama.deposit{value: 0}() */\n      mload(0x40)\n      dup3\n      0xffffffff\n      and\n      0xe0\n      shl\n      dup2\n      mstore\n      0x04\n      add\n      0x00\n      mload(0x40)\n      dup1\n      dup4\n      sub\n      dup2\n      dup6\n      dup9\n      dup1\n      extcodesize\n      iszero\n      dup1\n      iszero\n      tag_88\n      jumpi\n      revert(0x00, 0x00)\n    tag_88:\n      pop\n      gas\n      call\n      swap4\n      pop\n      pop\n      pop\n      pop\n      dup1\n      iszero\n      tag_89\n      jumpi\n      pop\n      0x01\n    tag_89:\n        /* \"browse/test/Chama_test.sol\":1193:1437  try chama.deposit{value: 0}() {... */\n      tag_90\n      jumpi\n      tag_94\n      tag_42\n      jump\t// in\n    tag_94:\n      dup1\n      0x08c379a0\n      sub\n      tag_93\n      jumpi\n      pop\n      tag_95\n      tag_44\n      jump\t// in\n    tag_95:\n      dup1\n      tag_96\n      jumpi\n      pop\n      jump(tag_92)\n    tag_96:\n        /* \"browse/test/Chama_test.sol\":1353:1359  Assert */\n      linkerSymbol(\"acbfb1c35000d78352310b16a054a6b1066124b9c6f054b10c085f549bff80c6\")\n        /* \"browse/test/Chama_test.sol\":1353:1365  Assert.equal */\n      0xe8c2cb16\n        /* \"browse/test/Chama_test.sol\":1366:1372  reason */\n      dup3\n        /* \"browse/test/Chama_test.sol\":1353:1425  Assert.equal(reason, \"You must deposit some ETH\", \"Wrong revert reason\") */\n      mload(0x40)\n      dup3\n      0xffffffff\n      and\n      0xe0\n      shl\n      dup2\n      mstore\n      0x04\n      add\n      tag_97\n      swap2\n      swap1\n      tag_98\n      jump\t// in\n    tag_97:\n      0x20\n      mload(0x40)\n      dup1\n      dup4\n      sub\n      dup2\n      dup7\n      gas\n      delegatecall\n      iszero\n      dup1\n      iszero\n      tag_100\n      jumpi\n      returndatacopy(0x00, 0x00, returndatasize)\n      revert(0x00, returndatasize)\n    tag_100:\n      pop\n      pop\n      pop\n      pop\n      mload(0x40)\n      returndatasize\n      not(0x1f)\n      0x1f\n      dup3\n      add\n      and\n      dup3\n      add\n      dup1\n      0x40\n      mstore\n      pop\n      dup2\n      add\n      swap1\n      tag_101\n      swap2\n      swap1\n      tag_51\n      jump\t// in\n    tag_101:\n      pop\n        /* \"browse/test/Chama_test.sol\":1304:1437  catch Error(string memory reason) {... */\n      pop\n        /* \"browse/test/Chama_test.sol\":1193:1437  try chama.deposit{value: 0}() {... */\n      jump(tag_91)\n    tag_93:\n      pop\n    tag_92:\n      returndatacopy(0x00, 0x00, returndatasize)\n      revert(0x00, returndatasize)\n    tag_91:\n      jump(tag_102)\n    tag_90:\n        /* \"browse/test/Chama_test.sol\":1238:1244  Assert */\n      linkerSymbol(\"acbfb1c35000d78352310b16a054a6b1066124b9c6f054b10c085f549bff80c6\")\n        /* \"browse/test/Chama_test.sol\":1238:1247  Assert.ok */\n      0x39df137f\n        /* \"browse/test/Chama_test.sol\":1248:1253  false */\n      0x00\n        /* \"browse/test/Chama_test.sol\":1238:1291  Assert.ok(false, \"Should have reverted on 0 deposit\") */\n      mload(0x40)\n      dup3\n      0xffffffff\n      and\n      0xe0\n      shl\n      dup2\n      mstore\n      0x04\n      add\n      tag_103\n      swap2\n      swap1\n      tag_104\n      jump\t// in\n    tag_103:\n      0x20\n      mload(0x40)\n      dup1\n      dup4\n      sub\n      dup2\n      dup7\n      gas\n      delegatecall\n      iszero\n      dup1\n      iszero\n      tag_106\n      jumpi\n      returndatacopy(0x00, 0x00, returndatasize)\n      revert(0x00, returndatasize)\n    tag_106:\n      pop\n      pop\n      pop\n      pop\n      mload(0x40)\n      returndatasize\n      not(0x1f)\n      0x1f\n      dup3\n      add\n      and\n      dup3\n      add\n      dup1\n      0x40\n      mstore\n      pop\n      dup2\n      add\n      swap1\n      tag_107\n      swap2\n      swap1\n      tag_51\n      jump\t// in\n    tag_107:\n      pop\n        /* \"browse/test/Chama_test.sol\":1193:1437  try chama.deposit{value: 0}() {... */\n    tag_102:\n        /* \"browse/test/Chama_test.sol\":1144:1444  function testFailDepositZero() public {... */\n      jump\t// out\n        /* \"browse/test/Chama_test.sol\":628:757  function testTotalFunds() public {... */\n    tag_28:\n        /* \"browse/test/Chama_test.sol\":672:678  Assert */\n      linkerSymbol(\"acbfb1c35000d78352310b16a054a6b1066124b9c6f054b10c085f549bff80c6\")\n        /* \"browse/test/Chama_test.sol\":672:684  Assert.equal */\n      0xabcd7960\n        /* \"browse/test/Chama_test.sol\":685:690  chama */\n      0x00\n      0x00\n      swap1\n      sload\n      swap1\n      0x0100\n      exp\n      swap1\n      div\n      0xffffffffffffffffffffffffffffffffffffffff\n      and\n        /* \"browse/test/Chama_test.sol\":685:706  chama.getChamaBalance */\n      0xffffffffffffffffffffffffffffffffffffffff\n      and\n      0xd624a4e0\n        /* \"browse/test/Chama_test.sol\":685:708  chama.getChamaBalance() */\n      mload(0x40)\n      dup2\n      0xffffffff\n      and\n      0xe0\n      shl\n      dup2\n      mstore\n      0x04\n      add\n      0x20\n      mload(0x40)\n      dup1\n      dup4\n      sub\n      dup2\n      dup7\n      gas\n      staticcall\n      iszero\n      dup1\n      iszero\n      tag_110\n      jumpi\n      returndatacopy(0x00, 0x00, returndatasize)\n      revert(0x00, returndatasize)\n    tag_110:\n      pop\n      pop\n      pop\n      pop\n      mload(0x40)\n      returndatasize\n      not(0x1f)\n      0x1f\n      dup3\n      add\n      and\n      dup3\n      add\n      dup1\n      0x40\n      mstore\n      pop\n      dup2\n      add\n      swap1\n      tag_111\n      swap2\n      swap1\n      tag_77\n      jump\t// in\n    tag_111:\n        /* \"browse/test/Chama_test.sol\":710:717  1 ether */\n      0x0de0b6b3a7640000\n        /* \"browse/test/Chama_test.sol\":672:749  Assert.equal(chama.getChamaBalance(), 1 ether, \"Total funds should be 1 ETH\") */\n      mload(0x40)\n      dup4\n      0xffffffff\n      and\n      0xe0\n      shl\n      dup2\n      mstore\n      0x04\n      add\n      tag_112\n      swap3\n      swap2\n      swap1\n      tag_113\n      jump\t// in\n    tag_112:\n      0x20\n      mload(0x40)\n      dup1\n      dup4\n      sub\n      dup2\n      dup7\n      gas\n      delegatecall\n      iszero\n      dup1\n      iszero\n      tag_115\n      jumpi\n      returndatacopy(0x00, 0x00, returndatasize)\n      revert(0x00, returndatasize)\n    tag_115:\n      pop\n      pop\n      pop\n      pop\n      mload(0x40)\n      returndatasize\n      not(0x1f)\n      0x1f\n      dup3\n      add\n      and\n      dup3\n      add\n      dup1\n      0x40\n      mstore\n      pop\n      dup2\n      add\n      swap1\n      tag_116\n      swap2\n      swap1\n      tag_51\n      jump\t// in\n    tag_116:\n      pop\n        /* \"browse/test/Chama_test.sol\":628:757  function testTotalFunds() public {... */\n      jump\t// out\n        /* \"browse/test/Chama_test.sol\":765:1099  function testWithdrawal() public {... */\n    tag_31:\n        /* \"browse/test/Chama_test.sol\":809:827  uint256 preBalance */\n      0x00\n        /* \"browse/test/Chama_test.sol\":830:851  address(this).balance */\n      selfbalance\n        /* \"browse/test/Chama_test.sol\":809:851  uint256 preBalance = address(this).balance */\n      swap1\n      pop\n        /* \"browse/test/Chama_test.sol\":862:867  chama */\n      0x00\n      0x00\n      swap1\n      sload\n      swap1\n      0x0100\n      exp\n      swap1\n      div\n      0xffffffffffffffffffffffffffffffffffffffff\n      and\n        /* \"browse/test/Chama_test.sol\":862:876  chama.withdraw */\n      0xffffffffffffffffffffffffffffffffffffffff\n      and\n      0x2e1a7d4d\n        /* \"browse/test/Chama_test.sol\":877:886  0.5 ether */\n      0x06f05b59d3b20000\n        /* \"browse/test/Chama_test.sol\":862:887  chama.withdraw(0.5 ether) */\n      mload(0x40)\n      dup3\n      0xffffffff\n      and\n      0xe0\n      shl\n      dup2\n      mstore\n      0x04\n      add\n      tag_118\n      swap2\n      swap1\n      tag_119\n      jump\t// in\n    tag_118:\n      0x00\n      mload(0x40)\n      dup1\n      dup4\n      sub\n      dup2\n      0x00\n      dup8\n      dup1\n      extcodesize\n      iszero\n      dup1\n      iszero\n      tag_120\n      jumpi\n      revert(0x00, 0x00)\n    tag_120:\n      pop\n      gas\n      call\n      iszero\n      dup1\n      iszero\n      tag_122\n      jumpi\n      returndatacopy(0x00, 0x00, returndatasize)\n      revert(0x00, returndatasize)\n    tag_122:\n      pop\n      pop\n      pop\n      pop\n        /* \"browse/test/Chama_test.sol\":898:904  Assert */\n      linkerSymbol(\"acbfb1c35000d78352310b16a054a6b1066124b9c6f054b10c085f549bff80c6\")\n        /* \"browse/test/Chama_test.sol\":898:910  Assert.equal */\n      0xabcd7960\n        /* \"browse/test/Chama_test.sol\":911:916  chama */\n      0x00\n      0x00\n      swap1\n      sload\n      swap1\n      0x0100\n      exp\n      swap1\n      div\n      0xffffffffffffffffffffffffffffffffffffffff\n      and\n        /* \"browse/test/Chama_test.sol\":911:925  chama.balances */\n      0xffffffffffffffffffffffffffffffffffffffff\n      and\n      0x27e235e3\n        /* \"browse/test/Chama_test.sol\":934:938  this */\n      address\n        /* \"browse/test/Chama_test.sol\":911:940  chama.balances(address(this)) */\n      mload(0x40)\n      dup3\n      0xffffffff\n      and\n      0xe0\n      shl\n      dup2\n      mstore\n      0x04\n      add\n      tag_123\n      swap2\n      swap1\n      tag_73\n      jump\t// in\n    tag_123:\n      0x20\n      mload(0x40)\n      dup1\n      dup4\n      sub\n      dup2\n      dup7\n      gas\n      staticcall\n      iszero\n      dup1\n      iszero\n      tag_125\n      jumpi\n      returndatacopy(0x00, 0x00, returndatasize)\n      revert(0x00, returndatasize)\n    tag_125:\n      pop\n      pop\n      pop\n      pop\n      mload(0x40)\n      returndatasize\n      not(0x1f)\n      0x1f\n      dup3\n      add\n      and\n      dup3\n      add\n      dup1\n      0x40\n      mstore\n      pop\n      dup2\n      add\n      swap1\n      tag_126\n      swap2\n      swap1\n      tag_77\n      jump\t// in\n    tag_126:\n        /* \"browse/test/Chama_test.sol\":942:951  0.5 ether */\n      0x06f05b59d3b20000\n        /* \"browse/test/Chama_test.sol\":898:998  Assert.equal(chama.balances(address(this)), 0.5 ether, \"Balance should be 0.5 ETH after withdrawal\") */\n      mload(0x40)\n      dup4\n      0xffffffff\n      and\n      0xe0\n      shl\n      dup2\n      mstore\n      0x04\n      add\n      tag_127\n      swap3\n      swap2\n      swap1\n      tag_128\n      jump\t// in\n    tag_127:\n      0x20\n      mload(0x40)\n      dup1\n      dup4\n      sub\n      dup2\n      dup7\n      gas\n      delegatecall\n      iszero\n      dup1\n      iszero\n      tag_130\n      jumpi\n      returndatacopy(0x00, 0x00, returndatasize)\n      revert(0x00, returndatasize)\n    tag_130:\n      pop\n      pop\n      pop\n      pop\n      mload(0x40)\n      returndatasize\n      not(0x1f)\n      0x1f\n      dup3\n      add\n      and\n      dup3\n      add\n      dup1\n      0x40\n      mstore\n      pop\n      dup2\n      add\n      swap1\n      tag_131\n      swap2\n      swap1\n      tag_51\n      jump\t// in\n    tag_131:\n      pop\n        /* \"browse/test/Chama_test.sol\":1009:1015  Assert */\n      linkerSymbol(\"acbfb1c35000d78352310b16a054a6b1066124b9c6f054b10c085f549bff80c6\")\n        /* \"browse/test/Chama_test.sol\":1009:1018  Assert.ok */\n      0x39df137f\n        /* \"browse/test/Chama_test.sol\":1043:1053  preBalance */\n      dup3\n        /* \"browse/test/Chama_test.sol\":1019:1040  address(this).balance */\n      selfbalance\n        /* \"browse/test/Chama_test.sol\":1019:1053  address(this).balance > preBalance */\n      gt\n        /* \"browse/test/Chama_test.sol\":1009:1091  Assert.ok(address(this).balance > preBalance, \"Contract should have received ETH\") */\n      mload(0x40)\n      dup3\n      0xffffffff\n      and\n      0xe0\n      shl\n      dup2\n      mstore\n      0x04\n      add\n      tag_132\n      swap2\n      swap1\n      tag_133\n      jump\t// in\n    tag_132:\n      0x20\n      mload(0x40)\n      dup1\n      dup4\n      sub\n      dup2\n      dup7\n      gas\n      delegatecall\n      iszero\n      dup1\n      iszero\n      tag_135\n      jumpi\n      returndatacopy(0x00, 0x00, returndatasize)\n      revert(0x00, returndatasize)\n    tag_135:\n      pop\n      pop\n      pop\n      pop\n      mload(0x40)\n      returndatasize\n      not(0x1f)\n      0x1f\n      dup3\n      add\n      and\n      dup3\n      add\n      dup1\n      0x40\n      mstore\n      pop\n      dup2\n      add\n      swap1\n      tag_136\n      swap2\n      swap1\n      tag_51\n      jump\t// in\n    tag_136:\n      pop\n        /* \"browse/test/Chama_test.sol\":798:1099  {... */\n      pop\n        /* \"browse/test/Chama_test.sol\":765:1099  function testWithdrawal() public {... */\n      jump\t// out\n    tag_85:\n      dataSize(sub_0)\n      dup1\n      dataOffset(sub_0)\n      dup4\n      codecopy\n      add\n      swap1\n      jump\t// out\n        /* \"#utility.yul\":7:111   */\n    tag_137:\n        /* \"#utility.yul\":71:78   */\n      0x00\n        /* \"#utility.yul\":100:105   */\n      dup2\n        /* \"#utility.yul\":89:105   */\n      swap1\n      pop\n        /* \"#utility.yul\":7:111   */\n      swap2\n      swap1\n      pop\n      jump\t// out\n        /* \"#utility.yul\":117:194   */\n    tag_138:\n        /* \"#utility.yul\":154:161   */\n      0x00\n        /* \"#utility.yul\":183:188   */\n      dup2\n        /* \"#utility.yul\":172:188   */\n      swap1\n      pop\n        /* \"#utility.yul\":117:194   */\n      swap2\n      swap1\n      pop\n      jump\t// out\n        /* \"#utility.yul\":200:260   */\n    tag_139:\n        /* \"#utility.yul\":228:231   */\n      0x00\n        /* \"#utility.yul\":249:254   */\n      dup2\n        /* \"#utility.yul\":242:254   */\n      swap1\n      pop\n        /* \"#utility.yul\":200:260   */\n      swap2\n      swap1\n      pop\n      jump\t// out\n        /* \"#utility.yul\":266:462   */\n    tag_140:\n        /* \"#utility.yul\":343:352   */\n      0x00\n        /* \"#utility.yul\":376:456   */\n      tag_198\n        /* \"#utility.yul\":394:455   */\n      tag_199\n        /* \"#utility.yul\":403:454   */\n      tag_200\n        /* \"#utility.yul\":448:453   */\n      dup5\n        /* \"#utility.yul\":403:454   */\n      tag_137\n      jump\t// in\n    tag_200:\n        /* \"#utility.yul\":394:455   */\n      tag_139\n      jump\t// in\n    tag_199:\n        /* \"#utility.yul\":376:456   */\n      tag_138\n      jump\t// in\n    tag_198:\n        /* \"#utility.yul\":363:456   */\n      swap1\n      pop\n        /* \"#utility.yul\":266:462   */\n      swap2\n      swap1\n      pop\n      jump\t// out\n        /* \"#utility.yul\":468:653   */\n    tag_141:\n        /* \"#utility.yul\":582:646   */\n      tag_202\n        /* \"#utility.yul\":640:645   */\n      dup2\n        /* \"#utility.yul\":582:646   */\n      tag_140\n      jump\t// in\n    tag_202:\n        /* \"#utility.yul\":577:580   */\n      dup3\n        /* \"#utility.yul\":570:647   */\n      mstore\n        /* \"#utility.yul\":468:653   */\n      pop\n      pop\n      jump\t// out\n        /* \"#utility.yul\":659:935   */\n    tag_34:\n        /* \"#utility.yul\":779:783   */\n      0x00\n        /* \"#utility.yul\":817:819   */\n      0x20\n        /* \"#utility.yul\":806:815   */\n      dup3\n        /* \"#utility.yul\":802:820   */\n      add\n        /* \"#utility.yul\":794:820   */\n      swap1\n      pop\n        /* \"#utility.yul\":830:928   */\n      tag_204\n        /* \"#utility.yul\":925:926   */\n      0x00\n        /* \"#utility.yul\":914:923   */\n      dup4\n        /* \"#utility.yul\":910:927   */\n      add\n        /* \"#utility.yul\":901:907   */\n      dup5\n        /* \"#utility.yul\":830:928   */\n      tag_141\n      jump\t// in\n    tag_204:\n        /* \"#utility.yul\":659:935   */\n      swap3\n      swap2\n      pop\n      pop\n      jump\t// out\n        /* \"#utility.yul\":941:1047   */\n    tag_142:\n        /* \"#utility.yul\":985:993   */\n      0x00\n        /* \"#utility.yul\":1034:1039   */\n      dup2\n        /* \"#utility.yul\":1029:1032   */\n      0xe0\n        /* \"#utility.yul\":1025:1040   */\n      shr\n        /* \"#utility.yul\":1004:1040   */\n      swap1\n      pop\n        /* \"#utility.yul\":941:1047   */\n      swap2\n      swap1\n      pop\n      jump\t// out\n        /* \"#utility.yul\":1053:1236   */\n    tag_42:\n        /* \"#utility.yul\":1088:1091   */\n      0x00\n        /* \"#utility.yul\":1126:1127   */\n      0x03\n        /* \"#utility.yul\":1108:1124   */\n      returndatasize\n        /* \"#utility.yul\":1105:1128   */\n      gt\n        /* \"#utility.yul\":1102:1230   */\n      iszero\n      tag_207\n      jumpi\n        /* \"#utility.yul\":1164:1165   */\n      0x04\n        /* \"#utility.yul\":1161:1162   */\n      0x00\n        /* \"#utility.yul\":1158:1159   */\n      0x00\n        /* \"#utility.yul\":1143:1166   */\n      returndatacopy\n        /* \"#utility.yul\":1186:1220   */\n      tag_208\n        /* \"#utility.yul\":1217:1218   */\n      0x00\n        /* \"#utility.yul\":1211:1219   */\n      mload\n        /* \"#utility.yul\":1186:1220   */\n      tag_142\n      jump\t// in\n    tag_208:\n        /* \"#utility.yul\":1179:1220   */\n      swap1\n      pop\n        /* \"#utility.yul\":1102:1230   */\n    tag_207:\n        /* \"#utility.yul\":1053:1236   */\n      swap1\n      jump\t// out\n        /* \"#utility.yul\":1242:1317   */\n    tag_143:\n        /* \"#utility.yul\":1275:1281   */\n      0x00\n        /* \"#utility.yul\":1308:1310   */\n      0x40\n        /* \"#utility.yul\":1302:1311   */\n      mload\n        /* \"#utility.yul\":1292:1311   */\n      swap1\n      pop\n        /* \"#utility.yul\":1242:1317   */\n      swap1\n      jump\t// out\n        /* \"#utility.yul\":1323:1425   */\n    tag_144:\n        /* \"#utility.yul\":1364:1370   */\n      0x00\n        /* \"#utility.yul\":1415:1417   */\n      0x1f\n        /* \"#utility.yul\":1411:1418   */\n      not\n        /* \"#utility.yul\":1406:1408   */\n      0x1f\n        /* \"#utility.yul\":1399:1404   */\n      dup4\n        /* \"#utility.yul\":1395:1409   */\n      add\n        /* \"#utility.yul\":1391:1419   */\n      and\n        /* \"#utility.yul\":1381:1419   */\n      swap1\n      pop\n        /* \"#utility.yul\":1323:1425   */\n      swap2\n      swap1\n      pop\n      jump\t// out\n        /* \"#utility.yul\":1431:1611   */\n    tag_145:\n        /* \"#utility.yul\":1479:1556   */\n      0x4e487b7100000000000000000000000000000000000000000000000000000000\n        /* \"#utility.yul\":1476:1477   */\n      0x00\n        /* \"#utility.yul\":1469:1557   */\n      mstore\n        /* \"#utility.yul\":1576:1580   */\n      0x41\n        /* \"#utility.yul\":1573:1574   */\n      0x04\n        /* \"#utility.yul\":1566:1581   */\n      mstore\n        /* \"#utility.yul\":1600:1604   */\n      0x24\n        /* \"#utility.yul\":1597:1598   */\n      0x00\n        /* \"#utility.yul\":1590:1605   */\n      revert\n        /* \"#utility.yul\":1617:1898   */\n    tag_146:\n        /* \"#utility.yul\":1700:1727   */\n      tag_213\n        /* \"#utility.yul\":1722:1726   */\n      dup3\n        /* \"#utility.yul\":1700:1727   */\n      tag_144\n      jump\t// in\n    tag_213:\n        /* \"#utility.yul\":1692:1698   */\n      dup2\n        /* \"#utility.yul\":1688:1728   */\n      add\n        /* \"#utility.yul\":1830:1836   */\n      dup2\n        /* \"#utility.yul\":1818:1828   */\n      dup2\n        /* \"#utility.yul\":1815:1837   */\n      lt\n        /* \"#utility.yul\":1794:1812   */\n      0xffffffffffffffff\n        /* \"#utility.yul\":1782:1792   */\n      dup3\n        /* \"#utility.yul\":1779:1813   */\n      gt\n        /* \"#utility.yul\":1776:1838   */\n      or\n        /* \"#utility.yul\":1773:1861   */\n      iszero\n      tag_214\n      jumpi\n        /* \"#utility.yul\":1841:1859   */\n      tag_215\n      tag_145\n      jump\t// in\n    tag_215:\n        /* \"#utility.yul\":1773:1861   */\n    tag_214:\n        /* \"#utility.yul\":1881:1891   */\n      dup1\n        /* \"#utility.yul\":1877:1879   */\n      0x40\n        /* \"#utility.yul\":1870:1892   */\n      mstore\n        /* \"#utility.yul\":1660:1898   */\n      pop\n        /* \"#utility.yul\":1617:1898   */\n      pop\n      pop\n      jump\t// out\n        /* \"#utility.yul\":1904:2615   */\n    tag_44:\n        /* \"#utility.yul\":1943:1946   */\n      0x00\n        /* \"#utility.yul\":1981:1985   */\n      0x44\n        /* \"#utility.yul\":1963:1979   */\n      returndatasize\n        /* \"#utility.yul\":1960:1986   */\n      lt\n        /* \"#utility.yul\":1989:1994   */\n      tag_216\n        /* \"#utility.yul\":1957:1996   */\n      jumpi\n        /* \"#utility.yul\":2018:2038   */\n      tag_218\n      tag_143\n      jump\t// in\n    tag_218:\n        /* \"#utility.yul\":2093:2094   */\n      0x04\n        /* \"#utility.yul\":2075:2091   */\n      returndatasize\n        /* \"#utility.yul\":2071:2095   */\n      sub\n        /* \"#utility.yul\":2068:2069   */\n      0x04\n        /* \"#utility.yul\":2062:2066   */\n      dup3\n        /* \"#utility.yul\":2047:2096   */\n      returndatacopy\n        /* \"#utility.yul\":2126:2130   */\n      dup1\n        /* \"#utility.yul\":2120:2131   */\n      mload\n        /* \"#utility.yul\":2225:2241   */\n      returndatasize\n        /* \"#utility.yul\":2218:2222   */\n      0x24\n        /* \"#utility.yul\":2210:2216   */\n      dup3\n        /* \"#utility.yul\":2206:2223   */\n      add\n        /* \"#utility.yul\":2203:2242   */\n      gt\n        /* \"#utility.yul\":2170:2188   */\n      0xffffffffffffffff\n        /* \"#utility.yul\":2162:2168   */\n      dup3\n        /* \"#utility.yul\":2159:2189   */\n      gt\n        /* \"#utility.yul\":2143:2256   */\n      or\n        /* \"#utility.yul\":2140:2286   */\n      iszero\n      tag_219\n      jumpi\n        /* \"#utility.yul\":2271:2276   */\n      pop\n      pop\n      jump(tag_216)\n        /* \"#utility.yul\":2140:2286   */\n    tag_219:\n        /* \"#utility.yul\":2317:2323   */\n      dup1\n        /* \"#utility.yul\":2311:2315   */\n      dup3\n        /* \"#utility.yul\":2307:2324   */\n      add\n        /* \"#utility.yul\":2353:2356   */\n      dup1\n        /* \"#utility.yul\":2347:2357   */\n      mload\n        /* \"#utility.yul\":2380:2398   */\n      0xffffffffffffffff\n        /* \"#utility.yul\":2372:2378   */\n      dup2\n        /* \"#utility.yul\":2369:2399   */\n      gt\n        /* \"#utility.yul\":2366:2409   */\n      iszero\n      tag_220\n      jumpi\n        /* \"#utility.yul\":2402:2407   */\n      pop\n      pop\n      pop\n      pop\n      jump(tag_216)\n        /* \"#utility.yul\":2366:2409   */\n    tag_220:\n        /* \"#utility.yul\":2450:2456   */\n      dup1\n        /* \"#utility.yul\":2443:2447   */\n      0x20\n        /* \"#utility.yul\":2438:2441   */\n      dup4\n        /* \"#utility.yul\":2434:2448   */\n      add\n        /* \"#utility.yul\":2430:2457   */\n      add\n        /* \"#utility.yul\":2509:2510   */\n      0x04\n        /* \"#utility.yul\":2491:2507   */\n      returndatasize\n        /* \"#utility.yul\":2487:2511   */\n      sub\n        /* \"#utility.yul\":2481:2485   */\n      dup6\n        /* \"#utility.yul\":2477:2512   */\n      add\n        /* \"#utility.yul\":2472:2475   */\n      dup2\n        /* \"#utility.yul\":2469:2513   */\n      gt\n        /* \"#utility.yul\":2466:2523   */\n      iszero\n      tag_221\n      jumpi\n        /* \"#utility.yul\":2516:2521   */\n      pop\n      pop\n      pop\n      pop\n      pop\n      jump(tag_216)\n        /* \"#utility.yul\":2466:2523   */\n    tag_221:\n        /* \"#utility.yul\":2533:2590   */\n      tag_222\n        /* \"#utility.yul\":2581:2587   */\n      dup3\n        /* \"#utility.yul\":2575:2579   */\n      0x20\n        /* \"#utility.yul\":2571:2588   */\n      add\n        /* \"#utility.yul\":2563:2569   */\n      dup6\n        /* \"#utility.yul\":2559:2589   */\n      add\n        /* \"#utility.yul\":2553:2557   */\n      dup7\n        /* \"#utility.yul\":2533:2590   */\n      tag_146\n      jump\t// in\n    tag_222:\n        /* \"#utility.yul\":2606:2609   */\n      dup3\n        /* \"#utility.yul\":2599:2609   */\n      swap6\n      pop\n        /* \"#utility.yul\":1947:2615   */\n      pop\n      pop\n      pop\n      pop\n      pop\n        /* \"#utility.yul\":1904:2615   */\n    tag_216:\n      swap1\n      jump\t// out\n        /* \"#utility.yul\":2621:2720   */\n    tag_147:\n        /* \"#utility.yul\":2673:2679   */\n      0x00\n        /* \"#utility.yul\":2707:2712   */\n      dup2\n        /* \"#utility.yul\":2701:2713   */\n      mload\n        /* \"#utility.yul\":2691:2713   */\n      swap1\n      pop\n        /* \"#utility.yul\":2621:2720   */\n      swap2\n      swap1\n      pop\n      jump\t// out\n        /* \"#utility.yul\":2726:2903   */\n    tag_148:\n        /* \"#utility.yul\":2818:2829   */\n      0x00\n        /* \"#utility.yul\":2852:2858   */\n      dup3\n        /* \"#utility.yul\":2847:2850   */\n      dup3\n        /* \"#utility.yul\":2840:2859   */\n      mstore\n        /* \"#utility.yul\":2892:2896   */\n      0x20\n        /* \"#utility.yul\":2887:2890   */\n      dup3\n        /* \"#utility.yul\":2883:2897   */\n      add\n        /* \"#utility.yul\":2868:2897   */\n      swap1\n      pop\n        /* \"#utility.yul\":2726:2903   */\n      swap3\n      swap2\n      pop\n      pop\n      jump\t// out\n        /* \"#utility.yul\":2909:3048   */\n    tag_149:\n        /* \"#utility.yul\":2998:3004   */\n      dup3\n        /* \"#utility.yul\":2993:2996   */\n      dup2\n        /* \"#utility.yul\":2988:2991   */\n      dup4\n        /* \"#utility.yul\":2982:3005   */\n      mcopy\n        /* \"#utility.yul\":3039:3040   */\n      0x00\n        /* \"#utility.yul\":3030:3036   */\n      dup4\n        /* \"#utility.yul\":3025:3028   */\n      dup4\n        /* \"#utility.yul\":3021:3037   */\n      add\n        /* \"#utility.yul\":3014:3041   */\n      mstore\n        /* \"#utility.yul\":2909:3048   */\n      pop\n      pop\n      pop\n      jump\t// out\n        /* \"#utility.yul\":3054:3447   */\n    tag_150:\n        /* \"#utility.yul\":3150:3153   */\n      0x00\n        /* \"#utility.yul\":3178:3217   */\n      tag_227\n        /* \"#utility.yul\":3211:3216   */\n      dup3\n        /* \"#utility.yul\":3178:3217   */\n      tag_147\n      jump\t// in\n    tag_227:\n        /* \"#utility.yul\":3233:3312   */\n      tag_228\n        /* \"#utility.yul\":3305:3311   */\n      dup2\n        /* \"#utility.yul\":3300:3303   */\n      dup6\n        /* \"#utility.yul\":3233:3312   */\n      tag_148\n      jump\t// in\n    tag_228:\n        /* \"#utility.yul\":3226:3312   */\n      swap4\n      pop\n        /* \"#utility.yul\":3321:3386   */\n      tag_229\n        /* \"#utility.yul\":3379:3385   */\n      dup2\n        /* \"#utility.yul\":3374:3377   */\n      dup6\n        /* \"#utility.yul\":3367:3371   */\n      0x20\n        /* \"#utility.yul\":3360:3365   */\n      dup7\n        /* \"#utility.yul\":3356:3372   */\n      add\n        /* \"#utility.yul\":3321:3386   */\n      tag_149\n      jump\t// in\n    tag_229:\n        /* \"#utility.yul\":3411:3440   */\n      tag_230\n        /* \"#utility.yul\":3433:3439   */\n      dup2\n        /* \"#utility.yul\":3411:3440   */\n      tag_144\n      jump\t// in\n    tag_230:\n        /* \"#utility.yul\":3406:3409   */\n      dup5\n        /* \"#utility.yul\":3402:3441   */\n      add\n        /* \"#utility.yul\":3395:3441   */\n      swap2\n      pop\n        /* \"#utility.yul\":3154:3447   */\n      pop\n        /* \"#utility.yul\":3054:3447   */\n      swap3\n      swap2\n      pop\n      pop\n      jump\t// out\n        /* \"#utility.yul\":3453:3676   */\n    tag_151:\n        /* \"#utility.yul\":3593:3627   */\n      0x496e73756666696369656e742062616c616e636520696e20796f757220616363\n        /* \"#utility.yul\":3589:3590   */\n      0x00\n        /* \"#utility.yul\":3581:3587   */\n      dup3\n        /* \"#utility.yul\":3577:3591   */\n      add\n        /* \"#utility.yul\":3570:3628   */\n      mstore\n        /* \"#utility.yul\":3662:3668   */\n      0x6f756e7400000000000000000000000000000000000000000000000000000000\n        /* \"#utility.yul\":3657:3659   */\n      0x20\n        /* \"#utility.yul\":3649:3655   */\n      dup3\n        /* \"#utility.yul\":3645:3660   */\n      add\n        /* \"#utility.yul\":3638:3669   */\n      mstore\n        /* \"#utility.yul\":3453:3676   */\n      pop\n      jump\t// out\n        /* \"#utility.yul\":3682:4064   */\n    tag_152:\n        /* \"#utility.yul\":3832:3835   */\n      0x00\n        /* \"#utility.yul\":3853:3928   */\n      tag_233\n        /* \"#utility.yul\":3925:3927   */\n      0x24\n        /* \"#utility.yul\":3920:3923   */\n      dup4\n        /* \"#utility.yul\":3853:3928   */\n      tag_148\n      jump\t// in\n    tag_233:\n        /* \"#utility.yul\":3846:3928   */\n      swap2\n      pop\n        /* \"#utility.yul\":3937:4030   */\n      tag_234\n        /* \"#utility.yul\":4026:4029   */\n      dup3\n        /* \"#utility.yul\":3937:4030   */\n      tag_151\n      jump\t// in\n    tag_234:\n        /* \"#utility.yul\":4055:4057   */\n      0x40\n        /* \"#utility.yul\":4050:4053   */\n      dup3\n        /* \"#utility.yul\":4046:4058   */\n      add\n        /* \"#utility.yul\":4039:4058   */\n      swap1\n      pop\n        /* \"#utility.yul\":3682:4064   */\n      swap2\n      swap1\n      pop\n      jump\t// out\n        /* \"#utility.yul\":4070:4239   */\n    tag_153:\n        /* \"#utility.yul\":4210:4231   */\n      0x57726f6e672072657665727420726561736f6e00000000000000000000000000\n        /* \"#utility.yul\":4206:4207   */\n      0x00\n        /* \"#utility.yul\":4198:4204   */\n      dup3\n        /* \"#utility.yul\":4194:4208   */\n      add\n        /* \"#utility.yul\":4187:4232   */\n      mstore\n        /* \"#utility.yul\":4070:4239   */\n      pop\n      jump\t// out\n        /* \"#utility.yul\":4245:4627   */\n    tag_154:\n        /* \"#utility.yul\":4395:4398   */\n      0x00\n        /* \"#utility.yul\":4416:4491   */\n      tag_237\n        /* \"#utility.yul\":4488:4490   */\n      0x13\n        /* \"#utility.yul\":4483:4486   */\n      dup4\n        /* \"#utility.yul\":4416:4491   */\n      tag_148\n      jump\t// in\n    tag_237:\n        /* \"#utility.yul\":4409:4491   */\n      swap2\n      pop\n        /* \"#utility.yul\":4500:4593   */\n      tag_238\n        /* \"#utility.yul\":4589:4592   */\n      dup3\n        /* \"#utility.yul\":4500:4593   */\n      tag_153\n      jump\t// in\n    tag_238:\n        /* \"#utility.yul\":4618:4620   */\n      0x20\n        /* \"#utility.yul\":4613:4616   */\n      dup3\n        /* \"#utility.yul\":4609:4621   */\n      add\n        /* \"#utility.yul\":4602:4621   */\n      swap1\n      pop\n        /* \"#utility.yul\":4245:4627   */\n      swap2\n      swap1\n      pop\n      jump\t// out\n        /* \"#utility.yul\":4633:5592   */\n    tag_47:\n        /* \"#utility.yul\":4956:4960   */\n      0x00\n        /* \"#utility.yul\":4994:4996   */\n      0x60\n        /* \"#utility.yul\":4983:4992   */\n      dup3\n        /* \"#utility.yul\":4979:4997   */\n      add\n        /* \"#utility.yul\":4971:4997   */\n      swap1\n      pop\n        /* \"#utility.yul\":5043:5052   */\n      dup2\n        /* \"#utility.yul\":5037:5041   */\n      dup2\n        /* \"#utility.yul\":5033:5053   */\n      sub\n        /* \"#utility.yul\":5029:5030   */\n      0x00\n        /* \"#utility.yul\":5018:5027   */\n      dup4\n        /* \"#utility.yul\":5014:5031   */\n      add\n        /* \"#utility.yul\":5007:5054   */\n      mstore\n        /* \"#utility.yul\":5071:5157   */\n      tag_240\n        /* \"#utility.yul\":5152:5156   */\n      dup2\n        /* \"#utility.yul\":5143:5149   */\n      dup5\n        /* \"#utility.yul\":5071:5157   */\n      tag_150\n      jump\t// in\n    tag_240:\n        /* \"#utility.yul\":5063:5157   */\n      swap1\n      pop\n        /* \"#utility.yul\":5204:5213   */\n      dup2\n        /* \"#utility.yul\":5198:5202   */\n      dup2\n        /* \"#utility.yul\":5194:5214   */\n      sub\n        /* \"#utility.yul\":5189:5191   */\n      0x20\n        /* \"#utility.yul\":5178:5187   */\n      dup4\n        /* \"#utility.yul\":5174:5192   */\n      add\n        /* \"#utility.yul\":5167:5215   */\n      mstore\n        /* \"#utility.yul\":5232:5371   */\n      tag_241\n        /* \"#utility.yul\":5366:5370   */\n      dup2\n        /* \"#utility.yul\":5232:5371   */\n      tag_152\n      jump\t// in\n    tag_241:\n        /* \"#utility.yul\":5224:5371   */\n      swap1\n      pop\n        /* \"#utility.yul\":5418:5427   */\n      dup2\n        /* \"#utility.yul\":5412:5416   */\n      dup2\n        /* \"#utility.yul\":5408:5428   */\n      sub\n        /* \"#utility.yul\":5403:5405   */\n      0x40\n        /* \"#utility.yul\":5392:5401   */\n      dup4\n        /* \"#utility.yul\":5388:5406   */\n      add\n        /* \"#utility.yul\":5381:5429   */\n      mstore\n        /* \"#utility.yul\":5446:5585   */\n      tag_242\n        /* \"#utility.yul\":5580:5584   */\n      dup2\n        /* \"#utility.yul\":5446:5585   */\n      tag_154\n      jump\t// in\n    tag_242:\n        /* \"#utility.yul\":5438:5585   */\n      swap1\n      pop\n        /* \"#utility.yul\":4633:5592   */\n      swap3\n      swap2\n      pop\n      pop\n      jump\t// out\n        /* \"#utility.yul\":5598:5715   */\n    tag_155:\n        /* \"#utility.yul\":5707:5708   */\n      0x00\n        /* \"#utility.yul\":5704:5705   */\n      0x00\n        /* \"#utility.yul\":5697:5709   */\n      revert\n        /* \"#utility.yul\":5844:5934   */\n    tag_157:\n        /* \"#utility.yul\":5878:5885   */\n      0x00\n        /* \"#utility.yul\":5921:5926   */\n      dup2\n        /* \"#utility.yul\":5914:5927   */\n      iszero\n        /* \"#utility.yul\":5907:5928   */\n      iszero\n        /* \"#utility.yul\":5896:5928   */\n      swap1\n      pop\n        /* \"#utility.yul\":5844:5934   */\n      swap2\n      swap1\n      pop\n      jump\t// out\n        /* \"#utility.yul\":5940:6056   */\n    tag_158:\n        /* \"#utility.yul\":6010:6031   */\n      tag_247\n        /* \"#utility.yul\":6025:6030   */\n      dup2\n        /* \"#utility.yul\":6010:6031   */\n      tag_157\n      jump\t// in\n    tag_247:\n        /* \"#utility.yul\":6003:6008   */\n      dup2\n        /* \"#utility.yul\":6000:6032   */\n      eq\n        /* \"#utility.yul\":5990:6050   */\n      tag_248\n      jumpi\n        /* \"#utility.yul\":6046:6047   */\n      0x00\n        /* \"#utility.yul\":6043:6044   */\n      0x00\n        /* \"#utility.yul\":6036:6048   */\n      revert\n        /* \"#utility.yul\":5990:6050   */\n    tag_248:\n        /* \"#utility.yul\":5940:6056   */\n      pop\n      jump\t// out\n        /* \"#utility.yul\":6062:6199   */\n    tag_159:\n        /* \"#utility.yul\":6116:6121   */\n      0x00\n        /* \"#utility.yul\":6147:6153   */\n      dup2\n        /* \"#utility.yul\":6141:6154   */\n      mload\n        /* \"#utility.yul\":6132:6154   */\n      swap1\n      pop\n        /* \"#utility.yul\":6163:6193   */\n      tag_250\n        /* \"#utility.yul\":6187:6192   */\n      dup2\n        /* \"#utility.yul\":6163:6193   */\n      tag_158\n      jump\t// in\n    tag_250:\n        /* \"#utility.yul\":6062:6199   */\n      swap3\n      swap2\n      pop\n      pop\n      jump\t// out\n        /* \"#utility.yul\":6205:6550   */\n    tag_51:\n        /* \"#utility.yul\":6272:6278   */\n      0x00\n        /* \"#utility.yul\":6321:6323   */\n      0x20\n        /* \"#utility.yul\":6309:6318   */\n      dup3\n        /* \"#utility.yul\":6300:6307   */\n      dup5\n        /* \"#utility.yul\":6296:6319   */\n      sub\n        /* \"#utility.yul\":6292:6324   */\n      slt\n        /* \"#utility.yul\":6289:6408   */\n      iszero\n      tag_252\n      jumpi\n        /* \"#utility.yul\":6327:6406   */\n      tag_253\n      tag_155\n      jump\t// in\n    tag_253:\n        /* \"#utility.yul\":6289:6408   */\n    tag_252:\n        /* \"#utility.yul\":6447:6448   */\n      0x00\n        /* \"#utility.yul\":6472:6533   */\n      tag_254\n        /* \"#utility.yul\":6525:6532   */\n      dup5\n        /* \"#utility.yul\":6516:6522   */\n      dup3\n        /* \"#utility.yul\":6505:6514   */\n      dup6\n        /* \"#utility.yul\":6501:6523   */\n      add\n        /* \"#utility.yul\":6472:6533   */\n      tag_159\n      jump\t// in\n    tag_254:\n        /* \"#utility.yul\":6462:6533   */\n      swap2\n      pop\n        /* \"#utility.yul\":6418:6543   */\n      pop\n        /* \"#utility.yul\":6205:6550   */\n      swap3\n      swap2\n      pop\n      pop\n      jump\t// out\n        /* \"#utility.yul\":6556:6673   */\n    tag_160:\n        /* \"#utility.yul\":6645:6666   */\n      tag_256\n        /* \"#utility.yul\":6660:6665   */\n      dup2\n        /* \"#utility.yul\":6645:6666   */\n      tag_157\n      jump\t// in\n    tag_256:\n        /* \"#utility.yul\":6640:6643   */\n      dup3\n        /* \"#utility.yul\":6633:6667   */\n      mstore\n        /* \"#utility.yul\":6556:6673   */\n      pop\n      pop\n      jump\t// out\n        /* \"#utility.yul\":6679:6907   */\n    tag_161:\n        /* \"#utility.yul\":6819:6853   */\n      0x53686f756c64206861766520726576657274656420666f72206f7665722d7769\n        /* \"#utility.yul\":6815:6816   */\n      0x00\n        /* \"#utility.yul\":6807:6813   */\n      dup3\n        /* \"#utility.yul\":6803:6817   */\n      add\n        /* \"#utility.yul\":6796:6854   */\n      mstore\n        /* \"#utility.yul\":6888:6899   */\n      0x746864726177696e670000000000000000000000000000000000000000000000\n        /* \"#utility.yul\":6883:6885   */\n      0x20\n        /* \"#utility.yul\":6875:6881   */\n      dup3\n        /* \"#utility.yul\":6871:6886   */\n      add\n        /* \"#utility.yul\":6864:6900   */\n      mstore\n        /* \"#utility.yul\":6679:6907   */\n      pop\n      jump\t// out\n        /* \"#utility.yul\":6913:7295   */\n    tag_162:\n        /* \"#utility.yul\":7063:7066   */\n      0x00\n        /* \"#utility.yul\":7084:7159   */\n      tag_259\n        /* \"#utility.yul\":7156:7158   */\n      0x29\n        /* \"#utility.yul\":7151:7154   */\n      dup4\n        /* \"#utility.yul\":7084:7159   */\n      tag_148\n      jump\t// in\n    tag_259:\n        /* \"#utility.yul\":7077:7159   */\n      swap2\n      pop\n        /* \"#utility.yul\":7168:7261   */\n      tag_260\n        /* \"#utility.yul\":7257:7260   */\n      dup3\n        /* \"#utility.yul\":7168:7261   */\n      tag_161\n      jump\t// in\n    tag_260:\n        /* \"#utility.yul\":7286:7288   */\n      0x40\n        /* \"#utility.yul\":7281:7284   */\n      dup3\n        /* \"#utility.yul\":7277:7289   */\n      add\n        /* \"#utility.yul\":7270:7289   */\n      swap1\n      pop\n        /* \"#utility.yul\":6913:7295   */\n      swap2\n      swap1\n      pop\n      jump\t// out\n        /* \"#utility.yul\":7301:7842   */\n    tag_54:\n        /* \"#utility.yul\":7497:7501   */\n      0x00\n        /* \"#utility.yul\":7535:7537   */\n      0x40\n        /* \"#utility.yul\":7524:7533   */\n      dup3\n        /* \"#utility.yul\":7520:7538   */\n      add\n        /* \"#utility.yul\":7512:7538   */\n      swap1\n      pop\n        /* \"#utility.yul\":7548:7621   */\n      tag_262\n        /* \"#utility.yul\":7618:7619   */\n      0x00\n        /* \"#utility.yul\":7607:7616   */\n      dup4\n        /* \"#utility.yul\":7603:7620   */\n      add\n        /* \"#utility.yul\":7594:7600   */\n      dup5\n        /* \"#utility.yul\":7548:7621   */\n      tag_160\n      jump\t// in\n    tag_262:\n        /* \"#utility.yul\":7668:7677   */\n      dup2\n        /* \"#utility.yul\":7662:7666   */\n      dup2\n        /* \"#utility.yul\":7658:7678   */\n      sub\n        /* \"#utility.yul\":7653:7655   */\n      0x20\n        /* \"#utility.yul\":7642:7651   */\n      dup4\n        /* \"#utility.yul\":7638:7656   */\n      add\n        /* \"#utility.yul\":7631:7679   */\n      mstore\n        /* \"#utility.yul\":7696:7835   */\n      tag_263\n        /* \"#utility.yul\":7830:7834   */\n      dup2\n        /* \"#utility.yul\":7696:7835   */\n      tag_162\n      jump\t// in\n    tag_263:\n        /* \"#utility.yul\":7688:7835   */\n      swap1\n      pop\n        /* \"#utility.yul\":7301:7842   */\n      swap3\n      swap2\n      pop\n      pop\n      jump\t// out\n        /* \"#utility.yul\":7848:7974   */\n    tag_163:\n        /* \"#utility.yul\":7885:7892   */\n      0x00\n        /* \"#utility.yul\":7925:7967   */\n      0xffffffffffffffffffffffffffffffffffffffff\n        /* \"#utility.yul\":7918:7923   */\n      dup3\n        /* \"#utility.yul\":7914:7968   */\n      and\n        /* \"#utility.yul\":7903:7968   */\n      swap1\n      pop\n        /* \"#utility.yul\":7848:7974   */\n      swap2\n      swap1\n      pop\n      jump\t// out\n        /* \"#utility.yul\":7980:8076   */\n    tag_164:\n        /* \"#utility.yul\":8017:8024   */\n      0x00\n        /* \"#utility.yul\":8046:8070   */\n      tag_266\n        /* \"#utility.yul\":8064:8069   */\n      dup3\n        /* \"#utility.yul\":8046:8070   */\n      tag_163\n      jump\t// in\n    tag_266:\n        /* \"#utility.yul\":8035:8070   */\n      swap1\n      pop\n        /* \"#utility.yul\":7980:8076   */\n      swap2\n      swap1\n      pop\n      jump\t// out\n        /* \"#utility.yul\":8082:8204   */\n    tag_165:\n        /* \"#utility.yul\":8155:8179   */\n      tag_268\n        /* \"#utility.yul\":8173:8178   */\n      dup2\n        /* \"#utility.yul\":8155:8179   */\n      tag_164\n      jump\t// in\n    tag_268:\n        /* \"#utility.yul\":8148:8153   */\n      dup2\n        /* \"#utility.yul\":8145:8180   */\n      eq\n        /* \"#utility.yul\":8135:8198   */\n      tag_269\n      jumpi\n        /* \"#utility.yul\":8194:8195   */\n      0x00\n        /* \"#utility.yul\":8191:8192   */\n      0x00\n        /* \"#utility.yul\":8184:8196   */\n      revert\n        /* \"#utility.yul\":8135:8198   */\n    tag_269:\n        /* \"#utility.yul\":8082:8204   */\n      pop\n      jump\t// out\n        /* \"#utility.yul\":8210:8353   */\n    tag_166:\n        /* \"#utility.yul\":8267:8272   */\n      0x00\n        /* \"#utility.yul\":8298:8304   */\n      dup2\n        /* \"#utility.yul\":8292:8305   */\n      mload\n        /* \"#utility.yul\":8283:8305   */\n      swap1\n      pop\n        /* \"#utility.yul\":8314:8347   */\n      tag_271\n        /* \"#utility.yul\":8341:8346   */\n      dup2\n        /* \"#utility.yul\":8314:8347   */\n      tag_165\n      jump\t// in\n    tag_271:\n        /* \"#utility.yul\":8210:8353   */\n      swap3\n      swap2\n      pop\n      pop\n      jump\t// out\n        /* \"#utility.yul\":8359:8710   */\n    tag_62:\n        /* \"#utility.yul\":8429:8435   */\n      0x00\n        /* \"#utility.yul\":8478:8480   */\n      0x20\n        /* \"#utility.yul\":8466:8475   */\n      dup3\n        /* \"#utility.yul\":8457:8464   */\n      dup5\n        /* \"#utility.yul\":8453:8476   */\n      sub\n        /* \"#utility.yul\":8449:8481   */\n      slt\n        /* \"#utility.yul\":8446:8565   */\n      iszero\n      tag_273\n      jumpi\n        /* \"#utility.yul\":8484:8563   */\n      tag_274\n      tag_155\n      jump\t// in\n    tag_274:\n        /* \"#utility.yul\":8446:8565   */\n    tag_273:\n        /* \"#utility.yul\":8604:8605   */\n      0x00\n        /* \"#utility.yul\":8629:8693   */\n      tag_275\n        /* \"#utility.yul\":8685:8692   */\n      dup5\n        /* \"#utility.yul\":8676:8682   */\n      dup3\n        /* \"#utility.yul\":8665:8674   */\n      dup6\n        /* \"#utility.yul\":8661:8683   */\n      add\n        /* \"#utility.yul\":8629:8693   */\n      tag_166\n      jump\t// in\n    tag_275:\n        /* \"#utility.yul\":8619:8693   */\n      swap2\n      pop\n        /* \"#utility.yul\":8575:8703   */\n      pop\n        /* \"#utility.yul\":8359:8710   */\n      swap3\n      swap2\n      pop\n      pop\n      jump\t// out\n        /* \"#utility.yul\":8716:8842   */\n    tag_167:\n        /* \"#utility.yul\":8811:8835   */\n      tag_277\n        /* \"#utility.yul\":8829:8834   */\n      dup2\n        /* \"#utility.yul\":8811:8835   */\n      tag_164\n      jump\t// in\n    tag_277:\n        /* \"#utility.yul\":8806:8809   */\n      dup3\n        /* \"#utility.yul\":8799:8836   */\n      mstore\n        /* \"#utility.yul\":8716:8842   */\n      pop\n      pop\n      jump\t// out\n        /* \"#utility.yul\":8848:9069   */\n    tag_168:\n        /* \"#utility.yul\":8988:9022   */\n      0x4368616972706572736f6e2073686f756c6420626520746865206465706c6f79\n        /* \"#utility.yul\":8984:8985   */\n      0x00\n        /* \"#utility.yul\":8976:8982   */\n      dup3\n        /* \"#utility.yul\":8972:8986   */\n      add\n        /* \"#utility.yul\":8965:9023   */\n      mstore\n        /* \"#utility.yul\":9057:9061   */\n      0x6572000000000000000000000000000000000000000000000000000000000000\n        /* \"#utility.yul\":9052:9054   */\n      0x20\n        /* \"#utility.yul\":9044:9050   */\n      dup3\n        /* \"#utility.yul\":9040:9055   */\n      add\n        /* \"#utility.yul\":9033:9062   */\n      mstore\n        /* \"#utility.yul\":8848:9069   */\n      pop\n      jump\t// out\n        /* \"#utility.yul\":9075:9457   */\n    tag_169:\n        /* \"#utility.yul\":9225:9228   */\n      0x00\n        /* \"#utility.yul\":9246:9321   */\n      tag_280\n        /* \"#utility.yul\":9318:9320   */\n      0x22\n        /* \"#utility.yul\":9313:9316   */\n      dup4\n        /* \"#utility.yul\":9246:9321   */\n      tag_148\n      jump\t// in\n    tag_280:\n        /* \"#utility.yul\":9239:9321   */\n      swap2\n      pop\n        /* \"#utility.yul\":9330:9423   */\n      tag_281\n        /* \"#utility.yul\":9419:9422   */\n      dup3\n        /* \"#utility.yul\":9330:9423   */\n      tag_168\n      jump\t// in\n    tag_281:\n        /* \"#utility.yul\":9448:9450   */\n      0x40\n        /* \"#utility.yul\":9443:9446   */\n      dup3\n        /* \"#utility.yul\":9439:9451   */\n      add\n        /* \"#utility.yul\":9432:9451   */\n      swap1\n      pop\n        /* \"#utility.yul\":9075:9457   */\n      swap2\n      swap1\n      pop\n      jump\t// out\n        /* \"#utility.yul\":9463:10134   */\n    tag_64:\n        /* \"#utility.yul\":9693:9697   */\n      0x00\n        /* \"#utility.yul\":9731:9733   */\n      0x60\n        /* \"#utility.yul\":9720:9729   */\n      dup3\n        /* \"#utility.yul\":9716:9734   */\n      add\n        /* \"#utility.yul\":9708:9734   */\n      swap1\n      pop\n        /* \"#utility.yul\":9744:9823   */\n      tag_283\n        /* \"#utility.yul\":9820:9821   */\n      0x00\n        /* \"#utility.yul\":9809:9818   */\n      dup4\n        /* \"#utility.yul\":9805:9822   */\n      add\n        /* \"#utility.yul\":9796:9802   */\n      dup6\n        /* \"#utility.yul\":9744:9823   */\n      tag_167\n      jump\t// in\n    tag_283:\n        /* \"#utility.yul\":9833:9913   */\n      tag_284\n        /* \"#utility.yul\":9909:9911   */\n      0x20\n        /* \"#utility.yul\":9898:9907   */\n      dup4\n        /* \"#utility.yul\":9894:9912   */\n      add\n        /* \"#utility.yul\":9885:9891   */\n      dup5\n        /* \"#utility.yul\":9833:9913   */\n      tag_167\n      jump\t// in\n    tag_284:\n        /* \"#utility.yul\":9960:9969   */\n      dup2\n        /* \"#utility.yul\":9954:9958   */\n      dup2\n        /* \"#utility.yul\":9950:9970   */\n      sub\n        /* \"#utility.yul\":9945:9947   */\n      0x40\n        /* \"#utility.yul\":9934:9943   */\n      dup4\n        /* \"#utility.yul\":9930:9948   */\n      add\n        /* \"#utility.yul\":9923:9971   */\n      mstore\n        /* \"#utility.yul\":9988:10127   */\n      tag_285\n        /* \"#utility.yul\":10122:10126   */\n      dup2\n        /* \"#utility.yul\":9988:10127   */\n      tag_169\n      jump\t// in\n    tag_285:\n        /* \"#utility.yul\":9980:10127   */\n      swap1\n      pop\n        /* \"#utility.yul\":9463:10134   */\n      swap4\n      swap3\n      pop\n      pop\n      pop\n      jump\t// out\n        /* \"#utility.yul\":10140:10258   */\n    tag_170:\n        /* \"#utility.yul\":10227:10251   */\n      tag_287\n        /* \"#utility.yul\":10245:10250   */\n      dup2\n        /* \"#utility.yul\":10227:10251   */\n      tag_164\n      jump\t// in\n    tag_287:\n        /* \"#utility.yul\":10222:10225   */\n      dup3\n        /* \"#utility.yul\":10215:10252   */\n      mstore\n        /* \"#utility.yul\":10140:10258   */\n      pop\n      pop\n      jump\t// out\n        /* \"#utility.yul\":10264:10486   */\n    tag_73:\n        /* \"#utility.yul\":10357:10361   */\n      0x00\n        /* \"#utility.yul\":10395:10397   */\n      0x20\n        /* \"#utility.yul\":10384:10393   */\n      dup3\n        /* \"#utility.yul\":10380:10398   */\n      add\n        /* \"#utility.yul\":10372:10398   */\n      swap1\n      pop\n        /* \"#utility.yul\":10408:10479   */\n      tag_289\n        /* \"#utility.yul\":10476:10477   */\n      0x00\n        /* \"#utility.yul\":10465:10474   */\n      dup4\n        /* \"#utility.yul\":10461:10478   */\n      add\n        /* \"#utility.yul\":10452:10458   */\n      dup5\n        /* \"#utility.yul\":10408:10479   */\n      tag_170\n      jump\t// in\n    tag_289:\n        /* \"#utility.yul\":10264:10486   */\n      swap3\n      swap2\n      pop\n      pop\n      jump\t// out\n        /* \"#utility.yul\":10492:10614   */\n    tag_171:\n        /* \"#utility.yul\":10565:10589   */\n      tag_291\n        /* \"#utility.yul\":10583:10588   */\n      dup2\n        /* \"#utility.yul\":10565:10589   */\n      tag_138\n      jump\t// in\n    tag_291:\n        /* \"#utility.yul\":10558:10563   */\n      dup2\n        /* \"#utility.yul\":10555:10590   */\n      eq\n        /* \"#utility.yul\":10545:10608   */\n      tag_292\n      jumpi\n        /* \"#utility.yul\":10604:10605   */\n      0x00\n        /* \"#utility.yul\":10601:10602   */\n      0x00\n        /* \"#utility.yul\":10594:10606   */\n      revert\n        /* \"#utility.yul\":10545:10608   */\n    tag_292:\n        /* \"#utility.yul\":10492:10614   */\n      pop\n      jump\t// out\n        /* \"#utility.yul\":10620:10763   */\n    tag_172:\n        /* \"#utility.yul\":10677:10682   */\n      0x00\n        /* \"#utility.yul\":10708:10714   */\n      dup2\n        /* \"#utility.yul\":10702:10715   */\n      mload\n        /* \"#utility.yul\":10693:10715   */\n      swap1\n      pop\n        /* \"#utility.yul\":10724:10757   */\n      tag_294\n        /* \"#utility.yul\":10751:10756   */\n      dup2\n        /* \"#utility.yul\":10724:10757   */\n      tag_171\n      jump\t// in\n    tag_294:\n        /* \"#utility.yul\":10620:10763   */\n      swap3\n      swap2\n      pop\n      pop\n      jump\t// out\n        /* \"#utility.yul\":10769:11120   */\n    tag_77:\n        /* \"#utility.yul\":10839:10845   */\n      0x00\n        /* \"#utility.yul\":10888:10890   */\n      0x20\n        /* \"#utility.yul\":10876:10885   */\n      dup3\n        /* \"#utility.yul\":10867:10874   */\n      dup5\n        /* \"#utility.yul\":10863:10886   */\n      sub\n        /* \"#utility.yul\":10859:10891   */\n      slt\n        /* \"#utility.yul\":10856:10975   */\n      iszero\n      tag_296\n      jumpi\n        /* \"#utility.yul\":10894:10973   */\n      tag_297\n      tag_155\n      jump\t// in\n    tag_297:\n        /* \"#utility.yul\":10856:10975   */\n    tag_296:\n        /* \"#utility.yul\":11014:11015   */\n      0x00\n        /* \"#utility.yul\":11039:11103   */\n      tag_298\n        /* \"#utility.yul\":11095:11102   */\n      dup5\n        /* \"#utility.yul\":11086:11092   */\n      dup3\n        /* \"#utility.yul\":11075:11084   */\n      dup6\n        /* \"#utility.yul\":11071:11093   */\n      add\n        /* \"#utility.yul\":11039:11103   */\n      tag_172\n      jump\t// in\n    tag_298:\n        /* \"#utility.yul\":11029:11103   */\n      swap2\n      pop\n        /* \"#utility.yul\":10985:11113   */\n      pop\n        /* \"#utility.yul\":10769:11120   */\n      swap3\n      swap2\n      pop\n      pop\n      jump\t// out\n        /* \"#utility.yul\":11126:11252   */\n    tag_173:\n        /* \"#utility.yul\":11221:11245   */\n      tag_300\n        /* \"#utility.yul\":11239:11244   */\n      dup2\n        /* \"#utility.yul\":11221:11245   */\n      tag_138\n      jump\t// in\n    tag_300:\n        /* \"#utility.yul\":11216:11219   */\n      dup3\n        /* \"#utility.yul\":11209:11246   */\n      mstore\n        /* \"#utility.yul\":11126:11252   */\n      pop\n      pop\n      jump\t// out\n        /* \"#utility.yul\":11258:11361   */\n    tag_174:\n        /* \"#utility.yul\":11321:11328   */\n      0x00\n        /* \"#utility.yul\":11350:11355   */\n      dup2\n        /* \"#utility.yul\":11339:11355   */\n      swap1\n      pop\n        /* \"#utility.yul\":11258:11361   */\n      swap2\n      swap1\n      pop\n      jump\t// out\n        /* \"#utility.yul\":11367:11561   */\n    tag_175:\n        /* \"#utility.yul\":11443:11452   */\n      0x00\n        /* \"#utility.yul\":11476:11555   */\n      tag_303\n        /* \"#utility.yul\":11494:11554   */\n      tag_304\n        /* \"#utility.yul\":11503:11553   */\n      tag_305\n        /* \"#utility.yul\":11547:11552   */\n      dup5\n        /* \"#utility.yul\":11503:11553   */\n      tag_174\n      jump\t// in\n    tag_305:\n        /* \"#utility.yul\":11494:11554   */\n      tag_139\n      jump\t// in\n    tag_304:\n        /* \"#utility.yul\":11476:11555   */\n      tag_138\n      jump\t// in\n    tag_303:\n        /* \"#utility.yul\":11463:11555   */\n      swap1\n      pop\n        /* \"#utility.yul\":11367:11561   */\n      swap2\n      swap1\n      pop\n      jump\t// out\n        /* \"#utility.yul\":11567:11758   */\n    tag_176:\n        /* \"#utility.yul\":11688:11751   */\n      tag_307\n        /* \"#utility.yul\":11745:11750   */\n      dup2\n        /* \"#utility.yul\":11688:11751   */\n      tag_175\n      jump\t// in\n    tag_307:\n        /* \"#utility.yul\":11683:11686   */\n      dup3\n        /* \"#utility.yul\":11676:11752   */\n      mstore\n        /* \"#utility.yul\":11567:11758   */\n      pop\n      pop\n      jump\t// out\n        /* \"#utility.yul\":11764:11937   */\n    tag_177:\n        /* \"#utility.yul\":11904:11929   */\n      0x42616c616e63652073686f756c64206265203120455448000000000000000000\n        /* \"#utility.yul\":11900:11901   */\n      0x00\n        /* \"#utility.yul\":11892:11898   */\n      dup3\n        /* \"#utility.yul\":11888:11902   */\n      add\n        /* \"#utility.yul\":11881:11930   */\n      mstore\n        /* \"#utility.yul\":11764:11937   */\n      pop\n      jump\t// out\n        /* \"#utility.yul\":11943:12325   */\n    tag_178:\n        /* \"#utility.yul\":12093:12096   */\n      0x00\n        /* \"#utility.yul\":12114:12189   */\n      tag_310\n        /* \"#utility.yul\":12186:12188   */\n      0x17\n        /* \"#utility.yul\":12181:12184   */\n      dup4\n        /* \"#utility.yul\":12114:12189   */\n      tag_148\n      jump\t// in\n    tag_310:\n        /* \"#utility.yul\":12107:12189   */\n      swap2\n      pop\n        /* \"#utility.yul\":12198:12291   */\n      tag_311\n        /* \"#utility.yul\":12287:12290   */\n      dup3\n        /* \"#utility.yul\":12198:12291   */\n      tag_177\n      jump\t// in\n    tag_311:\n        /* \"#utility.yul\":12316:12318   */\n      0x20\n        /* \"#utility.yul\":12311:12314   */\n      dup3\n        /* \"#utility.yul\":12307:12319   */\n      add\n        /* \"#utility.yul\":12300:12319   */\n      swap1\n      pop\n        /* \"#utility.yul\":11943:12325   */\n      swap2\n      swap1\n      pop\n      jump\t// out\n        /* \"#utility.yul\":12331:13054   */\n    tag_79:\n        /* \"#utility.yul\":12587:12591   */\n      0x00\n        /* \"#utility.yul\":12625:12627   */\n      0x60\n        /* \"#utility.yul\":12614:12623   */\n      dup3\n        /* \"#utility.yul\":12610:12628   */\n      add\n        /* \"#utility.yul\":12602:12628   */\n      swap1\n      pop\n        /* \"#utility.yul\":12638:12717   */\n      tag_313\n        /* \"#utility.yul\":12714:12715   */\n      0x00\n        /* \"#utility.yul\":12703:12712   */\n      dup4\n        /* \"#utility.yul\":12699:12716   */\n      add\n        /* \"#utility.yul\":12690:12696   */\n      dup6\n        /* \"#utility.yul\":12638:12717   */\n      tag_173\n      jump\t// in\n    tag_313:\n        /* \"#utility.yul\":12727:12833   */\n      tag_314\n        /* \"#utility.yul\":12829:12831   */\n      0x20\n        /* \"#utility.yul\":12818:12827   */\n      dup4\n        /* \"#utility.yul\":12814:12832   */\n      add\n        /* \"#utility.yul\":12805:12811   */\n      dup5\n        /* \"#utility.yul\":12727:12833   */\n      tag_176\n      jump\t// in\n    tag_314:\n        /* \"#utility.yul\":12880:12889   */\n      dup2\n        /* \"#utility.yul\":12874:12878   */\n      dup2\n        /* \"#utility.yul\":12870:12890   */\n      sub\n        /* \"#utility.yul\":12865:12867   */\n      0x40\n        /* \"#utility.yul\":12854:12863   */\n      dup4\n        /* \"#utility.yul\":12850:12868   */\n      add\n        /* \"#utility.yul\":12843:12891   */\n      mstore\n        /* \"#utility.yul\":12908:13047   */\n      tag_315\n        /* \"#utility.yul\":13042:13046   */\n      dup2\n        /* \"#utility.yul\":12908:13047   */\n      tag_178\n      jump\t// in\n    tag_315:\n        /* \"#utility.yul\":12900:13047   */\n      swap1\n      pop\n        /* \"#utility.yul\":12331:13054   */\n      swap4\n      swap3\n      pop\n      pop\n      pop\n      jump\t// out\n        /* \"#utility.yul\":13060:13235   */\n    tag_179:\n        /* \"#utility.yul\":13200:13227   */\n      0x596f75206d757374206465706f73697420736f6d652045544800000000000000\n        /* \"#utility.yul\":13196:13197   */\n      0x00\n        /* \"#utility.yul\":13188:13194   */\n      dup3\n        /* \"#utility.yul\":13184:13198   */\n      add\n        /* \"#utility.yul\":13177:13228   */\n      mstore\n        /* \"#utility.yul\":13060:13235   */\n      pop\n      jump\t// out\n        /* \"#utility.yul\":13241:13623   */\n    tag_180:\n        /* \"#utility.yul\":13391:13394   */\n      0x00\n        /* \"#utility.yul\":13412:13487   */\n      tag_318\n        /* \"#utility.yul\":13484:13486   */\n      0x19\n        /* \"#utility.yul\":13479:13482   */\n      dup4\n        /* \"#utility.yul\":13412:13487   */\n      tag_148\n      jump\t// in\n    tag_318:\n        /* \"#utility.yul\":13405:13487   */\n      swap2\n      pop\n        /* \"#utility.yul\":13496:13589   */\n      tag_319\n        /* \"#utility.yul\":13585:13588   */\n      dup3\n        /* \"#utility.yul\":13496:13589   */\n      tag_179\n      jump\t// in\n    tag_319:\n        /* \"#utility.yul\":13614:13616   */\n      0x20\n        /* \"#utility.yul\":13609:13612   */\n      dup3\n        /* \"#utility.yul\":13605:13617   */\n      add\n        /* \"#utility.yul\":13598:13617   */\n      swap1\n      pop\n        /* \"#utility.yul\":13241:13623   */\n      swap2\n      swap1\n      pop\n      jump\t// out\n        /* \"#utility.yul\":13629:14588   */\n    tag_98:\n        /* \"#utility.yul\":13952:13956   */\n      0x00\n        /* \"#utility.yul\":13990:13992   */\n      0x60\n        /* \"#utility.yul\":13979:13988   */\n      dup3\n        /* \"#utility.yul\":13975:13993   */\n      add\n        /* \"#utility.yul\":13967:13993   */\n      swap1\n      pop\n        /* \"#utility.yul\":14039:14048   */\n      dup2\n        /* \"#utility.yul\":14033:14037   */\n      dup2\n        /* \"#utility.yul\":14029:14049   */\n      sub\n        /* \"#utility.yul\":14025:14026   */\n      0x00\n        /* \"#utility.yul\":14014:14023   */\n      dup4\n        /* \"#utility.yul\":14010:14027   */\n      add\n        /* \"#utility.yul\":14003:14050   */\n      mstore\n        /* \"#utility.yul\":14067:14153   */\n      tag_321\n        /* \"#utility.yul\":14148:14152   */\n      dup2\n        /* \"#utility.yul\":14139:14145   */\n      dup5\n        /* \"#utility.yul\":14067:14153   */\n      tag_150\n      jump\t// in\n    tag_321:\n        /* \"#utility.yul\":14059:14153   */\n      swap1\n      pop\n        /* \"#utility.yul\":14200:14209   */\n      dup2\n        /* \"#utility.yul\":14194:14198   */\n      dup2\n        /* \"#utility.yul\":14190:14210   */\n      sub\n        /* \"#utility.yul\":14185:14187   */\n      0x20\n        /* \"#utility.yul\":14174:14183   */\n      dup4\n        /* \"#utility.yul\":14170:14188   */\n      add\n        /* \"#utility.yul\":14163:14211   */\n      mstore\n        /* \"#utility.yul\":14228:14367   */\n      tag_322\n        /* \"#utility.yul\":14362:14366   */\n      dup2\n        /* \"#utility.yul\":14228:14367   */\n      tag_180\n      jump\t// in\n    tag_322:\n        /* \"#utility.yul\":14220:14367   */\n      swap1\n      pop\n        /* \"#utility.yul\":14414:14423   */\n      dup2\n        /* \"#utility.yul\":14408:14412   */\n      dup2\n        /* \"#utility.yul\":14404:14424   */\n      sub\n        /* \"#utility.yul\":14399:14401   */\n      0x40\n        /* \"#utility.yul\":14388:14397   */\n      dup4\n        /* \"#utility.yul\":14384:14402   */\n      add\n        /* \"#utility.yul\":14377:14425   */\n      mstore\n        /* \"#utility.yul\":14442:14581   */\n      tag_323\n        /* \"#utility.yul\":14576:14580   */\n      dup2\n        /* \"#utility.yul\":14442:14581   */\n      tag_154\n      jump\t// in\n    tag_323:\n        /* \"#utility.yul\":14434:14581   */\n      swap1\n      pop\n        /* \"#utility.yul\":13629:14588   */\n      swap3\n      swap2\n      pop\n      pop\n      jump\t// out\n        /* \"#utility.yul\":14594:14814   */\n    tag_181:\n        /* \"#utility.yul\":14734:14768   */\n      0x53686f756c642068617665207265766572746564206f6e2030206465706f7369\n        /* \"#utility.yul\":14730:14731   */\n      0x00\n        /* \"#utility.yul\":14722:14728   */\n      dup3\n        /* \"#utility.yul\":14718:14732   */\n      add\n        /* \"#utility.yul\":14711:14769   */\n      mstore\n        /* \"#utility.yul\":14803:14806   */\n      0x7400000000000000000000000000000000000000000000000000000000000000\n        /* \"#utility.yul\":14798:14800   */\n      0x20\n        /* \"#utility.yul\":14790:14796   */\n      dup3\n        /* \"#utility.yul\":14786:14801   */\n      add\n        /* \"#utility.yul\":14779:14807   */\n      mstore\n        /* \"#utility.yul\":14594:14814   */\n      pop\n      jump\t// out\n        /* \"#utility.yul\":14820:15202   */\n    tag_182:\n        /* \"#utility.yul\":14970:14973   */\n      0x00\n        /* \"#utility.yul\":14991:15066   */\n      tag_326\n        /* \"#utility.yul\":15063:15065   */\n      0x21\n        /* \"#utility.yul\":15058:15061   */\n      dup4\n        /* \"#utility.yul\":14991:15066   */\n      tag_148\n      jump\t// in\n    tag_326:\n        /* \"#utility.yul\":14984:15066   */\n      swap2\n      pop\n        /* \"#utility.yul\":15075:15168   */\n      tag_327\n        /* \"#utility.yul\":15164:15167   */\n      dup3\n        /* \"#utility.yul\":15075:15168   */\n      tag_181\n      jump\t// in\n    tag_327:\n        /* \"#utility.yul\":15193:15195   */\n      0x40\n        /* \"#utility.yul\":15188:15191   */\n      dup3\n        /* \"#utility.yul\":15184:15196   */\n      add\n        /* \"#utility.yul\":15177:15196   */\n      swap1\n      pop\n        /* \"#utility.yul\":14820:15202   */\n      swap2\n      swap1\n      pop\n      jump\t// out\n        /* \"#utility.yul\":15208:15749   */\n    tag_104:\n        /* \"#utility.yul\":15404:15408   */\n      0x00\n        /* \"#utility.yul\":15442:15444   */\n      0x40\n        /* \"#utility.yul\":15431:15440   */\n      dup3\n        /* \"#utility.yul\":15427:15445   */\n      add\n        /* \"#utility.yul\":15419:15445   */\n      swap1\n      pop\n        /* \"#utility.yul\":15455:15528   */\n      tag_329\n        /* \"#utility.yul\":15525:15526   */\n      0x00\n        /* \"#utility.yul\":15514:15523   */\n      dup4\n        /* \"#utility.yul\":15510:15527   */\n      add\n        /* \"#utility.yul\":15501:15507   */\n      dup5\n        /* \"#utility.yul\":15455:15528   */\n      tag_160\n      jump\t// in\n    tag_329:\n        /* \"#utility.yul\":15575:15584   */\n      dup2\n        /* \"#utility.yul\":15569:15573   */\n      dup2\n        /* \"#utility.yul\":15565:15585   */\n      sub\n        /* \"#utility.yul\":15560:15562   */\n      0x20\n        /* \"#utility.yul\":15549:15558   */\n      dup4\n        /* \"#utility.yul\":15545:15563   */\n      add\n        /* \"#utility.yul\":15538:15586   */\n      mstore\n        /* \"#utility.yul\":15603:15742   */\n      tag_330\n        /* \"#utility.yul\":15737:15741   */\n      dup2\n        /* \"#utility.yul\":15603:15742   */\n      tag_182\n      jump\t// in\n    tag_330:\n        /* \"#utility.yul\":15595:15742   */\n      swap1\n      pop\n        /* \"#utility.yul\":15208:15749   */\n      swap3\n      swap2\n      pop\n      pop\n      jump\t// out\n        /* \"#utility.yul\":15755:15932   */\n    tag_183:\n        /* \"#utility.yul\":15895:15924   */\n      0x546f74616c2066756e64732073686f756c642062652031204554480000000000\n        /* \"#utility.yul\":15891:15892   */\n      0x00\n        /* \"#utility.yul\":15883:15889   */\n      dup3\n        /* \"#utility.yul\":15879:15893   */\n      add\n        /* \"#utility.yul\":15872:15925   */\n      mstore\n        /* \"#utility.yul\":15755:15932   */\n      pop\n      jump\t// out\n        /* \"#utility.yul\":15938:16320   */\n    tag_184:\n        /* \"#utility.yul\":16088:16091   */\n      0x00\n        /* \"#utility.yul\":16109:16184   */\n      tag_333\n        /* \"#utility.yul\":16181:16183   */\n      0x1b\n        /* \"#utility.yul\":16176:16179   */\n      dup4\n        /* \"#utility.yul\":16109:16184   */\n      tag_148\n      jump\t// in\n    tag_333:\n        /* \"#utility.yul\":16102:16184   */\n      swap2\n      pop\n        /* \"#utility.yul\":16193:16286   */\n      tag_334\n        /* \"#utility.yul\":16282:16285   */\n      dup3\n        /* \"#utility.yul\":16193:16286   */\n      tag_183\n      jump\t// in\n    tag_334:\n        /* \"#utility.yul\":16311:16313   */\n      0x20\n        /* \"#utility.yul\":16306:16309   */\n      dup3\n        /* \"#utility.yul\":16302:16314   */\n      add\n        /* \"#utility.yul\":16295:16314   */\n      swap1\n      pop\n        /* \"#utility.yul\":15938:16320   */\n      swap2\n      swap1\n      pop\n      jump\t// out\n        /* \"#utility.yul\":16326:17049   */\n    tag_113:\n        /* \"#utility.yul\":16582:16586   */\n      0x00\n        /* \"#utility.yul\":16620:16622   */\n      0x60\n        /* \"#utility.yul\":16609:16618   */\n      dup3\n        /* \"#utility.yul\":16605:16623   */\n      add\n        /* \"#utility.yul\":16597:16623   */\n      swap1\n      pop\n        /* \"#utility.yul\":16633:16712   */\n      tag_336\n        /* \"#utility.yul\":16709:16710   */\n      0x00\n        /* \"#utility.yul\":16698:16707   */\n      dup4\n        /* \"#utility.yul\":16694:16711   */\n      add\n        /* \"#utility.yul\":16685:16691   */\n      dup6\n        /* \"#utility.yul\":16633:16712   */\n      tag_173\n      jump\t// in\n    tag_336:\n        /* \"#utility.yul\":16722:16828   */\n      tag_337\n        /* \"#utility.yul\":16824:16826   */\n      0x20\n        /* \"#utility.yul\":16813:16822   */\n      dup4\n        /* \"#utility.yul\":16809:16827   */\n      add\n        /* \"#utility.yul\":16800:16806   */\n      dup5\n        /* \"#utility.yul\":16722:16828   */\n      tag_176\n      jump\t// in\n    tag_337:\n        /* \"#utility.yul\":16875:16884   */\n      dup2\n        /* \"#utility.yul\":16869:16873   */\n      dup2\n        /* \"#utility.yul\":16865:16885   */\n      sub\n        /* \"#utility.yul\":16860:16862   */\n      0x40\n        /* \"#utility.yul\":16849:16858   */\n      dup4\n        /* \"#utility.yul\":16845:16863   */\n      add\n        /* \"#utility.yul\":16838:16886   */\n      mstore\n        /* \"#utility.yul\":16903:17042   */\n      tag_338\n        /* \"#utility.yul\":17037:17041   */\n      dup2\n        /* \"#utility.yul\":16903:17042   */\n      tag_184\n      jump\t// in\n    tag_338:\n        /* \"#utility.yul\":16895:17042   */\n      swap1\n      pop\n        /* \"#utility.yul\":16326:17049   */\n      swap4\n      swap3\n      pop\n      pop\n      pop\n      jump\t// out\n        /* \"#utility.yul\":17055:17157   */\n    tag_185:\n        /* \"#utility.yul\":17117:17124   */\n      0x00\n        /* \"#utility.yul\":17146:17151   */\n      dup2\n        /* \"#utility.yul\":17135:17151   */\n      swap1\n      pop\n        /* \"#utility.yul\":17055:17157   */\n      swap2\n      swap1\n      pop\n      jump\t// out\n        /* \"#utility.yul\":17163:17355   */\n    tag_186:\n        /* \"#utility.yul\":17238:17247   */\n      0x00\n        /* \"#utility.yul\":17271:17349   */\n      tag_341\n        /* \"#utility.yul\":17289:17348   */\n      tag_342\n        /* \"#utility.yul\":17298:17347   */\n      tag_343\n        /* \"#utility.yul\":17341:17346   */\n      dup5\n        /* \"#utility.yul\":17298:17347   */\n      tag_185\n      jump\t// in\n    tag_343:\n        /* \"#utility.yul\":17289:17348   */\n      tag_139\n      jump\t// in\n    tag_342:\n        /* \"#utility.yul\":17271:17349   */\n      tag_138\n      jump\t// in\n    tag_341:\n        /* \"#utility.yul\":17258:17349   */\n      swap1\n      pop\n        /* \"#utility.yul\":17163:17355   */\n      swap2\n      swap1\n      pop\n      jump\t// out\n        /* \"#utility.yul\":17361:17542   */\n    tag_187:\n        /* \"#utility.yul\":17473:17535   */\n      tag_345\n        /* \"#utility.yul\":17529:17534   */\n      dup2\n        /* \"#utility.yul\":17473:17535   */\n      tag_186\n      jump\t// in\n    tag_345:\n        /* \"#utility.yul\":17468:17471   */\n      dup3\n        /* \"#utility.yul\":17461:17536   */\n      mstore\n        /* \"#utility.yul\":17361:17542   */\n      pop\n      pop\n      jump\t// out\n        /* \"#utility.yul\":17548:17820   */\n    tag_119:\n        /* \"#utility.yul\":17666:17670   */\n      0x00\n        /* \"#utility.yul\":17704:17706   */\n      0x20\n        /* \"#utility.yul\":17693:17702   */\n      dup3\n        /* \"#utility.yul\":17689:17707   */\n      add\n        /* \"#utility.yul\":17681:17707   */\n      swap1\n      pop\n        /* \"#utility.yul\":17717:17813   */\n      tag_347\n        /* \"#utility.yul\":17810:17811   */\n      0x00\n        /* \"#utility.yul\":17799:17808   */\n      dup4\n        /* \"#utility.yul\":17795:17812   */\n      add\n        /* \"#utility.yul\":17786:17792   */\n      dup5\n        /* \"#utility.yul\":17717:17813   */\n      tag_187\n      jump\t// in\n    tag_347:\n        /* \"#utility.yul\":17548:17820   */\n      swap3\n      swap2\n      pop\n      pop\n      jump\t// out\n        /* \"#utility.yul\":17826:18015   */\n    tag_188:\n        /* \"#utility.yul\":17946:18008   */\n      tag_349\n        /* \"#utility.yul\":18002:18007   */\n      dup2\n        /* \"#utility.yul\":17946:18008   */\n      tag_186\n      jump\t// in\n    tag_349:\n        /* \"#utility.yul\":17941:17944   */\n      dup3\n        /* \"#utility.yul\":17934:18009   */\n      mstore\n        /* \"#utility.yul\":17826:18015   */\n      pop\n      pop\n      jump\t// out\n        /* \"#utility.yul\":18021:18250   */\n    tag_189:\n        /* \"#utility.yul\":18161:18195   */\n      0x42616c616e63652073686f756c6420626520302e352045544820616674657220\n        /* \"#utility.yul\":18157:18158   */\n      0x00\n        /* \"#utility.yul\":18149:18155   */\n      dup3\n        /* \"#utility.yul\":18145:18159   */\n      add\n        /* \"#utility.yul\":18138:18196   */\n      mstore\n        /* \"#utility.yul\":18230:18242   */\n      0x7769746864726177616c00000000000000000000000000000000000000000000\n        /* \"#utility.yul\":18225:18227   */\n      0x20\n        /* \"#utility.yul\":18217:18223   */\n      dup3\n        /* \"#utility.yul\":18213:18228   */\n      add\n        /* \"#utility.yul\":18206:18243   */\n      mstore\n        /* \"#utility.yul\":18021:18250   */\n      pop\n      jump\t// out\n        /* \"#utility.yul\":18256:18638   */\n    tag_190:\n        /* \"#utility.yul\":18406:18409   */\n      0x00\n        /* \"#utility.yul\":18427:18502   */\n      tag_352\n        /* \"#utility.yul\":18499:18501   */\n      0x2a\n        /* \"#utility.yul\":18494:18497   */\n      dup4\n        /* \"#utility.yul\":18427:18502   */\n      tag_148\n      jump\t// in\n    tag_352:\n        /* \"#utility.yul\":18420:18502   */\n      swap2\n      pop\n        /* \"#utility.yul\":18511:18604   */\n      tag_353\n        /* \"#utility.yul\":18600:18603   */\n      dup3\n        /* \"#utility.yul\":18511:18604   */\n      tag_189\n      jump\t// in\n    tag_353:\n        /* \"#utility.yul\":18629:18631   */\n      0x40\n        /* \"#utility.yul\":18624:18627   */\n      dup3\n        /* \"#utility.yul\":18620:18632   */\n      add\n        /* \"#utility.yul\":18613:18632   */\n      swap1\n      pop\n        /* \"#utility.yul\":18256:18638   */\n      swap2\n      swap1\n      pop\n      jump\t// out\n        /* \"#utility.yul\":18644:19365   */\n    tag_128:\n        /* \"#utility.yul\":18899:18903   */\n      0x00\n        /* \"#utility.yul\":18937:18939   */\n      0x60\n        /* \"#utility.yul\":18926:18935   */\n      dup3\n        /* \"#utility.yul\":18922:18940   */\n      add\n        /* \"#utility.yul\":18914:18940   */\n      swap1\n      pop\n        /* \"#utility.yul\":18950:19029   */\n      tag_355\n        /* \"#utility.yul\":19026:19027   */\n      0x00\n        /* \"#utility.yul\":19015:19024   */\n      dup4\n        /* \"#utility.yul\":19011:19028   */\n      add\n        /* \"#utility.yul\":19002:19008   */\n      dup6\n        /* \"#utility.yul\":18950:19029   */\n      tag_173\n      jump\t// in\n    tag_355:\n        /* \"#utility.yul\":19039:19144   */\n      tag_356\n        /* \"#utility.yul\":19140:19142   */\n      0x20\n        /* \"#utility.yul\":19129:19138   */\n      dup4\n        /* \"#utility.yul\":19125:19143   */\n      add\n        /* \"#utility.yul\":19116:19122   */\n      dup5\n        /* \"#utility.yul\":19039:19144   */\n      tag_188\n      jump\t// in\n    tag_356:\n        /* \"#utility.yul\":19191:19200   */\n      dup2\n        /* \"#utility.yul\":19185:19189   */\n      dup2\n        /* \"#utility.yul\":19181:19201   */\n      sub\n        /* \"#utility.yul\":19176:19178   */\n      0x40\n        /* \"#utility.yul\":19165:19174   */\n      dup4\n        /* \"#utility.yul\":19161:19179   */\n      add\n        /* \"#utility.yul\":19154:19202   */\n      mstore\n        /* \"#utility.yul\":19219:19358   */\n      tag_357\n        /* \"#utility.yul\":19353:19357   */\n      dup2\n        /* \"#utility.yul\":19219:19358   */\n      tag_190\n      jump\t// in\n    tag_357:\n        /* \"#utility.yul\":19211:19358   */\n      swap1\n      pop\n        /* \"#utility.yul\":18644:19365   */\n      swap4\n      swap3\n      pop\n      pop\n      pop\n      jump\t// out\n        /* \"#utility.yul\":19371:19591   */\n    tag_191:\n        /* \"#utility.yul\":19511:19545   */\n      0x436f6e74726163742073686f756c642068617665207265636569766564204554\n        /* \"#utility.yul\":19507:19508   */\n      0x00\n        /* \"#utility.yul\":19499:19505   */\n      dup3\n        /* \"#utility.yul\":19495:19509   */\n      add\n        /* \"#utility.yul\":19488:19546   */\n      mstore\n        /* \"#utility.yul\":19580:19583   */\n      0x4800000000000000000000000000000000000000000000000000000000000000\n        /* \"#utility.yul\":19575:19577   */\n      0x20\n        /* \"#utility.yul\":19567:19573   */\n      dup3\n        /* \"#utility.yul\":19563:19578   */\n      add\n        /* \"#utility.yul\":19556:19584   */\n      mstore\n        /* \"#utility.yul\":19371:19591   */\n      pop\n      jump\t// out\n        /* \"#utility.yul\":19597:19979   */\n    tag_192:\n        /* \"#utility.yul\":19747:19750   */\n      0x00\n        /* \"#utility.yul\":19768:19843   */\n      tag_360\n        /* \"#utility.yul\":19840:19842   */\n      0x21\n        /* \"#utility.yul\":19835:19838   */\n      dup4\n        /* \"#utility.yul\":19768:19843   */\n      tag_148\n      jump\t// in\n    tag_360:\n        /* \"#utility.yul\":19761:19843   */\n      swap2\n      pop\n        /* \"#utility.yul\":19852:19945   */\n      tag_361\n        /* \"#utility.yul\":19941:19944   */\n      dup3\n        /* \"#utility.yul\":19852:19945   */\n      tag_191\n      jump\t// in\n    tag_361:\n        /* \"#utility.yul\":19970:19972   */\n      0x40\n        /* \"#utility.yul\":19965:19968   */\n      dup3\n        /* \"#utility.yul\":19961:19973   */\n      add\n        /* \"#utility.yul\":19954:19973   */\n      swap1\n      pop\n        /* \"#utility.yul\":19597:19979   */\n      swap2\n      swap1\n      pop\n      jump\t// out\n        /* \"#utility.yul\":19985:20526   */\n    tag_133:\n        /* \"#utility.yul\":20181:20185   */\n      0x00\n        /* \"#utility.yul\":20219:20221   */\n      0x40\n        /* \"#utility.yul\":20208:20217   */\n      dup3\n        /* \"#utility.yul\":20204:20222   */\n      add\n        /* \"#utility.yul\":20196:20222   */\n      swap1\n      pop\n        /* \"#utility.yul\":20232:20305   */\n      tag_363\n        /* \"#utility.yul\":20302:20303   */\n      0x00\n        /* \"#utility.yul\":20291:20300   */\n      dup4\n        /* \"#utility.yul\":20287:20304   */\n      add\n        /* \"#utility.yul\":20278:20284   */\n      dup5\n        /* \"#utility.yul\":20232:20305   */\n      tag_160\n      jump\t// in\n    tag_363:\n        /* \"#utility.yul\":20352:20361   */\n      dup2\n        /* \"#utility.yul\":20346:20350   */\n      dup2\n        /* \"#utility.yul\":20342:20362   */\n      sub\n        /* \"#utility.yul\":20337:20339   */\n      0x20\n        /* \"#utility.yul\":20326:20335   */\n      dup4\n        /* \"#utility.yul\":20322:20340   */\n      add\n        /* \"#utility.yul\":20315:20363   */\n      mstore\n        /* \"#utility.yul\":20380:20519   */\n      tag_364\n        /* \"#utility.yul\":20514:20518   */\n      dup2\n        /* \"#utility.yul\":20380:20519   */\n      tag_192\n      jump\t// in\n    tag_364:\n        /* \"#utility.yul\":20372:20519   */\n      swap1\n      pop\n        /* \"#utility.yul\":19985:20526   */\n      swap3\n      swap2\n      pop\n      pop\n      jump\t// out\n    stop\n\n    sub_0: assembly {\n            /* \"browse/contracts/Chama.sol\":60:1532  contract SimpleChama {... */\n          mstore(0x40, 0x80)\n            /* \"browse/contracts/Chama.sol\":413:542  constructor() {... */\n          callvalue\n          dup1\n          iszero\n          tag_1\n          jumpi\n          revert(0x00, 0x00)\n        tag_1:\n          pop\n            /* \"browse/contracts/Chama.sol\":524:534  msg.sender */\n          caller\n            /* \"browse/contracts/Chama.sol\":510:521  chairperson */\n          0x00\n          0x00\n            /* \"browse/contracts/Chama.sol\":510:534  chairperson = msg.sender */\n          0x0100\n          exp\n          dup2\n          sload\n          dup2\n          0xffffffffffffffffffffffffffffffffffffffff\n          mul\n          not\n          and\n          swap1\n          dup4\n          0xffffffffffffffffffffffffffffffffffffffff\n          and\n          mul\n          or\n          swap1\n          sstore\n          pop\n            /* \"browse/contracts/Chama.sol\":60:1532  contract SimpleChama {... */\n          dataSize(sub_0)\n          dup1\n          dataOffset(sub_0)\n          0x00\n          codecopy\n          0x00\n          return\n        stop\n\n        sub_0: assembly {\n                /* \"browse/contracts/Chama.sol\":60:1532  contract SimpleChama {... */\n              mstore(0x40, 0x80)\n              jumpi(tag_1, lt(calldatasize, 0x04))\n              shr(0xe0, calldataload(0x00))\n              dup1\n              0x27e235e3\n              eq\n              tag_2\n              jumpi\n              dup1\n              0x2e1a7d4d\n              eq\n              tag_3\n              jumpi\n              dup1\n              0x2e4176cf\n              eq\n              tag_4\n              jumpi\n              dup1\n              0x968ed600\n              eq\n              tag_5\n              jumpi\n              dup1\n              0xd0e30db0\n              eq\n              tag_6\n              jumpi\n              dup1\n              0xd624a4e0\n              eq\n              tag_7\n              jumpi\n            tag_1:\n              revert(0x00, 0x00)\n                /* \"browse/contracts/Chama.sol\":121:164  mapping(address => uint256) public balances */\n            tag_2:\n              callvalue\n              dup1\n              iszero\n              tag_8\n              jumpi\n              revert(0x00, 0x00)\n            tag_8:\n              pop\n              tag_9\n              0x04\n              dup1\n              calldatasize\n              sub\n              dup2\n              add\n              swap1\n              tag_10\n              swap2\n              swap1\n              tag_11\n              jump\t// in\n            tag_10:\n              tag_12\n              jump\t// in\n            tag_9:\n              mload(0x40)\n              tag_13\n              swap2\n              swap1\n              tag_14\n              jump\t// in\n            tag_13:\n              mload(0x40)\n              dup1\n              swap2\n              sub\n              swap1\n              return\n                /* \"browse/contracts/Chama.sol\":903:1364  function withdraw(uint256 _amount) public {... */\n            tag_3:\n              callvalue\n              dup1\n              iszero\n              tag_15\n              jumpi\n              revert(0x00, 0x00)\n            tag_15:\n              pop\n              tag_16\n              0x04\n              dup1\n              calldatasize\n              sub\n              dup2\n              add\n              swap1\n              tag_17\n              swap2\n              swap1\n              tag_18\n              jump\t// in\n            tag_17:\n              tag_19\n              jump\t// in\n            tag_16:\n              stop\n                /* \"browse/contracts/Chama.sol\":88:114  address public chairperson */\n            tag_4:\n              callvalue\n              dup1\n              iszero\n              tag_20\n              jumpi\n              revert(0x00, 0x00)\n            tag_20:\n              pop\n              tag_21\n              tag_22\n              jump\t// in\n            tag_21:\n              mload(0x40)\n              tag_23\n              swap2\n              swap1\n              tag_24\n              jump\t// in\n            tag_23:\n              mload(0x40)\n              dup1\n              swap2\n              sub\n              swap1\n              return\n                /* \"browse/contracts/Chama.sol\":171:196  uint256 public totalFunds */\n            tag_5:\n              callvalue\n              dup1\n              iszero\n              tag_25\n              jumpi\n              revert(0x00, 0x00)\n            tag_25:\n              pop\n              tag_26\n              tag_27\n              jump\t// in\n            tag_26:\n              mload(0x40)\n              tag_28\n              swap2\n              swap1\n              tag_14\n              jump\t// in\n            tag_28:\n              mload(0x40)\n              dup1\n              swap2\n              sub\n              swap1\n              return\n                /* \"browse/contracts/Chama.sol\":596:840  function deposit() public payable {... */\n            tag_6:\n              tag_29\n              tag_30\n              jump\t// in\n            tag_29:\n              stop\n                /* \"browse/contracts/Chama.sol\":1436:1529  function getChamaBalance() public view returns (uint256) {... */\n            tag_7:\n              callvalue\n              dup1\n              iszero\n              tag_31\n              jumpi\n              revert(0x00, 0x00)\n            tag_31:\n              pop\n              tag_32\n              tag_33\n              jump\t// in\n            tag_32:\n              mload(0x40)\n              tag_34\n              swap2\n              swap1\n              tag_14\n              jump\t// in\n            tag_34:\n              mload(0x40)\n              dup1\n              swap2\n              sub\n              swap1\n              return\n                /* \"browse/contracts/Chama.sol\":121:164  mapping(address => uint256) public balances */\n            tag_12:\n              mstore(0x20, 0x01)\n              dup1\n              0x00\n              mstore\n              keccak256(0x00, 0x40)\n              0x00\n              swap2\n              pop\n              swap1\n              pop\n              sload\n              dup2\n              jump\t// out\n                /* \"browse/contracts/Chama.sol\":903:1364  function withdraw(uint256 _amount) public {... */\n            tag_19:\n                /* \"browse/contracts/Chama.sol\":988:995  _amount */\n              dup1\n                /* \"browse/contracts/Chama.sol\":964:972  balances */\n              0x01\n                /* \"browse/contracts/Chama.sol\":964:984  balances[msg.sender] */\n              0x00\n                /* \"browse/contracts/Chama.sol\":973:983  msg.sender */\n              caller\n                /* \"browse/contracts/Chama.sol\":964:984  balances[msg.sender] */\n              0xffffffffffffffffffffffffffffffffffffffff\n              and\n              0xffffffffffffffffffffffffffffffffffffffff\n              and\n              dup2\n              mstore\n              0x20\n              add\n              swap1\n              dup2\n              mstore\n              0x20\n              add\n              0x00\n              keccak256\n              sload\n                /* \"browse/contracts/Chama.sol\":964:995  balances[msg.sender] >= _amount */\n              lt\n              iszero\n                /* \"browse/contracts/Chama.sol\":956:1036  require(balances[msg.sender] >= _amount, \"Insufficient balance in your account\") */\n              tag_36\n              jumpi\n              mload(0x40)\n              0x08c379a000000000000000000000000000000000000000000000000000000000\n              dup2\n              mstore\n              0x04\n              add\n              tag_37\n              swap1\n              tag_38\n              jump\t// in\n            tag_37:\n              mload(0x40)\n              dup1\n              swap2\n              sub\n              swap1\n              revert\n            tag_36:\n                /* \"browse/contracts/Chama.sol\":1081:1088  _amount */\n              dup1\n                /* \"browse/contracts/Chama.sol\":1057:1065  balances */\n              0x01\n                /* \"browse/contracts/Chama.sol\":1057:1077  balances[msg.sender] */\n              0x00\n                /* \"browse/contracts/Chama.sol\":1066:1076  msg.sender */\n              caller\n                /* \"browse/contracts/Chama.sol\":1057:1077  balances[msg.sender] */\n              0xffffffffffffffffffffffffffffffffffffffff\n              and\n              0xffffffffffffffffffffffffffffffffffffffff\n              and\n              dup2\n              mstore\n              0x20\n              add\n              swap1\n              dup2\n              mstore\n              0x20\n              add\n              0x00\n              keccak256\n              0x00\n                /* \"browse/contracts/Chama.sol\":1057:1088  balances[msg.sender] -= _amount */\n              dup3\n              dup3\n              sload\n              tag_39\n              swap2\n              swap1\n              tag_40\n              jump\t// in\n            tag_39:\n              swap3\n              pop\n              pop\n              dup2\n              swap1\n              sstore\n              pop\n                /* \"browse/contracts/Chama.sol\":1113:1120  _amount */\n              dup1\n                /* \"browse/contracts/Chama.sol\":1099:1109  totalFunds */\n              0x02\n              0x00\n                /* \"browse/contracts/Chama.sol\":1099:1120  totalFunds -= _amount */\n              dup3\n              dup3\n              sload\n              tag_41\n              swap2\n              swap1\n              tag_40\n              jump\t// in\n            tag_41:\n              swap3\n              pop\n              pop\n              dup2\n              swap1\n              sstore\n              pop\n                /* \"browse/contracts/Chama.sol\":1195:1207  bool success */\n              0x00\n                /* \"browse/contracts/Chama.sol\":1221:1231  msg.sender */\n              caller\n                /* \"browse/contracts/Chama.sol\":1213:1237  payable(msg.sender).call */\n              0xffffffffffffffffffffffffffffffffffffffff\n              and\n                /* \"browse/contracts/Chama.sol\":1245:1252  _amount */\n              dup3\n                /* \"browse/contracts/Chama.sol\":1213:1257  payable(msg.sender).call{value: _amount}(\"\") */\n              mload(0x40)\n              tag_42\n              swap1\n              tag_43\n              jump\t// in\n            tag_42:\n              0x00\n              mload(0x40)\n              dup1\n              dup4\n              sub\n              dup2\n              dup6\n              dup8\n              gas\n              call\n              swap3\n              pop\n              pop\n              pop\n              returndatasize\n              dup1\n              0x00\n              dup2\n              eq\n              tag_46\n              jumpi\n              mload(0x40)\n              swap2\n              pop\n              and(add(returndatasize, 0x3f), not(0x1f))\n              dup3\n              add\n              0x40\n              mstore\n              returndatasize\n              dup3\n              mstore\n              returndatasize\n              0x00\n              0x20\n              dup5\n              add\n              returndatacopy\n              jump(tag_45)\n            tag_46:\n              0x60\n              swap2\n              pop\n            tag_45:\n              pop\n                /* \"browse/contracts/Chama.sol\":1194:1257  (bool success, ) = payable(msg.sender).call{value: _amount}(\"\") */\n              pop\n              swap1\n              pop\n                /* \"browse/contracts/Chama.sol\":1276:1283  success */\n              dup1\n                /* \"browse/contracts/Chama.sol\":1268:1303  require(success, \"Transfer failed\") */\n              tag_47\n              jumpi\n              mload(0x40)\n              0x08c379a000000000000000000000000000000000000000000000000000000000\n              dup2\n              mstore\n              0x04\n              add\n              tag_48\n              swap1\n              tag_49\n              jump\t// in\n            tag_48:\n              mload(0x40)\n              dup1\n              swap2\n              sub\n              swap1\n              revert\n            tag_47:\n                /* \"browse/contracts/Chama.sol\":1336:1346  msg.sender */\n              caller\n                /* \"browse/contracts/Chama.sol\":1321:1356  WithdrawalMade(msg.sender, _amount) */\n              0xffffffffffffffffffffffffffffffffffffffff\n              and\n              0xbc158bb64f05d6383aea69bbb0b20c1bbf4b7a18f63359c5649b7c39e29d3884\n                /* \"browse/contracts/Chama.sol\":1348:1355  _amount */\n              dup4\n                /* \"browse/contracts/Chama.sol\":1321:1356  WithdrawalMade(msg.sender, _amount) */\n              mload(0x40)\n              tag_50\n              swap2\n              swap1\n              tag_14\n              jump\t// in\n            tag_50:\n              mload(0x40)\n              dup1\n              swap2\n              sub\n              swap1\n              log2\n                /* \"browse/contracts/Chama.sol\":945:1364  {... */\n              pop\n                /* \"browse/contracts/Chama.sol\":903:1364  function withdraw(uint256 _amount) public {... */\n              pop\n              jump\t// out\n                /* \"browse/contracts/Chama.sol\":88:114  address public chairperson */\n            tag_22:\n              0x00\n              0x00\n              swap1\n              sload\n              swap1\n              0x0100\n              exp\n              swap1\n              div\n              0xffffffffffffffffffffffffffffffffffffffff\n              and\n              dup2\n              jump\t// out\n                /* \"browse/contracts/Chama.sol\":171:196  uint256 public totalFunds */\n            tag_27:\n              sload(0x02)\n              dup2\n              jump\t// out\n                /* \"browse/contracts/Chama.sol\":596:840  function deposit() public payable {... */\n            tag_30:\n                /* \"browse/contracts/Chama.sol\":661:662  0 */\n              0x00\n                /* \"browse/contracts/Chama.sol\":649:658  msg.value */\n              callvalue\n                /* \"browse/contracts/Chama.sol\":649:662  msg.value > 0 */\n              gt\n                /* \"browse/contracts/Chama.sol\":641:692  require(msg.value > 0, \"You must deposit some ETH\") */\n              tag_52\n              jumpi\n              mload(0x40)\n              0x08c379a000000000000000000000000000000000000000000000000000000000\n              dup2\n              mstore\n              0x04\n              add\n              tag_53\n              swap1\n              tag_54\n              jump\t// in\n            tag_53:\n              mload(0x40)\n              dup1\n              swap2\n              sub\n              swap1\n              revert\n            tag_52:\n                /* \"browse/contracts/Chama.sol\":737:746  msg.value */\n              callvalue\n                /* \"browse/contracts/Chama.sol\":713:721  balances */\n              0x01\n                /* \"browse/contracts/Chama.sol\":713:733  balances[msg.sender] */\n              0x00\n                /* \"browse/contracts/Chama.sol\":722:732  msg.sender */\n              caller\n                /* \"browse/contracts/Chama.sol\":713:733  balances[msg.sender] */\n              0xffffffffffffffffffffffffffffffffffffffff\n              and\n              0xffffffffffffffffffffffffffffffffffffffff\n              and\n              dup2\n              mstore\n              0x20\n              add\n              swap1\n              dup2\n              mstore\n              0x20\n              add\n              0x00\n              keccak256\n              0x00\n                /* \"browse/contracts/Chama.sol\":713:746  balances[msg.sender] += msg.value */\n              dup3\n              dup3\n              sload\n              tag_55\n              swap2\n              swap1\n              tag_56\n              jump\t// in\n            tag_55:\n              swap3\n              pop\n              pop\n              dup2\n              swap1\n              sstore\n              pop\n                /* \"browse/contracts/Chama.sol\":771:780  msg.value */\n              callvalue\n                /* \"browse/contracts/Chama.sol\":757:767  totalFunds */\n              0x02\n              0x00\n                /* \"browse/contracts/Chama.sol\":757:780  totalFunds += msg.value */\n              dup3\n              dup3\n              sload\n              tag_57\n              swap2\n              swap1\n              tag_56\n              jump\t// in\n            tag_57:\n              swap3\n              pop\n              pop\n              dup2\n              swap1\n              sstore\n              pop\n                /* \"browse/contracts/Chama.sol\":810:820  msg.sender */\n              caller\n                /* \"browse/contracts/Chama.sol\":798:832  DepositMade(msg.sender, msg.value) */\n              0xffffffffffffffffffffffffffffffffffffffff\n              and\n              0xd15c9547ea5c06670c0010ce19bc32d54682a4b3801ece7f3ab0c3f17106b4bb\n                /* \"browse/contracts/Chama.sol\":822:831  msg.value */\n              callvalue\n                /* \"browse/contracts/Chama.sol\":798:832  DepositMade(msg.sender, msg.value) */\n              mload(0x40)\n              tag_58\n              swap2\n              swap1\n              tag_14\n              jump\t// in\n            tag_58:\n              mload(0x40)\n              dup1\n              swap2\n              sub\n              swap1\n              log2\n                /* \"browse/contracts/Chama.sol\":596:840  function deposit() public payable {... */\n              jump\t// out\n                /* \"browse/contracts/Chama.sol\":1436:1529  function getChamaBalance() public view returns (uint256) {... */\n            tag_33:\n                /* \"browse/contracts/Chama.sol\":1484:1491  uint256 */\n              0x00\n                /* \"browse/contracts/Chama.sol\":1511:1521  totalFunds */\n              sload(0x02)\n                /* \"browse/contracts/Chama.sol\":1504:1521  return totalFunds */\n              swap1\n              pop\n                /* \"browse/contracts/Chama.sol\":1436:1529  function getChamaBalance() public view returns (uint256) {... */\n              swap1\n              jump\t// out\n                /* \"#utility.yul\":88:205   */\n            tag_61:\n                /* \"#utility.yul\":197:198   */\n              0x00\n                /* \"#utility.yul\":194:195   */\n              0x00\n                /* \"#utility.yul\":187:199   */\n              revert\n                /* \"#utility.yul\":334:460   */\n            tag_63:\n                /* \"#utility.yul\":371:378   */\n              0x00\n                /* \"#utility.yul\":411:453   */\n              0xffffffffffffffffffffffffffffffffffffffff\n                /* \"#utility.yul\":404:409   */\n              dup3\n                /* \"#utility.yul\":400:454   */\n              and\n                /* \"#utility.yul\":389:454   */\n              swap1\n              pop\n                /* \"#utility.yul\":334:460   */\n              swap2\n              swap1\n              pop\n              jump\t// out\n                /* \"#utility.yul\":466:562   */\n            tag_64:\n                /* \"#utility.yul\":503:510   */\n              0x00\n                /* \"#utility.yul\":532:556   */\n              tag_89\n                /* \"#utility.yul\":550:555   */\n              dup3\n                /* \"#utility.yul\":532:556   */\n              tag_63\n              jump\t// in\n            tag_89:\n                /* \"#utility.yul\":521:556   */\n              swap1\n              pop\n                /* \"#utility.yul\":466:562   */\n              swap2\n              swap1\n              pop\n              jump\t// out\n                /* \"#utility.yul\":568:690   */\n            tag_65:\n                /* \"#utility.yul\":641:665   */\n              tag_91\n                /* \"#utility.yul\":659:664   */\n              dup2\n                /* \"#utility.yul\":641:665   */\n              tag_64\n              jump\t// in\n            tag_91:\n                /* \"#utility.yul\":634:639   */\n              dup2\n                /* \"#utility.yul\":631:666   */\n              eq\n                /* \"#utility.yul\":621:684   */\n              tag_92\n              jumpi\n                /* \"#utility.yul\":680:681   */\n              0x00\n                /* \"#utility.yul\":677:678   */\n              0x00\n                /* \"#utility.yul\":670:682   */\n              revert\n                /* \"#utility.yul\":621:684   */\n            tag_92:\n                /* \"#utility.yul\":568:690   */\n              pop\n              jump\t// out\n                /* \"#utility.yul\":696:835   */\n            tag_66:\n                /* \"#utility.yul\":742:747   */\n              0x00\n                /* \"#utility.yul\":780:786   */\n              dup2\n                /* \"#utility.yul\":767:787   */\n              calldataload\n                /* \"#utility.yul\":758:787   */\n              swap1\n              pop\n                /* \"#utility.yul\":796:829   */\n              tag_94\n                /* \"#utility.yul\":823:828   */\n              dup2\n                /* \"#utility.yul\":796:829   */\n              tag_65\n              jump\t// in\n            tag_94:\n                /* \"#utility.yul\":696:835   */\n              swap3\n              swap2\n              pop\n              pop\n              jump\t// out\n                /* \"#utility.yul\":841:1170   */\n            tag_11:\n                /* \"#utility.yul\":900:906   */\n              0x00\n                /* \"#utility.yul\":949:951   */\n              0x20\n                /* \"#utility.yul\":937:946   */\n              dup3\n                /* \"#utility.yul\":928:935   */\n              dup5\n                /* \"#utility.yul\":924:947   */\n              sub\n                /* \"#utility.yul\":920:952   */\n              slt\n                /* \"#utility.yul\":917:1036   */\n              iszero\n              tag_96\n              jumpi\n                /* \"#utility.yul\":955:1034   */\n              tag_97\n              tag_61\n              jump\t// in\n            tag_97:\n                /* \"#utility.yul\":917:1036   */\n            tag_96:\n                /* \"#utility.yul\":1075:1076   */\n              0x00\n                /* \"#utility.yul\":1100:1153   */\n              tag_98\n                /* \"#utility.yul\":1145:1152   */\n              dup5\n                /* \"#utility.yul\":1136:1142   */\n              dup3\n                /* \"#utility.yul\":1125:1134   */\n              dup6\n                /* \"#utility.yul\":1121:1143   */\n              add\n                /* \"#utility.yul\":1100:1153   */\n              tag_66\n              jump\t// in\n            tag_98:\n                /* \"#utility.yul\":1090:1153   */\n              swap2\n              pop\n                /* \"#utility.yul\":1046:1163   */\n              pop\n                /* \"#utility.yul\":841:1170   */\n              swap3\n              swap2\n              pop\n              pop\n              jump\t// out\n                /* \"#utility.yul\":1176:1253   */\n            tag_67:\n                /* \"#utility.yul\":1213:1220   */\n              0x00\n                /* \"#utility.yul\":1242:1247   */\n              dup2\n                /* \"#utility.yul\":1231:1247   */\n              swap1\n              pop\n                /* \"#utility.yul\":1176:1253   */\n              swap2\n              swap1\n              pop\n              jump\t// out\n                /* \"#utility.yul\":1259:1377   */\n            tag_68:\n                /* \"#utility.yul\":1346:1370   */\n              tag_101\n                /* \"#utility.yul\":1364:1369   */\n              dup2\n                /* \"#utility.yul\":1346:1370   */\n              tag_67\n              jump\t// in\n            tag_101:\n                /* \"#utility.yul\":1341:1344   */\n              dup3\n                /* \"#utility.yul\":1334:1371   */\n              mstore\n                /* \"#utility.yul\":1259:1377   */\n              pop\n              pop\n              jump\t// out\n                /* \"#utility.yul\":1383:1605   */\n            tag_14:\n                /* \"#utility.yul\":1476:1480   */\n              0x00\n                /* \"#utility.yul\":1514:1516   */\n              0x20\n                /* \"#utility.yul\":1503:1512   */\n              dup3\n                /* \"#utility.yul\":1499:1517   */\n              add\n                /* \"#utility.yul\":1491:1517   */\n              swap1\n              pop\n                /* \"#utility.yul\":1527:1598   */\n              tag_103\n                /* \"#utility.yul\":1595:1596   */\n              0x00\n                /* \"#utility.yul\":1584:1593   */\n              dup4\n                /* \"#utility.yul\":1580:1597   */\n              add\n                /* \"#utility.yul\":1571:1577   */\n              dup5\n                /* \"#utility.yul\":1527:1598   */\n              tag_68\n              jump\t// in\n            tag_103:\n                /* \"#utility.yul\":1383:1605   */\n              swap3\n              swap2\n              pop\n              pop\n              jump\t// out\n                /* \"#utility.yul\":1611:1733   */\n            tag_69:\n                /* \"#utility.yul\":1684:1708   */\n              tag_105\n                /* \"#utility.yul\":1702:1707   */\n              dup2\n                /* \"#utility.yul\":1684:1708   */\n              tag_67\n              jump\t// in\n            tag_105:\n                /* \"#utility.yul\":1677:1682   */\n              dup2\n                /* \"#utility.yul\":1674:1709   */\n              eq\n                /* \"#utility.yul\":1664:1727   */\n              tag_106\n              jumpi\n                /* \"#utility.yul\":1723:1724   */\n              0x00\n                /* \"#utility.yul\":1720:1721   */\n              0x00\n                /* \"#utility.yul\":1713:1725   */\n              revert\n                /* \"#utility.yul\":1664:1727   */\n            tag_106:\n                /* \"#utility.yul\":1611:1733   */\n              pop\n              jump\t// out\n                /* \"#utility.yul\":1739:1878   */\n            tag_70:\n                /* \"#utility.yul\":1785:1790   */\n              0x00\n                /* \"#utility.yul\":1823:1829   */\n              dup2\n                /* \"#utility.yul\":1810:1830   */\n              calldataload\n                /* \"#utility.yul\":1801:1830   */\n              swap1\n              pop\n                /* \"#utility.yul\":1839:1872   */\n              tag_108\n                /* \"#utility.yul\":1866:1871   */\n              dup2\n                /* \"#utility.yul\":1839:1872   */\n              tag_69\n              jump\t// in\n            tag_108:\n                /* \"#utility.yul\":1739:1878   */\n              swap3\n              swap2\n              pop\n              pop\n              jump\t// out\n                /* \"#utility.yul\":1884:2213   */\n            tag_18:\n                /* \"#utility.yul\":1943:1949   */\n              0x00\n                /* \"#utility.yul\":1992:1994   */\n              0x20\n                /* \"#utility.yul\":1980:1989   */\n              dup3\n                /* \"#utility.yul\":1971:1978   */\n              dup5\n                /* \"#utility.yul\":1967:1990   */\n              sub\n                /* \"#utility.yul\":1963:1995   */\n              slt\n                /* \"#utility.yul\":1960:2079   */\n              iszero\n              tag_110\n              jumpi\n                /* \"#utility.yul\":1998:2077   */\n              tag_111\n              tag_61\n              jump\t// in\n            tag_111:\n                /* \"#utility.yul\":1960:2079   */\n            tag_110:\n                /* \"#utility.yul\":2118:2119   */\n              0x00\n                /* \"#utility.yul\":2143:2196   */\n              tag_112\n                /* \"#utility.yul\":2188:2195   */\n              dup5\n                /* \"#utility.yul\":2179:2185   */\n              dup3\n                /* \"#utility.yul\":2168:2177   */\n              dup6\n                /* \"#utility.yul\":2164:2186   */\n              add\n                /* \"#utility.yul\":2143:2196   */\n              tag_70\n              jump\t// in\n            tag_112:\n                /* \"#utility.yul\":2133:2196   */\n              swap2\n              pop\n                /* \"#utility.yul\":2089:2206   */\n              pop\n                /* \"#utility.yul\":1884:2213   */\n              swap3\n              swap2\n              pop\n              pop\n              jump\t// out\n                /* \"#utility.yul\":2219:2337   */\n            tag_71:\n                /* \"#utility.yul\":2306:2330   */\n              tag_114\n                /* \"#utility.yul\":2324:2329   */\n              dup2\n                /* \"#utility.yul\":2306:2330   */\n              tag_64\n              jump\t// in\n            tag_114:\n                /* \"#utility.yul\":2301:2304   */\n              dup3\n                /* \"#utility.yul\":2294:2331   */\n              mstore\n                /* \"#utility.yul\":2219:2337   */\n              pop\n              pop\n              jump\t// out\n                /* \"#utility.yul\":2343:2565   */\n            tag_24:\n                /* \"#utility.yul\":2436:2440   */\n              0x00\n                /* \"#utility.yul\":2474:2476   */\n              0x20\n                /* \"#utility.yul\":2463:2472   */\n              dup3\n                /* \"#utility.yul\":2459:2477   */\n              add\n                /* \"#utility.yul\":2451:2477   */\n              swap1\n              pop\n                /* \"#utility.yul\":2487:2558   */\n              tag_116\n                /* \"#utility.yul\":2555:2556   */\n              0x00\n                /* \"#utility.yul\":2544:2553   */\n              dup4\n                /* \"#utility.yul\":2540:2557   */\n              add\n                /* \"#utility.yul\":2531:2537   */\n              dup5\n                /* \"#utility.yul\":2487:2558   */\n              tag_71\n              jump\t// in\n            tag_116:\n                /* \"#utility.yul\":2343:2565   */\n              swap3\n              swap2\n              pop\n              pop\n              jump\t// out\n                /* \"#utility.yul\":2571:2740   */\n            tag_72:\n                /* \"#utility.yul\":2655:2666   */\n              0x00\n                /* \"#utility.yul\":2689:2695   */\n              dup3\n                /* \"#utility.yul\":2684:2687   */\n              dup3\n                /* \"#utility.yul\":2677:2696   */\n              mstore\n                /* \"#utility.yul\":2729:2733   */\n              0x20\n                /* \"#utility.yul\":2724:2727   */\n              dup3\n                /* \"#utility.yul\":2720:2734   */\n              add\n                /* \"#utility.yul\":2705:2734   */\n              swap1\n              pop\n                /* \"#utility.yul\":2571:2740   */\n              swap3\n              swap2\n              pop\n              pop\n              jump\t// out\n                /* \"#utility.yul\":2746:2969   */\n            tag_73:\n                /* \"#utility.yul\":2886:2920   */\n              0x496e73756666696369656e742062616c616e636520696e20796f757220616363\n                /* \"#utility.yul\":2882:2883   */\n              0x00\n                /* \"#utility.yul\":2874:2880   */\n              dup3\n                /* \"#utility.yul\":2870:2884   */\n              add\n                /* \"#utility.yul\":2863:2921   */\n              mstore\n                /* \"#utility.yul\":2955:2961   */\n              0x6f756e7400000000000000000000000000000000000000000000000000000000\n                /* \"#utility.yul\":2950:2952   */\n              0x20\n                /* \"#utility.yul\":2942:2948   */\n              dup3\n                /* \"#utility.yul\":2938:2953   */\n              add\n                /* \"#utility.yul\":2931:2962   */\n              mstore\n                /* \"#utility.yul\":2746:2969   */\n              pop\n              jump\t// out\n                /* \"#utility.yul\":2975:3341   */\n            tag_74:\n                /* \"#utility.yul\":3117:3120   */\n              0x00\n                /* \"#utility.yul\":3138:3205   */\n              tag_120\n                /* \"#utility.yul\":3202:3204   */\n              0x24\n                /* \"#utility.yul\":3197:3200   */\n              dup4\n                /* \"#utility.yul\":3138:3205   */\n              tag_72\n              jump\t// in\n            tag_120:\n                /* \"#utility.yul\":3131:3205   */\n              swap2\n              pop\n                /* \"#utility.yul\":3214:3307   */\n              tag_121\n                /* \"#utility.yul\":3303:3306   */\n              dup3\n                /* \"#utility.yul\":3214:3307   */\n              tag_73\n              jump\t// in\n            tag_121:\n                /* \"#utility.yul\":3332:3334   */\n              0x40\n                /* \"#utility.yul\":3327:3330   */\n              dup3\n                /* \"#utility.yul\":3323:3335   */\n              add\n                /* \"#utility.yul\":3316:3335   */\n              swap1\n              pop\n                /* \"#utility.yul\":2975:3341   */\n              swap2\n              swap1\n              pop\n              jump\t// out\n                /* \"#utility.yul\":3347:3766   */\n            tag_38:\n                /* \"#utility.yul\":3513:3517   */\n              0x00\n                /* \"#utility.yul\":3551:3553   */\n              0x20\n                /* \"#utility.yul\":3540:3549   */\n              dup3\n                /* \"#utility.yul\":3536:3554   */\n              add\n                /* \"#utility.yul\":3528:3554   */\n              swap1\n              pop\n                /* \"#utility.yul\":3600:3609   */\n              dup2\n                /* \"#utility.yul\":3594:3598   */\n              dup2\n                /* \"#utility.yul\":3590:3610   */\n              sub\n                /* \"#utility.yul\":3586:3587   */\n              0x00\n                /* \"#utility.yul\":3575:3584   */\n              dup4\n                /* \"#utility.yul\":3571:3588   */\n              add\n                /* \"#utility.yul\":3564:3611   */\n              mstore\n                /* \"#utility.yul\":3628:3759   */\n              tag_123\n                /* \"#utility.yul\":3754:3758   */\n              dup2\n                /* \"#utility.yul\":3628:3759   */\n              tag_74\n              jump\t// in\n            tag_123:\n                /* \"#utility.yul\":3620:3759   */\n              swap1\n              pop\n                /* \"#utility.yul\":3347:3766   */\n              swap2\n              swap1\n              pop\n              jump\t// out\n                /* \"#utility.yul\":3772:3952   */\n            tag_75:\n                /* \"#utility.yul\":3820:3897   */\n              0x4e487b7100000000000000000000000000000000000000000000000000000000\n                /* \"#utility.yul\":3817:3818   */\n              0x00\n                /* \"#utility.yul\":3810:3898   */\n              mstore\n                /* \"#utility.yul\":3917:3921   */\n              0x11\n                /* \"#utility.yul\":3914:3915   */\n              0x04\n                /* \"#utility.yul\":3907:3922   */\n              mstore\n                /* \"#utility.yul\":3941:3945   */\n              0x24\n                /* \"#utility.yul\":3938:3939   */\n              0x00\n                /* \"#utility.yul\":3931:3946   */\n              revert\n                /* \"#utility.yul\":3958:4152   */\n            tag_40:\n                /* \"#utility.yul\":3998:4002   */\n              0x00\n                /* \"#utility.yul\":4018:4038   */\n              tag_126\n                /* \"#utility.yul\":4036:4037   */\n              dup3\n                /* \"#utility.yul\":4018:4038   */\n              tag_67\n              jump\t// in\n            tag_126:\n                /* \"#utility.yul\":4013:4038   */\n              swap2\n              pop\n                /* \"#utility.yul\":4052:4072   */\n              tag_127\n                /* \"#utility.yul\":4070:4071   */\n              dup4\n                /* \"#utility.yul\":4052:4072   */\n              tag_67\n              jump\t// in\n            tag_127:\n                /* \"#utility.yul\":4047:4072   */\n              swap3\n              pop\n                /* \"#utility.yul\":4096:4097   */\n              dup3\n                /* \"#utility.yul\":4093:4094   */\n              dup3\n                /* \"#utility.yul\":4089:4098   */\n              sub\n                /* \"#utility.yul\":4081:4098   */\n              swap1\n              pop\n                /* \"#utility.yul\":4120:4121   */\n              dup2\n                /* \"#utility.yul\":4114:4118   */\n              dup2\n                /* \"#utility.yul\":4111:4122   */\n              gt\n                /* \"#utility.yul\":4108:4145   */\n              iszero\n              tag_128\n              jumpi\n                /* \"#utility.yul\":4125:4143   */\n              tag_129\n              tag_75\n              jump\t// in\n            tag_129:\n                /* \"#utility.yul\":4108:4145   */\n            tag_128:\n                /* \"#utility.yul\":3958:4152   */\n              swap3\n              swap2\n              pop\n              pop\n              jump\t// out\n                /* \"#utility.yul\":4158:4305   */\n            tag_76:\n                /* \"#utility.yul\":4259:4270   */\n              0x00\n                /* \"#utility.yul\":4296:4299   */\n              dup2\n                /* \"#utility.yul\":4281:4299   */\n              swap1\n              pop\n                /* \"#utility.yul\":4158:4305   */\n              swap3\n              swap2\n              pop\n              pop\n              jump\t// out\n                /* \"#utility.yul\":4311:4425   */\n            tag_77:\n              pop\n              jump\t// out\n                /* \"#utility.yul\":4431:4829   */\n            tag_78:\n                /* \"#utility.yul\":4590:4593   */\n              0x00\n                /* \"#utility.yul\":4611:4694   */\n              tag_133\n                /* \"#utility.yul\":4692:4693   */\n              0x00\n                /* \"#utility.yul\":4687:4690   */\n              dup4\n                /* \"#utility.yul\":4611:4694   */\n              tag_76\n              jump\t// in\n            tag_133:\n                /* \"#utility.yul\":4604:4694   */\n              swap2\n              pop\n                /* \"#utility.yul\":4703:4796   */\n              tag_134\n                /* \"#utility.yul\":4792:4795   */\n              dup3\n                /* \"#utility.yul\":4703:4796   */\n              tag_77\n              jump\t// in\n            tag_134:\n                /* \"#utility.yul\":4821:4822   */\n              0x00\n                /* \"#utility.yul\":4816:4819   */\n              dup3\n                /* \"#utility.yul\":4812:4823   */\n              add\n                /* \"#utility.yul\":4805:4823   */\n              swap1\n              pop\n                /* \"#utility.yul\":4431:4829   */\n              swap2\n              swap1\n              pop\n              jump\t// out\n                /* \"#utility.yul\":4835:5214   */\n            tag_43:\n                /* \"#utility.yul\":5019:5022   */\n              0x00\n                /* \"#utility.yul\":5041:5188   */\n              tag_136\n                /* \"#utility.yul\":5184:5187   */\n              dup3\n                /* \"#utility.yul\":5041:5188   */\n              tag_78\n              jump\t// in\n            tag_136:\n                /* \"#utility.yul\":5034:5188   */\n              swap2\n              pop\n                /* \"#utility.yul\":5205:5208   */\n              dup2\n                /* \"#utility.yul\":5198:5208   */\n              swap1\n              pop\n                /* \"#utility.yul\":4835:5214   */\n              swap2\n              swap1\n              pop\n              jump\t// out\n                /* \"#utility.yul\":5220:5385   */\n            tag_79:\n                /* \"#utility.yul\":5360:5377   */\n              0x5472616e73666572206661696c65640000000000000000000000000000000000\n                /* \"#utility.yul\":5356:5357   */\n              0x00\n                /* \"#utility.yul\":5348:5354   */\n              dup3\n                /* \"#utility.yul\":5344:5358   */\n              add\n                /* \"#utility.yul\":5337:5378   */\n              mstore\n                /* \"#utility.yul\":5220:5385   */\n              pop\n              jump\t// out\n                /* \"#utility.yul\":5391:5757   */\n            tag_80:\n                /* \"#utility.yul\":5533:5536   */\n              0x00\n                /* \"#utility.yul\":5554:5621   */\n              tag_139\n                /* \"#utility.yul\":5618:5620   */\n              0x0f\n                /* \"#utility.yul\":5613:5616   */\n              dup4\n                /* \"#utility.yul\":5554:5621   */\n              tag_72\n              jump\t// in\n            tag_139:\n                /* \"#utility.yul\":5547:5621   */\n              swap2\n              pop\n                /* \"#utility.yul\":5630:5723   */\n              tag_140\n                /* \"#utility.yul\":5719:5722   */\n              dup3\n                /* \"#utility.yul\":5630:5723   */\n              tag_79\n              jump\t// in\n            tag_140:\n                /* \"#utility.yul\":5748:5750   */\n              0x20\n                /* \"#utility.yul\":5743:5746   */\n              dup3\n                /* \"#utility.yul\":5739:5751   */\n              add\n                /* \"#utility.yul\":5732:5751   */\n              swap1\n              pop\n                /* \"#utility.yul\":5391:5757   */\n              swap2\n              swap1\n              pop\n              jump\t// out\n                /* \"#utility.yul\":5763:6182   */\n            tag_49:\n                /* \"#utility.yul\":5929:5933   */\n              0x00\n                /* \"#utility.yul\":5967:5969   */\n              0x20\n                /* \"#utility.yul\":5956:5965   */\n              dup3\n                /* \"#utility.yul\":5952:5970   */\n              add\n                /* \"#utility.yul\":5944:5970   */\n              swap1\n              pop\n                /* \"#utility.yul\":6016:6025   */\n              dup2\n                /* \"#utility.yul\":6010:6014   */\n              dup2\n                /* \"#utility.yul\":6006:6026   */\n              sub\n                /* \"#utility.yul\":6002:6003   */\n              0x00\n                /* \"#utility.yul\":5991:6000   */\n              dup4\n                /* \"#utility.yul\":5987:6004   */\n              add\n                /* \"#utility.yul\":5980:6027   */\n              mstore\n                /* \"#utility.yul\":6044:6175   */\n              tag_142\n                /* \"#utility.yul\":6170:6174   */\n              dup2\n                /* \"#utility.yul\":6044:6175   */\n              tag_80\n              jump\t// in\n            tag_142:\n                /* \"#utility.yul\":6036:6175   */\n              swap1\n              pop\n                /* \"#utility.yul\":5763:6182   */\n              swap2\n              swap1\n              pop\n              jump\t// out\n                /* \"#utility.yul\":6188:6363   */\n            tag_81:\n                /* \"#utility.yul\":6328:6355   */\n              0x596f75206d757374206465706f73697420736f6d652045544800000000000000\n                /* \"#utility.yul\":6324:6325   */\n              0x00\n                /* \"#utility.yul\":6316:6322   */\n              dup3\n                /* \"#utility.yul\":6312:6326   */\n              add\n                /* \"#utility.yul\":6305:6356   */\n              mstore\n                /* \"#utility.yul\":6188:6363   */\n              pop\n              jump\t// out\n                /* \"#utility.yul\":6369:6735   */\n            tag_82:\n                /* \"#utility.yul\":6511:6514   */\n              0x00\n                /* \"#utility.yul\":6532:6599   */\n              tag_145\n                /* \"#utility.yul\":6596:6598   */\n              0x19\n                /* \"#utility.yul\":6591:6594   */\n              dup4\n                /* \"#utility.yul\":6532:6599   */\n              tag_72\n              jump\t// in\n            tag_145:\n                /* \"#utility.yul\":6525:6599   */\n              swap2\n              pop\n                /* \"#utility.yul\":6608:6701   */\n              tag_146\n                /* \"#utility.yul\":6697:6700   */\n              dup3\n                /* \"#utility.yul\":6608:6701   */\n              tag_81\n              jump\t// in\n            tag_146:\n                /* \"#utility.yul\":6726:6728   */\n              0x20\n                /* \"#utility.yul\":6721:6724   */\n              dup3\n                /* \"#utility.yul\":6717:6729   */\n              add\n                /* \"#utility.yul\":6710:6729   */\n              swap1\n              pop\n                /* \"#utility.yul\":6369:6735   */\n              swap2\n              swap1\n              pop\n              jump\t// out\n                /* \"#utility.yul\":6741:7160   */\n            tag_54:\n                /* \"#utility.yul\":6907:6911   */\n              0x00\n                /* \"#utility.yul\":6945:6947   */\n              0x20\n                /* \"#utility.yul\":6934:6943   */\n              dup3\n                /* \"#utility.yul\":6930:6948   */\n              add\n                /* \"#utility.yul\":6922:6948   */\n              swap1\n              pop\n                /* \"#utility.yul\":6994:7003   */\n              dup2\n                /* \"#utility.yul\":6988:6992   */\n              dup2\n                /* \"#utility.yul\":6984:7004   */\n              sub\n                /* \"#utility.yul\":6980:6981   */\n              0x00\n                /* \"#utility.yul\":6969:6978   */\n              dup4\n                /* \"#utility.yul\":6965:6982   */\n              add\n                /* \"#utility.yul\":6958:7005   */\n              mstore\n                /* \"#utility.yul\":7022:7153   */\n              tag_148\n                /* \"#utility.yul\":7148:7152   */\n              dup2\n                /* \"#utility.yul\":7022:7153   */\n              tag_82\n              jump\t// in\n            tag_148:\n                /* \"#utility.yul\":7014:7153   */\n              swap1\n              pop\n                /* \"#utility.yul\":6741:7160   */\n              swap2\n              swap1\n              pop\n              jump\t// out\n                /* \"#utility.yul\":7166:7357   */\n            tag_56:\n                /* \"#utility.yul\":7206:7209   */\n              0x00\n                /* \"#utility.yul\":7225:7245   */\n              tag_150\n                /* \"#utility.yul\":7243:7244   */\n              dup3\n                /* \"#utility.yul\":7225:7245   */\n              tag_67\n              jump\t// in\n            tag_150:\n                /* \"#utility.yul\":7220:7245   */\n              swap2\n              pop\n                /* \"#utility.yul\":7259:7279   */\n              tag_151\n                /* \"#utility.yul\":7277:7278   */\n              dup4\n                /* \"#utility.yul\":7259:7279   */\n              tag_67\n              jump\t// in\n            tag_151:\n                /* \"#utility.yul\":7254:7279   */\n              swap3\n              pop\n                /* \"#utility.yul\":7302:7303   */\n              dup3\n                /* \"#utility.yul\":7299:7300   */\n              dup3\n                /* \"#utility.yul\":7295:7304   */\n              add\n                /* \"#utility.yul\":7288:7304   */\n              swap1\n              pop\n                /* \"#utility.yul\":7323:7326   */\n              dup1\n                /* \"#utility.yul\":7320:7321   */\n              dup3\n                /* \"#utility.yul\":7317:7327   */\n              gt\n                /* \"#utility.yul\":7314:7350   */\n              iszero\n              tag_152\n              jumpi\n                /* \"#utility.yul\":7330:7348   */\n              tag_153\n              tag_75\n              jump\t// in\n            tag_153:\n                /* \"#utility.yul\":7314:7350   */\n            tag_152:\n                /* \"#utility.yul\":7166:7357   */\n              swap3\n              swap2\n              pop\n              pop\n              jump\t// out\n\n            auxdata: 0xa2646970667358221220ccabfb3527f332b5daa9629d5d99cf8546d8554bf78f1b15b6de05e52fa1316864736f6c634300081f0033\n        }\n    }\n\n    auxdata: 0xa26469706673582212207ac3efff71ae582ba424e1b4418556f6409b3e5cb8be755155060aaf5caadd4464736f6c634300081f0033\n}\n",
				"bytecode": {
					"linkReferences": {
						"remix_tests.sol": {
							"Assert": [
								{
									"length": 20,
									"start": 466
								},
								{
									"length": 20,
									"start": 606
								},
								{
									"length": 20,
									"start": 728
								},
								{
									"length": 20,
									"start": 1124
								},
								{
									"length": 20,
									"start": 1671
								},
								{
									"length": 20,
									"start": 1811
								},
								{
									"length": 20,
									"start": 1933
								},
								{
									"length": 20,
									"start": 2350
								},
								{
									"length": 20,
									"start": 2630
								}
							]
						}
					},
					"object": "6080604052348015600e575f5ffd5b50611d418061001c5f395ff3fe608060405260043610610073575f3560e01c80637fea0d4b1161004d5780637fea0d4b146100b4578063b5b9af13146100be578063c417572c146100d4578063cc8af67e146100ea5761007a565b80633dd04a801461007e5780635bc07a74146100945780637f924c4e146100aa5761007a565b3661007a57005b5f5ffd5b348015610089575f5ffd5b50610092610100565b005b34801561009f575f5ffd5b506100a86102ba565b005b6100b26103c1565b005b6100bc610560565b005b3480156100c9575f5ffd5b506100d26105c6565b005b3480156100df575f5ffd5b506100e861076f565b005b3480156100f5575f5ffd5b506100fe61087e565b005b5f5f9054906101000a900473ffffffffffffffffffffffffffffffffffffffff1673ffffffffffffffffffffffffffffffffffffffff16632e1a7d4d678ac7230489e800006040518263ffffffff1660e01b81526004016101619190610afc565b5f604051808303815f87803b158015610178575f5ffd5b505af1925050508015610189575060015b61024057610195610b21565b806308c379a00361023157506101a9610bb7565b806101b45750610233565b73__$acbfb1c35000d78352310b16a054a6b106$__63e8c2cb16826040518263ffffffff1660e01b81526004016101eb9190610d60565b602060405180830381865af4158015610206573d5f5f3e3d5ffd5b505050506040513d601f19601f8201168201806040525081019061022a9190610ddf565b505061023b565b505b3d5f5f3e3d5ffd5b6102b8565b73__$acbfb1c35000d78352310b16a054a6b106$__6339df137f5f6040518263ffffffff1660e01b81526004016102779190610e89565b602060405180830381865af4158015610292573d5f5f3e3d5ffd5b505050506040513d601f19601f820116820180604052508101906102b69190610ddf565b505b565b73__$acbfb1c35000d78352310b16a054a6b106$__63bfba5dd65f5f9054906101000a900473ffffffffffffffffffffffffffffffffffffffff1673ffffffffffffffffffffffffffffffffffffffff16632e4176cf6040518163ffffffff1660e01b8152600401602060405180830381865afa15801561033d573d5f5f3e3d5ffd5b505050506040513d601f19601f820116820180604052508101906103619190610f0f565b306040518363ffffffff1660e01b815260040161037f929190610fb9565b602060405180830381865af415801561039a573d5f5f3e3d5ffd5b505050506040513d601f19601f820116820180604052508101906103be9190610ddf565b50565b5f5f9054906101000a900473ffffffffffffffffffffffffffffffffffffffff1673ffffffffffffffffffffffffffffffffffffffff1663d0e30db0670de0b6b3a76400006040518263ffffffff1660e01b81526004015f604051808303818588803b15801561042f575f5ffd5b505af1158015610441573d5f5f3e3d5ffd5b505050505073__$acbfb1c35000d78352310b16a054a6b106$__63abcd79605f5f9054906101000a900473ffffffffffffffffffffffffffffffffffffffff1673ffffffffffffffffffffffffffffffffffffffff166327e235e3306040518263ffffffff1660e01b81526004016104b99190611002565b602060405180830381865afa1580156104d4573d5f5f3e3d5ffd5b505050506040513d601f19601f820116820180604052508101906104f89190611045565b670de0b6b3a76400006040518363ffffffff1660e01b815260040161051e929190611102565b602060405180830381865af4158015610539573d5f5f3e3d5ffd5b505050506040513d601f19601f8201168201806040525081019061055d9190610ddf565b50565b60405161056c90610aa4565b604051809103905ff080158015610585573d5f5f3e3d5ffd5b505f5f6101000a81548173ffffffffffffffffffffffffffffffffffffffff021916908373ffffffffffffffffffffffffffffffffffffffff160217905550565b5f5f9054906101000a900473ffffffffffffffffffffffffffffffffffffffff1673ffffffffffffffffffffffffffffffffffffffff1663d0e30db05f6040518263ffffffff1660e01b81526004015f604051808303818588803b15801561062c575f5ffd5b505af19350505050801561063e575060015b6106f55761064a610b21565b806308c379a0036106e6575061065e610bb7565b8061066957506106e8565b73__$acbfb1c35000d78352310b16a054a6b106$__63e8c2cb16826040518263ffffffff1660e01b81526004016106a09190611186565b602060405180830381865af41580156106bb573d5f5f3e3d5ffd5b505050506040513d601f19601f820116820180604052508101906106df9190610ddf565b50506106f0565b505b3d5f5f3e3d5ffd5b61076d565b73__$acbfb1c35000d78352310b16a054a6b106$__6339df137f5f6040518263ffffffff1660e01b815260040161072c919061123c565b602060405180830381865af4158015610747573d5f5f3e3d5ffd5b505050506040513d601f19601f8201168201806040525081019061076b9190610ddf565b505b565b73__$acbfb1c35000d78352310b16a054a6b106$__63abcd79605f5f9054906101000a900473ffffffffffffffffffffffffffffffffffffffff1673ffffffffffffffffffffffffffffffffffffffff1663d624a4e06040518163ffffffff1660e01b8152600401602060405180830381865afa1580156107f2573d5f5f3e3d5ffd5b505050506040513d601f19601f820116820180604052508101906108169190611045565b670de0b6b3a76400006040518363ffffffff1660e01b815260040161083c9291906112b2565b602060405180830381865af4158015610857573d5f5f3e3d5ffd5b505050506040513d601f19601f8201168201806040525081019061087b9190610ddf565b50565b5f4790505f5f9054906101000a900473ffffffffffffffffffffffffffffffffffffffff1673ffffffffffffffffffffffffffffffffffffffff16632e1a7d4d6706f05b59d3b200006040518263ffffffff1660e01b81526004016108e39190611325565b5f604051808303815f87803b1580156108fa575f5ffd5b505af115801561090c573d5f5f3e3d5ffd5b5050505073__$acbfb1c35000d78352310b16a054a6b106$__63abcd79605f5f9054906101000a900473ffffffffffffffffffffffffffffffffffffffff1673ffffffffffffffffffffffffffffffffffffffff166327e235e3306040518263ffffffff1660e01b81526004016109839190611002565b602060405180830381865afa15801561099e573d5f5f3e3d5ffd5b505050506040513d601f19601f820116820180604052508101906109c29190611045565b6706f05b59d3b200006040518363ffffffff1660e01b81526004016109e89291906113bd565b602060405180830381865af4158015610a03573d5f5f3e3d5ffd5b505050506040513d601f19601f82011682018060405250810190610a279190610ddf565b5073__$acbfb1c35000d78352310b16a054a6b106$__6339df137f8247116040518263ffffffff1660e01b8152600401610a619190611467565b602060405180830381865af4158015610a7c573d5f5f3e3d5ffd5b505050506040513d601f19601f82011682018060405250810190610aa09190610ddf565b5050565b6108788061149483390190565b5f819050919050565b5f819050919050565b5f819050919050565b5f610ae6610ae1610adc84610ab1565b610ac3565b610aba565b9050919050565b610af681610acc565b82525050565b5f602082019050610b0f5f830184610aed565b92915050565b5f8160e01c9050919050565b5f60033d1115610b3d5760045f5f3e610b3a5f51610b15565b90505b90565b5f604051905090565b5f601f19601f8301169050919050565b7f4e487b71000000000000000000000000000000000000000000000000000000005f52604160045260245ffd5b610b8f82610b49565b810181811067ffffffffffffffff82111715610bae57610bad610b59565b5b80604052505050565b5f60443d10610c4357610bc8610b40565b60043d036004823e80513d602482011167ffffffffffffffff82111715610bf0575050610c43565b808201805167ffffffffffffffff811115610c0e5750505050610c43565b80602083010160043d038501811115610c2b575050505050610c43565b610c3a82602001850186610b86565b82955050505050505b90565b5f81519050919050565b5f82825260208201905092915050565b8281835e5f83830152505050565b5f610c7882610c46565b610c828185610c50565b9350610c92818560208601610c60565b610c9b81610b49565b840191505092915050565b7f496e73756666696369656e742062616c616e636520696e20796f7572206163635f8201527f6f756e7400000000000000000000000000000000000000000000000000000000602082015250565b5f610d00602483610c50565b9150610d0b82610ca6565b604082019050919050565b7f57726f6e672072657665727420726561736f6e000000000000000000000000005f82015250565b5f610d4a601383610c50565b9150610d5582610d16565b602082019050919050565b5f6060820190508181035f830152610d788184610c6e565b90508181036020830152610d8b81610cf4565b90508181036040830152610d9e81610d3e565b905092915050565b5f5ffd5b5f8115159050919050565b610dbe81610daa565b8114610dc8575f5ffd5b50565b5f81519050610dd981610db5565b92915050565b5f60208284031215610df457610df3610da6565b5b5f610e0184828501610dcb565b91505092915050565b610e1381610daa565b82525050565b7f53686f756c64206861766520726576657274656420666f72206f7665722d77695f8201527f746864726177696e670000000000000000000000000000000000000000000000602082015250565b5f610e73602983610c50565b9150610e7e82610e19565b604082019050919050565b5f604082019050610e9c5f830184610e0a565b8181036020830152610ead81610e67565b905092915050565b5f73ffffffffffffffffffffffffffffffffffffffff82169050919050565b5f610ede82610eb5565b9050919050565b610eee81610ed4565b8114610ef8575f5ffd5b50565b5f81519050610f0981610ee5565b92915050565b5f60208284031215610f2457610f23610da6565b5b5f610f3184828501610efb565b91505092915050565b610f4381610ed4565b82525050565b7f4368616972706572736f6e2073686f756c6420626520746865206465706c6f795f8201527f6572000000000000000000000000000000000000000000000000000000000000602082015250565b5f610fa3602283610c50565b9150610fae82610f49565b604082019050919050565b5f606082019050610fcc5f830185610f3a565b610fd96020830184610f3a565b8181036040830152610fea81610f97565b90509392505050565b610ffc81610ed4565b82525050565b5f6020820190506110155f830184610ff3565b92915050565b61102481610aba565b811461102e575f5ffd5b50565b5f8151905061103f8161101b565b92915050565b5f6020828403121561105a57611059610da6565b5b5f61106784828501611031565b91505092915050565b61107981610aba565b82525050565b5f819050919050565b5f6110a261109d6110988461107f565b610ac3565b610aba565b9050919050565b6110b281611088565b82525050565b7f42616c616e63652073686f756c642062652031204554480000000000000000005f82015250565b5f6110ec601783610c50565b91506110f7826110b8565b602082019050919050565b5f6060820190506111155f830185611070565b61112260208301846110a9565b8181036040830152611133816110e0565b90509392505050565b7f596f75206d757374206465706f73697420736f6d6520455448000000000000005f82015250565b5f611170601983610c50565b915061117b8261113c565b602082019050919050565b5f6060820190508181035f83015261119e8184610c6e565b905081810360208301526111b181611164565b905081810360408301526111c481610d3e565b905092915050565b7f53686f756c642068617665207265766572746564206f6e2030206465706f73695f8201527f7400000000000000000000000000000000000000000000000000000000000000602082015250565b5f611226602183610c50565b9150611231826111cc565b604082019050919050565b5f60408201905061124f5f830184610e0a565b81810360208301526112608161121a565b905092915050565b7f546f74616c2066756e64732073686f756c6420626520312045544800000000005f82015250565b5f61129c601b83610c50565b91506112a782611268565b602082019050919050565b5f6060820190506112c55f830185611070565b6112d260208301846110a9565b81810360408301526112e381611290565b90509392505050565b5f819050919050565b5f61130f61130a611305846112ec565b610ac3565b610aba565b9050919050565b61131f816112f5565b82525050565b5f6020820190506113385f830184611316565b92915050565b611347816112f5565b82525050565b7f42616c616e63652073686f756c6420626520302e3520455448206166746572205f8201527f7769746864726177616c00000000000000000000000000000000000000000000602082015250565b5f6113a7602a83610c50565b91506113b28261134d565b604082019050919050565b5f6060820190506113d05f830185611070565b6113dd602083018461133e565b81810360408301526113ee8161139b565b90509392505050565b7f436f6e74726163742073686f756c6420686176652072656365697665642045545f8201527f4800000000000000000000000000000000000000000000000000000000000000602082015250565b5f611451602183610c50565b915061145c826113f7565b604082019050919050565b5f60408201905061147a5f830184610e0a565b818103602083015261148b81611445565b90509291505056fe6080604052348015600e575f5ffd5b50335f5f6101000a81548173ffffffffffffffffffffffffffffffffffffffff021916908373ffffffffffffffffffffffffffffffffffffffff16021790555061081d8061005b5f395ff3fe608060405260043610610054575f3560e01c806327e235e3146100585780632e1a7d4d146100945780632e4176cf146100bc578063968ed600146100e6578063d0e30db014610110578063d624a4e01461011a575b5f5ffd5b348015610063575f5ffd5b5061007e600480360381019061007991906104cc565b610144565b60405161008b919061050f565b60405180910390f35b34801561009f575f5ffd5b506100ba60048036038101906100b59190610552565b610159565b005b3480156100c7575f5ffd5b506100d061033e565b6040516100dd919061058c565b60405180910390f35b3480156100f1575f5ffd5b506100fa610362565b604051610107919061050f565b60405180910390f35b610118610368565b005b348015610125575f5ffd5b5061012e610465565b60405161013b919061050f565b60405180910390f35b6001602052805f5260405f205f915090505481565b8060015f3373ffffffffffffffffffffffffffffffffffffffff1673ffffffffffffffffffffffffffffffffffffffff1681526020019081526020015f205410156101d9576040517f08c379a00000000000000000000000000000000000000000000000000000000081526004016101d090610625565b60405180910390fd5b8060015f3373ffffffffffffffffffffffffffffffffffffffff1673ffffffffffffffffffffffffffffffffffffffff1681526020019081526020015f205f8282546102259190610670565b925050819055508060025f82825461023d9190610670565b925050819055505f3373ffffffffffffffffffffffffffffffffffffffff1682604051610269906106d0565b5f6040518083038185875af1925050503d805f81146102a3576040519150601f19603f3d011682016040523d82523d5f602084013e6102a8565b606091505b50509050806102ec576040517f08c379a00000000000000000000000000000000000000000000000000000000081526004016102e39061072e565b60405180910390fd5b3373ffffffffffffffffffffffffffffffffffffffff167fbc158bb64f05d6383aea69bbb0b20c1bbf4b7a18f63359c5649b7c39e29d388483604051610332919061050f565b60405180910390a25050565b5f5f9054906101000a900473ffffffffffffffffffffffffffffffffffffffff1681565b60025481565b5f34116103aa576040517f08c379a00000000000000000000000000000000000000000000000000000000081526004016103a190610796565b60405180910390fd5b3460015f3373ffffffffffffffffffffffffffffffffffffffff1673ffffffffffffffffffffffffffffffffffffffff1681526020019081526020015f205f8282546103f691906107b4565b925050819055503460025f82825461040e91906107b4565b925050819055503373ffffffffffffffffffffffffffffffffffffffff167fd15c9547ea5c06670c0010ce19bc32d54682a4b3801ece7f3ab0c3f17106b4bb3460405161045b919061050f565b60405180910390a2565b5f600254905090565b5f5ffd5b5f73ffffffffffffffffffffffffffffffffffffffff82169050919050565b5f61049b82610472565b9050919050565b6104ab81610491565b81146104b5575f5ffd5b50565b5f813590506104c6816104a2565b92915050565b5f602082840312156104e1576104e061046e565b5b5f6104ee848285016104b8565b91505092915050565b5f819050919050565b610509816104f7565b82525050565b5f6020820190506105225f830184610500565b92915050565b610531816104f7565b811461053b575f5ffd5b50565b5f8135905061054c81610528565b92915050565b5f602082840312156105675761056661046e565b5b5f6105748482850161053e565b91505092915050565b61058681610491565b82525050565b5f60208201905061059f5f83018461057d565b92915050565b5f82825260208201905092915050565b7f496e73756666696369656e742062616c616e636520696e20796f7572206163635f8201527f6f756e7400000000000000000000000000000000000000000000000000000000602082015250565b5f61060f6024836105a5565b915061061a826105b5565b604082019050919050565b5f6020820190508181035f83015261063c81610603565b9050919050565b7f4e487b71000000000000000000000000000000000000000000000000000000005f52601160045260245ffd5b5f61067a826104f7565b9150610685836104f7565b925082820390508181111561069d5761069c610643565b5b92915050565b5f81905092915050565b50565b5f6106bb5f836106a3565b91506106c6826106ad565b5f82019050919050565b5f6106da826106b0565b9150819050919050565b7f5472616e73666572206661696c656400000000000000000000000000000000005f82015250565b5f610718600f836105a5565b9150610723826106e4565b602082019050919050565b5f6020820190508181035f8301526107458161070c565b9050919050565b7f596f75206d757374206465706f73697420736f6d6520455448000000000000005f82015250565b5f6107806019836105a5565b915061078b8261074c565b602082019050919050565b5f6020820190508181035f8301526107ad81610774565b9050919050565b5f6107be826104f7565b91506107c9836104f7565b92508282019050808211156107e1576107e0610643565b5b9291505056fea2646970667358221220ccabfb3527f332b5daa9629d5d99cf8546d8554bf78f1b15b6de05e52fa1316864736f6c634300081f0033a26469706673582212207ac3efff71ae582ba424e1b4418556f6409b3e5cb8be755155060aaf5caadd4464736f6c634300081f0033",
					"opcodes": "PUSH1 0x80 PUSH1 0x40 MSTORE CALLVALUE DUP1 ISZERO PUSH1 0xE JUMPI PUSH0 PUSH0 REVERT JUMPDEST POP PUSH2 0x1D41 DUP1 PUSH2 0x1C PUSH0 CODECOPY PUSH0 RETURN INVALID PUSH1 0x80 PUSH1 0x40 MSTORE PUSH1 0x4 CALLDATASIZE LT PUSH2 0x73 JUMPI PUSH0 CALLDATALOAD PUSH1 0xE0 SHR DUP1 PUSH4 0x7FEA0D4B GT PUSH2 0x4D JUMPI DUP1 PUSH4 0x7FEA0D4B EQ PUSH2 0xB4 JUMPI DUP1 PUSH4 0xB5B9AF13 EQ PUSH2 0xBE JUMPI DUP1 PUSH4 0xC417572C EQ PUSH2 0xD4 JUMPI DUP1 PUSH4 0xCC8AF67E EQ PUSH2 0xEA JUMPI PUSH2 0x7A JUMP JUMPDEST DUP1 PUSH4 0x3DD04A80 EQ PUSH2 0x7E JUMPI DUP1 PUSH4 0x5BC07A74 EQ PUSH2 0x94 JUMPI DUP1 PUSH4 0x7F924C4E EQ PUSH2 0xAA JUMPI PUSH2 0x7A JUMP JUMPDEST CALLDATASIZE PUSH2 0x7A JUMPI STOP JUMPDEST PUSH0 PUSH0 REVERT JUMPDEST CALLVALUE DUP1 ISZERO PUSH2 0x89 JUMPI PUSH0 PUSH0 REVERT JUMPDEST POP PUSH2 0x92 PUSH2 0x100 JUMP JUMPDEST STOP JUMPDEST CALLVALUE DUP1 ISZERO PUSH2 0x9F JUMPI PUSH0 PUSH0 REVERT JUMPDEST POP PUSH2 0xA8 PUSH2 0x2BA JUMP JUMPDEST STOP JUMPDEST PUSH2 0xB2 PUSH2 0x3C1 JUMP JUMPDEST STOP JUMPDEST PUSH2 0xBC PUSH2 0x560 JUMP JUMPDEST STOP JUMPDEST CALLVALUE DUP1 ISZERO PUSH2 0xC9 JUMPI PUSH0 PUSH0 REVERT JUMPDEST POP PUSH2 0xD2 PUSH2 0x5C6 JUMP JUMPDEST STOP JUMPDEST CALLVALUE DUP1 ISZERO PUSH2 0xDF JUMPI PUSH0 PUSH0 REVERT JUMPDEST POP PUSH2 0xE8 PUSH2 0x76F JUMP JUMPDEST STOP JUMPDEST CALLVALUE DUP1 ISZERO PUSH2 0xF5 JUMPI PUSH0 PUSH0 REVERT JUMPDEST POP PUSH2 0xFE PUSH2 0x87E JUMP JUMPDEST STOP JUMPDEST PUSH0 PUSH0 SWAP1 SLOAD SWAP1 PUSH2 0x100 EXP SWAP1 DIV PUSH20 0xFFFFFFFFFFFFFFFFFFFFFFFFFFFFFFFFFFFFFFFF AND PUSH20 0xFFFFFFFFFFFFFFFFFFFFFFFFFFFFFFFFFFFFFFFF AND PUSH4 0x2E1A7D4D PUSH8 0x8AC7230489E80000 PUSH1 0x40 MLOAD DUP3 PUSH4 0xFFFFFFFF AND PUSH1 0xE0 SHL DUP2 MSTORE PUSH1 0x4 ADD PUSH2 0x161 SWAP2 SWAP1 PUSH2 0xAFC JUMP JUMPDEST PUSH0 PUSH1 0x40 MLOAD DUP1 DUP4 SUB DUP2 PUSH0 DUP8 DUP1 EXTCODESIZE ISZERO DUP1 ISZERO PUSH2 0x178 JUMPI PUSH0 PUSH0 REVERT JUMPDEST POP GAS CALL SWAP3 POP POP POP DUP1 ISZERO PUSH2 0x189 JUMPI POP PUSH1 0x1 JUMPDEST PUSH2 0x240 JUMPI PUSH2 0x195 PUSH2 0xB21 JUMP JUMPDEST DUP1 PUSH4 0x8C379A0 SUB PUSH2 0x231 JUMPI POP PUSH2 0x1A9 PUSH2 0xBB7 JUMP JUMPDEST DUP1 PUSH2 0x1B4 JUMPI POP PUSH2 0x233 JUMP JUMPDEST PUSH20 0x0 PUSH4 0xE8C2CB16 DUP3 PUSH1 0x40 MLOAD DUP3 PUSH4 0xFFFFFFFF AND PUSH1 0xE0 SHL DUP2 MSTORE PUSH1 0x4 ADD PUSH2 0x1EB SWAP2 SWAP1 PUSH2 0xD60 JUMP JUMPDEST PUSH1 0x20 PUSH1 0x40 MLOAD DUP1 DUP4 SUB DUP2 DUP7 GAS DELEGATECALL ISZERO DUP1 ISZERO PUSH2 0x206 JUMPI RETURNDATASIZE PUSH0 PUSH0 RETURNDATACOPY RETURNDATASIZE PUSH0 REVERT JUMPDEST POP POP POP POP PUSH1 0x40 MLOAD RETURNDATASIZE PUSH1 0x1F NOT PUSH1 0x1F DUP3 ADD AND DUP3 ADD DUP1 PUSH1 0x40 MSTORE POP DUP2 ADD SWAP1 PUSH2 0x22A SWAP2 SWAP1 PUSH2 0xDDF JUMP JUMPDEST POP POP PUSH2 0x23B JUMP JUMPDEST POP JUMPDEST RETURNDATASIZE PUSH0 PUSH0 RETURNDATACOPY RETURNDATASIZE PUSH0 REVERT JUMPDEST PUSH2 0x2B8 JUMP JUMPDEST PUSH20 0x0 PUSH4 0x39DF137F PUSH0 PUSH1 0x40 MLOAD DUP3 PUSH4 0xFFFFFFFF AND PUSH1 0xE0 SHL DUP2 MSTORE PUSH1 0x4 ADD PUSH2 0x277 SWAP2 SWAP1 PUSH2 0xE89 JUMP JUMPDEST PUSH1 0x20 PUSH1 0x40 MLOAD DUP1 DUP4 SUB DUP2 DUP7 GAS DELEGATECALL ISZERO DUP1 ISZERO PUSH2 0x292 JUMPI RETURNDATASIZE PUSH0 PUSH0 RETURNDATACOPY RETURNDATASIZE PUSH0 REVERT JUMPDEST POP POP POP POP PUSH1 0x40 MLOAD RETURNDATASIZE PUSH1 0x1F NOT PUSH1 0x1F DUP3 ADD AND DUP3 ADD DUP1 PUSH1 0x40 MSTORE POP DUP2 ADD SWAP1 PUSH2 0x2B6 SWAP2 SWAP1 PUSH2 0xDDF JUMP JUMPDEST POP JUMPDEST JUMP JUMPDEST PUSH20 0x0 PUSH4 0xBFBA5DD6 PUSH0 PUSH0 SWAP1 SLOAD SWAP1 PUSH2 0x100 EXP SWAP1 DIV PUSH20 0xFFFFFFFFFFFFFFFFFFFFFFFFFFFFFFFFFFFFFFFF AND PUSH20 0xFFFFFFFFFFFFFFFFFFFFFFFFFFFFFFFFFFFFFFFF AND PUSH4 0x2E4176CF PUSH1 0x40 MLOAD DUP2 PUSH4 0xFFFFFFFF AND PUSH1 0xE0 SHL DUP2 MSTORE PUSH1 0x4 ADD PUSH1 0x20 PUSH1 0x40 MLOAD DUP1 DUP4 SUB DUP2 DUP7 GAS STATICCALL ISZERO DUP1 ISZERO PUSH2 0x33D JUMPI RETURNDATASIZE PUSH0 PUSH0 RETURNDATACOPY RETURNDATASIZE PUSH0 REVERT JUMPDEST POP POP POP POP PUSH1 0x40 MLOAD RETURNDATASIZE PUSH1 0x1F NOT PUSH1 0x1F DUP3 ADD AND DUP3 ADD DUP1 PUSH1 0x40 MSTORE POP DUP2 ADD SWAP1 PUSH2 0x361 SWAP2 SWAP1 PUSH2 0xF0F JUMP JUMPDEST ADDRESS PUSH1 0x40 MLOAD DUP4 PUSH4 0xFFFFFFFF AND PUSH1 0xE0 SHL DUP2 MSTORE PUSH1 0x4 ADD PUSH2 0x37F SWAP3 SWAP2 SWAP1 PUSH2 0xFB9 JUMP JUMPDEST PUSH1 0x20 PUSH1 0x40 MLOAD DUP1 DUP4 SUB DUP2 DUP7 GAS DELEGATECALL ISZERO DUP1 ISZERO PUSH2 0x39A JUMPI RETURNDATASIZE PUSH0 PUSH0 RETURNDATACOPY RETURNDATASIZE PUSH0 REVERT JUMPDEST POP POP POP POP PUSH1 0x40 MLOAD RETURNDATASIZE PUSH1 0x1F NOT PUSH1 0x1F DUP3 ADD AND DUP3 ADD DUP1 PUSH1 0x40 MSTORE POP DUP2 ADD SWAP1 PUSH2 0x3BE SWAP2 SWAP1 PUSH2 0xDDF JUMP JUMPDEST POP JUMP JUMPDEST PUSH0 PUSH0 SWAP1 SLOAD SWAP1 PUSH2 0x100 EXP SWAP1 DIV PUSH20 0xFFFFFFFFFFFFFFFFFFFFFFFFFFFFFFFFFFFFFFFF AND PUSH20 0xFFFFFFFFFFFFFFFFFFFFFFFFFFFFFFFFFFFFFFFF AND PUSH4 0xD0E30DB0 PUSH8 0xDE0B6B3A7640000 PUSH1 0x40 MLOAD DUP3 PUSH4 0xFFFFFFFF AND PUSH1 0xE0 SHL DUP2 MSTORE PUSH1 0x4 ADD PUSH0 PUSH1 0x40 MLOAD DUP1 DUP4 SUB DUP2 DUP6 DUP9 DUP1 EXTCODESIZE ISZERO DUP1 ISZERO PUSH2 0x42F JUMPI PUSH0 PUSH0 REVERT JUMPDEST POP GAS CALL ISZERO DUP1 ISZERO PUSH2 0x441 JUMPI RETURNDATASIZE PUSH0 PUSH0 RETURNDATACOPY RETURNDATASIZE PUSH0 REVERT JUMPDEST POP POP POP POP POP PUSH20 0x0 PUSH4 0xABCD7960 PUSH0 PUSH0 SWAP1 SLOAD SWAP1 PUSH2 0x100 EXP SWAP1 DIV PUSH20 0xFFFFFFFFFFFFFFFFFFFFFFFFFFFFFFFFFFFFFFFF AND PUSH20 0xFFFFFFFFFFFFFFFFFFFFFFFFFFFFFFFFFFFFFFFF AND PUSH4 0x27E235E3 ADDRESS PUSH1 0x40 MLOAD DUP3 PUSH4 0xFFFFFFFF AND PUSH1 0xE0 SHL DUP2 MSTORE PUSH1 0x4 ADD PUSH2 0x4B9 SWAP2 SWAP1 PUSH2 0x1002 JUMP JUMPDEST PUSH1 0x20 PUSH1 0x40 MLOAD DUP1 DUP4 SUB DUP2 DUP7 GAS STATICCALL ISZERO DUP1 ISZERO PUSH2 0x4D4 JUMPI RETURNDATASIZE PUSH0 PUSH0 RETURNDATACOPY RETURNDATASIZE PUSH0 REVERT JUMPDEST POP POP POP POP PUSH1 0x40 MLOAD RETURNDATASIZE PUSH1 0x1F NOT PUSH1 0x1F DUP3 ADD AND DUP3 ADD DUP1 PUSH1 0x40 MSTORE POP DUP2 ADD SWAP1 PUSH2 0x4F8 SWAP2 SWAP1 PUSH2 0x1045 JUMP JUMPDEST PUSH8 0xDE0B6B3A7640000 PUSH1 0x40 MLOAD DUP4 PUSH4 0xFFFFFFFF AND PUSH1 0xE0 SHL DUP2 MSTORE PUSH1 0x4 ADD PUSH2 0x51E SWAP3 SWAP2 SWAP1 PUSH2 0x1102 JUMP JUMPDEST PUSH1 0x20 PUSH1 0x40 MLOAD DUP1 DUP4 SUB DUP2 DUP7 GAS DELEGATECALL ISZERO DUP1 ISZERO PUSH2 0x539 JUMPI RETURNDATASIZE PUSH0 PUSH0 RETURNDATACOPY RETURNDATASIZE PUSH0 REVERT JUMPDEST POP POP POP POP PUSH1 0x40 MLOAD RETURNDATASIZE PUSH1 0x1F NOT PUSH1 0x1F DUP3 ADD AND DUP3 ADD DUP1 PUSH1 0x40 MSTORE POP DUP2 ADD SWAP1 PUSH2 0x55D SWAP2 SWAP1 PUSH2 0xDDF JUMP JUMPDEST POP JUMP JUMPDEST PUSH1 0x40 MLOAD PUSH2 0x56C SWAP1 PUSH2 0xAA4 JUMP JUMPDEST PUSH1 0x40 MLOAD DUP1 SWAP2 SUB SWAP1 PUSH0 CREATE DUP1 ISZERO DUP1 ISZERO PUSH2 0x585 JUMPI RETURNDATASIZE PUSH0 PUSH0 RETURNDATACOPY RETURNDATASIZE PUSH0 REVERT JUMPDEST POP PUSH0 PUSH0 PUSH2 0x100 EXP DUP2 SLOAD DUP2 PUSH20 0xFFFFFFFFFFFFFFFFFFFFFFFFFFFFFFFFFFFFFFFF MUL NOT AND SWAP1 DUP4 PUSH20 0xFFFFFFFFFFFFFFFFFFFFFFFFFFFFFFFFFFFFFFFF AND MUL OR SWAP1 SSTORE POP JUMP JUMPDEST PUSH0 PUSH0 SWAP1 SLOAD SWAP1 PUSH2 0x100 EXP SWAP1 DIV PUSH20 0xFFFFFFFFFFFFFFFFFFFFFFFFFFFFFFFFFFFFFFFF AND PUSH20 0xFFFFFFFFFFFFFFFFFFFFFFFFFFFFFFFFFFFFFFFF AND PUSH4 0xD0E30DB0 PUSH0 PUSH1 0x40 MLOAD DUP3 PUSH4 0xFFFFFFFF AND PUSH1 0xE0 SHL DUP2 MSTORE PUSH1 0x4 ADD PUSH0 PUSH1 0x40 MLOAD DUP1 DUP4 SUB DUP2 DUP6 DUP9 DUP1 EXTCODESIZE ISZERO DUP1 ISZERO PUSH2 0x62C JUMPI PUSH0 PUSH0 REVERT JUMPDEST POP GAS CALL SWAP4 POP POP POP POP DUP1 ISZERO PUSH2 0x63E JUMPI POP PUSH1 0x1 JUMPDEST PUSH2 0x6F5 JUMPI PUSH2 0x64A PUSH2 0xB21 JUMP JUMPDEST DUP1 PUSH4 0x8C379A0 SUB PUSH2 0x6E6 JUMPI POP PUSH2 0x65E PUSH2 0xBB7 JUMP JUMPDEST DUP1 PUSH2 0x669 JUMPI POP PUSH2 0x6E8 JUMP JUMPDEST PUSH20 0x0 PUSH4 0xE8C2CB16 DUP3 PUSH1 0x40 MLOAD DUP3 PUSH4 0xFFFFFFFF AND PUSH1 0xE0 SHL DUP2 MSTORE PUSH1 0x4 ADD PUSH2 0x6A0 SWAP2 SWAP1 PUSH2 0x1186 JUMP JUMPDEST PUSH1 0x20 PUSH1 0x40 MLOAD DUP1 DUP4 SUB DUP2 DUP7 GAS DELEGATECALL ISZERO DUP1 ISZERO PUSH2 0x6BB JUMPI RETURNDATASIZE PUSH0 PUSH0 RETURNDATACOPY RETURNDATASIZE PUSH0 REVERT JUMPDEST POP POP POP POP PUSH1 0x40 MLOAD RETURNDATASIZE PUSH1 0x1F NOT PUSH1 0x1F DUP3 ADD AND DUP3 ADD DUP1 PUSH1 0x40 MSTORE POP DUP2 ADD SWAP1 PUSH2 0x6DF SWAP2 SWAP1 PUSH2 0xDDF JUMP JUMPDEST POP POP PUSH2 0x6F0 JUMP JUMPDEST POP JUMPDEST RETURNDATASIZE PUSH0 PUSH0 RETURNDATACOPY RETURNDATASIZE PUSH0 REVERT JUMPDEST PUSH2 0x76D JUMP JUMPDEST PUSH20 0x0 PUSH4 0x39DF137F PUSH0 PUSH1 0x40 MLOAD DUP3 PUSH4 0xFFFFFFFF AND PUSH1 0xE0 SHL DUP2 MSTORE PUSH1 0x4 ADD PUSH2 0x72C SWAP2 SWAP1 PUSH2 0x123C JUMP JUMPDEST PUSH1 0x20 PUSH1 0x40 MLOAD DUP1 DUP4 SUB DUP2 DUP7 GAS DELEGATECALL ISZERO DUP1 ISZERO PUSH2 0x747 JUMPI RETURNDATASIZE PUSH0 PUSH0 RETURNDATACOPY RETURNDATASIZE PUSH0 REVERT JUMPDEST POP POP POP POP PUSH1 0x40 MLOAD RETURNDATASIZE PUSH1 0x1F NOT PUSH1 0x1F DUP3 ADD AND DUP3 ADD DUP1 PUSH1 0x40 MSTORE POP DUP2 ADD SWAP1 PUSH2 0x76B SWAP2 SWAP1 PUSH2 0xDDF JUMP JUMPDEST POP JUMPDEST JUMP JUMPDEST PUSH20 0x0 PUSH4 0xABCD7960 PUSH0 PUSH0 SWAP1 SLOAD SWAP1 PUSH2 0x100 EXP SWAP1 DIV PUSH20 0xFFFFFFFFFFFFFFFFFFFFFFFFFFFFFFFFFFFFFFFF AND PUSH20 0xFFFFFFFFFFFFFFFFFFFFFFFFFFFFFFFFFFFFFFFF AND PUSH4 0xD624A4E0 PUSH1 0x40 MLOAD DUP2 PUSH4 0xFFFFFFFF AND PUSH1 0xE0 SHL DUP2 MSTORE PUSH1 0x4 ADD PUSH1 0x20 PUSH1 0x40 MLOAD DUP1 DUP4 SUB DUP2 DUP7 GAS STATICCALL ISZERO DUP1 ISZERO PUSH2 0x7F2 JUMPI RETURNDATASIZE PUSH0 PUSH0 RETURNDATACOPY RETURNDATASIZE PUSH0 REVERT JUMPDEST POP POP POP POP PUSH1 0x40 MLOAD RETURNDATASIZE PUSH1 0x1F NOT PUSH1 0x1F DUP3 ADD AND DUP3 ADD DUP1 PUSH1 0x40 MSTORE POP DUP2 ADD SWAP1 PUSH2 0x816 SWAP2 SWAP1 PUSH2 0x1045 JUMP JUMPDEST PUSH8 0xDE0B6B3A7640000 PUSH1 0x40 MLOAD DUP4 PUSH4 0xFFFFFFFF AND PUSH1 0xE0 SHL DUP2 MSTORE PUSH1 0x4 ADD PUSH2 0x83C SWAP3 SWAP2 SWAP1 PUSH2 0x12B2 JUMP JUMPDEST PUSH1 0x20 PUSH1 0x40 MLOAD DUP1 DUP4 SUB DUP2 DUP7 GAS DELEGATECALL ISZERO DUP1 ISZERO PUSH2 0x857 JUMPI RETURNDATASIZE PUSH0 PUSH0 RETURNDATACOPY RETURNDATASIZE PUSH0 REVERT JUMPDEST POP POP POP POP PUSH1 0x40 MLOAD RETURNDATASIZE PUSH1 0x1F NOT PUSH1 0x1F DUP3 ADD AND DUP3 ADD DUP1 PUSH1 0x40 MSTORE POP DUP2 ADD SWAP1 PUSH2 0x87B SWAP2 SWAP1 PUSH2 0xDDF JUMP JUMPDEST POP JUMP JUMPDEST PUSH0 SELFBALANCE SWAP1 POP PUSH0 PUSH0 SWAP1 SLOAD SWAP1 PUSH2 0x100 EXP SWAP1 DIV PUSH20 0xFFFFFFFFFFFFFFFFFFFFFFFFFFFFFFFFFFFFFFFF AND PUSH20 0xFFFFFFFFFFFFFFFFFFFFFFFFFFFFFFFFFFFFFFFF AND PUSH4 0x2E1A7D4D PUSH8 0x6F05B59D3B20000 PUSH1 0x40 MLOAD DUP3 PUSH4 0xFFFFFFFF AND PUSH1 0xE0 SHL DUP2 MSTORE PUSH1 0x4 ADD PUSH2 0x8E3 SWAP2 SWAP1 PUSH2 0x1325 JUMP JUMPDEST PUSH0 PUSH1 0x40 MLOAD DUP1 DUP4 SUB DUP2 PUSH0 DUP8 DUP1 EXTCODESIZE ISZERO DUP1 ISZERO PUSH2 0x8FA JUMPI PUSH0 PUSH0 REVERT JUMPDEST POP GAS CALL ISZERO DUP1 ISZERO PUSH2 0x90C JUMPI RETURNDATASIZE PUSH0 PUSH0 RETURNDATACOPY RETURNDATASIZE PUSH0 REVERT JUMPDEST POP POP POP POP PUSH20 0x0 PUSH4 0xABCD7960 PUSH0 PUSH0 SWAP1 SLOAD SWAP1 PUSH2 0x100 EXP SWAP1 DIV PUSH20 0xFFFFFFFFFFFFFFFFFFFFFFFFFFFFFFFFFFFFFFFF AND PUSH20 0xFFFFFFFFFFFFFFFFFFFFFFFFFFFFFFFFFFFFFFFF AND PUSH4 0x27E235E3 ADDRESS PUSH1 0x40 MLOAD DUP3 PUSH4 0xFFFFFFFF AND PUSH1 0xE0 SHL DUP2 MSTORE PUSH1 0x4 ADD PUSH2 0x983 SWAP2 SWAP1 PUSH2 0x1002 JUMP JUMPDEST PUSH1 0x20 PUSH1 0x40 MLOAD DUP1 DUP4 SUB DUP2 DUP7 GAS STATICCALL ISZERO DUP1 ISZERO PUSH2 0x99E JUMPI RETURNDATASIZE PUSH0 PUSH0 RETURNDATACOPY RETURNDATASIZE PUSH0 REVERT JUMPDEST POP POP POP POP PUSH1 0x40 MLOAD RETURNDATASIZE PUSH1 0x1F NOT PUSH1 0x1F DUP3 ADD AND DUP3 ADD DUP1 PUSH1 0x40 MSTORE POP DUP2 ADD SWAP1 PUSH2 0x9C2 SWAP2 SWAP1 PUSH2 0x1045 JUMP JUMPDEST PUSH8 0x6F05B59D3B20000 PUSH1 0x40 MLOAD DUP4 PUSH4 0xFFFFFFFF AND PUSH1 0xE0 SHL DUP2 MSTORE PUSH1 0x4 ADD PUSH2 0x9E8 SWAP3 SWAP2 SWAP1 PUSH2 0x13BD JUMP JUMPDEST PUSH1 0x20 PUSH1 0x40 MLOAD DUP1 DUP4 SUB DUP2 DUP7 GAS DELEGATECALL ISZERO DUP1 ISZERO PUSH2 0xA03 JUMPI RETURNDATASIZE PUSH0 PUSH0 RETURNDATACOPY RETURNDATASIZE PUSH0 REVERT JUMPDEST POP POP POP POP PUSH1 0x40 MLOAD RETURNDATASIZE PUSH1 0x1F NOT PUSH1 0x1F DUP3 ADD AND DUP3 ADD DUP1 PUSH1 0x40 MSTORE POP DUP2 ADD SWAP1 PUSH2 0xA27 SWAP2 SWAP1 PUSH2 0xDDF JUMP JUMPDEST POP PUSH20 0x0 PUSH4 0x39DF137F DUP3 SELFBALANCE GT PUSH1 0x40 MLOAD DUP3 PUSH4 0xFFFFFFFF AND PUSH1 0xE0 SHL DUP2 MSTORE PUSH1 0x4 ADD PUSH2 0xA61 SWAP2 SWAP1 PUSH2 0x1467 JUMP JUMPDEST PUSH1 0x20 PUSH1 0x40 MLOAD DUP1 DUP4 SUB DUP2 DUP7 GAS DELEGATECALL ISZERO DUP1 ISZERO PUSH2 0xA7C JUMPI RETURNDATASIZE PUSH0 PUSH0 RETURNDATACOPY RETURNDATASIZE PUSH0 REVERT JUMPDEST POP POP POP POP PUSH1 0x40 MLOAD RETURNDATASIZE PUSH1 0x1F NOT PUSH1 0x1F DUP3 ADD AND DUP3 ADD DUP1 PUSH1 0x40 MSTORE POP DUP2 ADD SWAP1 PUSH2 0xAA0 SWAP2 SWAP1 PUSH2 0xDDF JUMP JUMPDEST POP POP JUMP JUMPDEST PUSH2 0x878 DUP1 PUSH2 0x1494 DUP4 CODECOPY ADD SWAP1 JUMP JUMPDEST PUSH0 DUP2 SWAP1 POP SWAP2 SWAP1 POP JUMP JUMPDEST PUSH0 DUP2 SWAP1 POP SWAP2 SWAP1 POP JUMP JUMPDEST PUSH0 DUP2 SWAP1 POP SWAP2 SWAP1 POP JUMP JUMPDEST PUSH0 PUSH2 0xAE6 PUSH2 0xAE1 PUSH2 0xADC DUP5 PUSH2 0xAB1 JUMP JUMPDEST PUSH2 0xAC3 JUMP JUMPDEST PUSH2 0xABA JUMP JUMPDEST SWAP1 POP SWAP2 SWAP1 POP JUMP JUMPDEST PUSH2 0xAF6 DUP2 PUSH2 0xACC JUMP JUMPDEST DUP3 MSTORE POP POP JUMP JUMPDEST PUSH0 PUSH1 0x20 DUP3 ADD SWAP1 POP PUSH2 0xB0F PUSH0 DUP4 ADD DUP5 PUSH2 0xAED JUMP JUMPDEST SWAP3 SWAP2 POP POP JUMP JUMPDEST PUSH0 DUP2 PUSH1 0xE0 SHR SWAP1 POP SWAP2 SWAP1 POP JUMP JUMPDEST PUSH0 PUSH1 0x3 RETURNDATASIZE GT ISZERO PUSH2 0xB3D JUMPI PUSH1 0x4 PUSH0 PUSH0 RETURNDATACOPY PUSH2 0xB3A PUSH0 MLOAD PUSH2 0xB15 JUMP JUMPDEST SWAP1 POP JUMPDEST SWAP1 JUMP JUMPDEST PUSH0 PUSH1 0x40 MLOAD SWAP1 POP SWAP1 JUMP JUMPDEST PUSH0 PUSH1 0x1F NOT PUSH1 0x1F DUP4 ADD AND SWAP1 POP SWAP2 SWAP1 POP JUMP JUMPDEST PUSH32 0x4E487B7100000000000000000000000000000000000000000000000000000000 PUSH0 MSTORE PUSH1 0x41 PUSH1 0x4 MSTORE PUSH1 0x24 PUSH0 REVERT JUMPDEST PUSH2 0xB8F DUP3 PUSH2 0xB49 JUMP JUMPDEST DUP2 ADD DUP2 DUP2 LT PUSH8 0xFFFFFFFFFFFFFFFF DUP3 GT OR ISZERO PUSH2 0xBAE JUMPI PUSH2 0xBAD PUSH2 0xB59 JUMP JUMPDEST JUMPDEST DUP1 PUSH1 0x40 MSTORE POP POP POP JUMP JUMPDEST PUSH0 PUSH1 0x44 RETURNDATASIZE LT PUSH2 0xC43 JUMPI PUSH2 0xBC8 PUSH2 0xB40 JUMP JUMPDEST PUSH1 0x4 RETURNDATASIZE SUB PUSH1 0x4 DUP3 RETURNDATACOPY DUP1 MLOAD RETURNDATASIZE PUSH1 0x24 DUP3 ADD GT PUSH8 0xFFFFFFFFFFFFFFFF DUP3 GT OR ISZERO PUSH2 0xBF0 JUMPI POP POP PUSH2 0xC43 JUMP JUMPDEST DUP1 DUP3 ADD DUP1 MLOAD PUSH8 0xFFFFFFFFFFFFFFFF DUP2 GT ISZERO PUSH2 0xC0E JUMPI POP POP POP POP PUSH2 0xC43 JUMP JUMPDEST DUP1 PUSH1 0x20 DUP4 ADD ADD PUSH1 0x4 RETURNDATASIZE SUB DUP6 ADD DUP2 GT ISZERO PUSH2 0xC2B JUMPI POP POP POP POP POP PUSH2 0xC43 JUMP JUMPDEST PUSH2 0xC3A DUP3 PUSH1 0x20 ADD DUP6 ADD DUP7 PUSH2 0xB86 JUMP JUMPDEST DUP3 SWAP6 POP POP POP POP POP POP JUMPDEST SWAP1 JUMP JUMPDEST PUSH0 DUP2 MLOAD SWAP1 POP SWAP2 SWAP1 POP JUMP JUMPDEST PUSH0 DUP3 DUP3 MSTORE PUSH1 0x20 DUP3 ADD SWAP1 POP SWAP3 SWAP2 POP POP JUMP JUMPDEST DUP3 DUP2 DUP4 MCOPY PUSH0 DUP4 DUP4 ADD MSTORE POP POP POP JUMP JUMPDEST PUSH0 PUSH2 0xC78 DUP3 PUSH2 0xC46 JUMP JUMPDEST PUSH2 0xC82 DUP2 DUP6 PUSH2 0xC50 JUMP JUMPDEST SWAP4 POP PUSH2 0xC92 DUP2 DUP6 PUSH1 0x20 DUP7 ADD PUSH2 0xC60 JUMP JUMPDEST PUSH2 0xC9B DUP2 PUSH2 0xB49 JUMP JUMPDEST DUP5 ADD SWAP2 POP POP SWAP3 SWAP2 POP POP JUMP JUMPDEST PUSH32 0x496E73756666696369656E742062616C616E636520696E20796F757220616363 PUSH0 DUP3 ADD MSTORE PUSH32 0x6F756E7400000000000000000000000000000000000000000000000000000000 PUSH1 0x20 DUP3 ADD MSTORE POP JUMP JUMPDEST PUSH0 PUSH2 0xD00 PUSH1 0x24 DUP4 PUSH2 0xC50 JUMP JUMPDEST SWAP2 POP PUSH2 0xD0B DUP3 PUSH2 0xCA6 JUMP JUMPDEST PUSH1 0x40 DUP3 ADD SWAP1 POP SWAP2 SWAP1 POP JUMP JUMPDEST PUSH32 0x57726F6E672072657665727420726561736F6E00000000000000000000000000 PUSH0 DUP3 ADD MSTORE POP JUMP JUMPDEST PUSH0 PUSH2 0xD4A PUSH1 0x13 DUP4 PUSH2 0xC50 JUMP JUMPDEST SWAP2 POP PUSH2 0xD55 DUP3 PUSH2 0xD16 JUMP JUMPDEST PUSH1 0x20 DUP3 ADD SWAP1 POP SWAP2 SWAP1 POP JUMP JUMPDEST PUSH0 PUSH1 0x60 DUP3 ADD SWAP1 POP DUP2 DUP2 SUB PUSH0 DUP4 ADD MSTORE PUSH2 0xD78 DUP2 DUP5 PUSH2 0xC6E JUMP JUMPDEST SWAP1 POP DUP2 DUP2 SUB PUSH1 0x20 DUP4 ADD MSTORE PUSH2 0xD8B DUP2 PUSH2 0xCF4 JUMP JUMPDEST SWAP1 POP DUP2 DUP2 SUB PUSH1 0x40 DUP4 ADD MSTORE PUSH2 0xD9E DUP2 PUSH2 0xD3E JUMP JUMPDEST SWAP1 POP SWAP3 SWAP2 POP POP JUMP JUMPDEST PUSH0 PUSH0 REVERT JUMPDEST PUSH0 DUP2 ISZERO ISZERO SWAP1 POP SWAP2 SWAP1 POP JUMP JUMPDEST PUSH2 0xDBE DUP2 PUSH2 0xDAA JUMP JUMPDEST DUP2 EQ PUSH2 0xDC8 JUMPI PUSH0 PUSH0 REVERT JUMPDEST POP JUMP JUMPDEST PUSH0 DUP2 MLOAD SWAP1 POP PUSH2 0xDD9 DUP2 PUSH2 0xDB5 JUMP JUMPDEST SWAP3 SWAP2 POP POP JUMP JUMPDEST PUSH0 PUSH1 0x20 DUP3 DUP5 SUB SLT ISZERO PUSH2 0xDF4 JUMPI PUSH2 0xDF3 PUSH2 0xDA6 JUMP JUMPDEST JUMPDEST PUSH0 PUSH2 0xE01 DUP5 DUP3 DUP6 ADD PUSH2 0xDCB JUMP JUMPDEST SWAP2 POP POP SWAP3 SWAP2 POP POP JUMP JUMPDEST PUSH2 0xE13 DUP2 PUSH2 0xDAA JUMP JUMPDEST DUP3 MSTORE POP POP JUMP JUMPDEST PUSH32 0x53686F756C64206861766520726576657274656420666F72206F7665722D7769 PUSH0 DUP3 ADD MSTORE PUSH32 0x746864726177696E670000000000000000000000000000000000000000000000 PUSH1 0x20 DUP3 ADD MSTORE POP JUMP JUMPDEST PUSH0 PUSH2 0xE73 PUSH1 0x29 DUP4 PUSH2 0xC50 JUMP JUMPDEST SWAP2 POP PUSH2 0xE7E DUP3 PUSH2 0xE19 JUMP JUMPDEST PUSH1 0x40 DUP3 ADD SWAP1 POP SWAP2 SWAP1 POP JUMP JUMPDEST PUSH0 PUSH1 0x40 DUP3 ADD SWAP1 POP PUSH2 0xE9C PUSH0 DUP4 ADD DUP5 PUSH2 0xE0A JUMP JUMPDEST DUP2 DUP2 SUB PUSH1 0x20 DUP4 ADD MSTORE PUSH2 0xEAD DUP2 PUSH2 0xE67 JUMP JUMPDEST SWAP1 POP SWAP3 SWAP2 POP POP JUMP JUMPDEST PUSH0 PUSH20 0xFFFFFFFFFFFFFFFFFFFFFFFFFFFFFFFFFFFFFFFF DUP3 AND SWAP1 POP SWAP2 SWAP1 POP JUMP JUMPDEST PUSH0 PUSH2 0xEDE DUP3 PUSH2 0xEB5 JUMP JUMPDEST SWAP1 POP SWAP2 SWAP1 POP JUMP JUMPDEST PUSH2 0xEEE DUP2 PUSH2 0xED4 JUMP JUMPDEST DUP2 EQ PUSH2 0xEF8 JUMPI PUSH0 PUSH0 REVERT JUMPDEST POP JUMP JUMPDEST PUSH0 DUP2 MLOAD SWAP1 POP PUSH2 0xF09 DUP2 PUSH2 0xEE5 JUMP JUMPDEST SWAP3 SWAP2 POP POP JUMP JUMPDEST PUSH0 PUSH1 0x20 DUP3 DUP5 SUB SLT ISZERO PUSH2 0xF24 JUMPI PUSH2 0xF23 PUSH2 0xDA6 JUMP JUMPDEST JUMPDEST PUSH0 PUSH2 0xF31 DUP5 DUP3 DUP6 ADD PUSH2 0xEFB JUMP JUMPDEST SWAP2 POP POP SWAP3 SWAP2 POP POP JUMP JUMPDEST PUSH2 0xF43 DUP2 PUSH2 0xED4 JUMP JUMPDEST DUP3 MSTORE POP POP JUMP JUMPDEST PUSH32 0x4368616972706572736F6E2073686F756C6420626520746865206465706C6F79 PUSH0 DUP3 ADD MSTORE PUSH32 0x6572000000000000000000000000000000000000000000000000000000000000 PUSH1 0x20 DUP3 ADD MSTORE POP JUMP JUMPDEST PUSH0 PUSH2 0xFA3 PUSH1 0x22 DUP4 PUSH2 0xC50 JUMP JUMPDEST SWAP2 POP PUSH2 0xFAE DUP3 PUSH2 0xF49 JUMP JUMPDEST PUSH1 0x40 DUP3 ADD SWAP1 POP SWAP2 SWAP1 POP JUMP JUMPDEST PUSH0 PUSH1 0x60 DUP3 ADD SWAP1 POP PUSH2 0xFCC PUSH0 DUP4 ADD DUP6 PUSH2 0xF3A JUMP JUMPDEST PUSH2 0xFD9 PUSH1 0x20 DUP4 ADD DUP5 PUSH2 0xF3A JUMP JUMPDEST DUP2 DUP2 SUB PUSH1 0x40 DUP4 ADD MSTORE PUSH2 0xFEA DUP2 PUSH2 0xF97 JUMP JUMPDEST SWAP1 POP SWAP4 SWAP3 POP POP POP JUMP JUMPDEST PUSH2 0xFFC DUP2 PUSH2 0xED4 JUMP JUMPDEST DUP3 MSTORE POP POP JUMP JUMPDEST PUSH0 PUSH1 0x20 DUP3 ADD SWAP1 POP PUSH2 0x1015 PUSH0 DUP4 ADD DUP5 PUSH2 0xFF3 JUMP JUMPDEST SWAP3 SWAP2 POP POP JUMP JUMPDEST PUSH2 0x1024 DUP2 PUSH2 0xABA JUMP JUMPDEST DUP2 EQ PUSH2 0x102E JUMPI PUSH0 PUSH0 REVERT JUMPDEST POP JUMP JUMPDEST PUSH0 DUP2 MLOAD SWAP1 POP PUSH2 0x103F DUP2 PUSH2 0x101B JUMP JUMPDEST SWAP3 SWAP2 POP POP JUMP JUMPDEST PUSH0 PUSH1 0x20 DUP3 DUP5 SUB SLT ISZERO PUSH2 0x105A JUMPI PUSH2 0x1059 PUSH2 0xDA6 JUMP JUMPDEST JUMPDEST PUSH0 PUSH2 0x1067 DUP5 DUP3 DUP6 ADD PUSH2 0x1031 JUMP JUMPDEST SWAP2 POP POP SWAP3 SWAP2 POP POP JUMP JUMPDEST PUSH2 0x1079 DUP2 PUSH2 0xABA JUMP JUMPDEST DUP3 MSTORE POP POP JUMP JUMPDEST PUSH0 DUP2 SWAP1 POP SWAP2 SWAP1 POP JUMP JUMPDEST PUSH0 PUSH2 0x10A2 PUSH2 0x109D PUSH2 0x1098 DUP5 PUSH2 0x107F JUMP JUMPDEST PUSH2 0xAC3 JUMP JUMPDEST PUSH2 0xABA JUMP JUMPDEST SWAP1 POP SWAP2 SWAP1 POP JUMP JUMPDEST PUSH2 0x10B2 DUP2 PUSH2 0x1088 JUMP JUMPDEST DUP3 MSTORE POP POP JUMP JUMPDEST PUSH32 0x42616C616E63652073686F756C64206265203120455448000000000000000000 PUSH0 DUP3 ADD MSTORE POP JUMP JUMPDEST PUSH0 PUSH2 0x10EC PUSH1 0x17 DUP4 PUSH2 0xC50 JUMP JUMPDEST SWAP2 POP PUSH2 0x10F7 DUP3 PUSH2 0x10B8 JUMP JUMPDEST PUSH1 0x20 DUP3 ADD SWAP1 POP SWAP2 SWAP1 POP JUMP JUMPDEST PUSH0 PUSH1 0x60 DUP3 ADD SWAP1 POP PUSH2 0x1115 PUSH0 DUP4 ADD DUP6 PUSH2 0x1070 JUMP JUMPDEST PUSH2 0x1122 PUSH1 0x20 DUP4 ADD DUP5 PUSH2 0x10A9 JUMP JUMPDEST DUP2 DUP2 SUB PUSH1 0x40 DUP4 ADD MSTORE PUSH2 0x1133 DUP2 PUSH2 0x10E0 JUMP JUMPDEST SWAP1 POP SWAP4 SWAP3 POP POP POP JUMP JUMPDEST PUSH32 0x596F75206D757374206465706F73697420736F6D652045544800000000000000 PUSH0 DUP3 ADD MSTORE POP JUMP JUMPDEST PUSH0 PUSH2 0x1170 PUSH1 0x19 DUP4 PUSH2 0xC50 JUMP JUMPDEST SWAP2 POP PUSH2 0x117B DUP3 PUSH2 0x113C JUMP JUMPDEST PUSH1 0x20 DUP3 ADD SWAP1 POP SWAP2 SWAP1 POP JUMP JUMPDEST PUSH0 PUSH1 0x60 DUP3 ADD SWAP1 POP DUP2 DUP2 SUB PUSH0 DUP4 ADD MSTORE PUSH2 0x119E DUP2 DUP5 PUSH2 0xC6E JUMP JUMPDEST SWAP1 POP DUP2 DUP2 SUB PUSH1 0x20 DUP4 ADD MSTORE PUSH2 0x11B1 DUP2 PUSH2 0x1164 JUMP JUMPDEST SWAP1 POP DUP2 DUP2 SUB PUSH1 0x40 DUP4 ADD MSTORE PUSH2 0x11C4 DUP2 PUSH2 0xD3E JUMP JUMPDEST SWAP1 POP SWAP3 SWAP2 POP POP JUMP JUMPDEST PUSH32 0x53686F756C642068617665207265766572746564206F6E2030206465706F7369 PUSH0 DUP3 ADD MSTORE PUSH32 0x7400000000000000000000000000000000000000000000000000000000000000 PUSH1 0x20 DUP3 ADD MSTORE POP JUMP JUMPDEST PUSH0 PUSH2 0x1226 PUSH1 0x21 DUP4 PUSH2 0xC50 JUMP JUMPDEST SWAP2 POP PUSH2 0x1231 DUP3 PUSH2 0x11CC JUMP JUMPDEST PUSH1 0x40 DUP3 ADD SWAP1 POP SWAP2 SWAP1 POP JUMP JUMPDEST PUSH0 PUSH1 0x40 DUP3 ADD SWAP1 POP PUSH2 0x124F PUSH0 DUP4 ADD DUP5 PUSH2 0xE0A JUMP JUMPDEST DUP2 DUP2 SUB PUSH1 0x20 DUP4 ADD MSTORE PUSH2 0x1260 DUP2 PUSH2 0x121A JUMP JUMPDEST SWAP1 POP SWAP3 SWAP2 POP POP JUMP JUMPDEST PUSH32 0x546F74616C2066756E64732073686F756C642062652031204554480000000000 PUSH0 DUP3 ADD MSTORE POP JUMP JUMPDEST PUSH0 PUSH2 0x129C PUSH1 0x1B DUP4 PUSH2 0xC50 JUMP JUMPDEST SWAP2 POP PUSH2 0x12A7 DUP3 PUSH2 0x1268 JUMP JUMPDEST PUSH1 0x20 DUP3 ADD SWAP1 POP SWAP2 SWAP1 POP JUMP JUMPDEST PUSH0 PUSH1 0x60 DUP3 ADD SWAP1 POP PUSH2 0x12C5 PUSH0 DUP4 ADD DUP6 PUSH2 0x1070 JUMP JUMPDEST PUSH2 0x12D2 PUSH1 0x20 DUP4 ADD DUP5 PUSH2 0x10A9 JUMP JUMPDEST DUP2 DUP2 SUB PUSH1 0x40 DUP4 ADD MSTORE PUSH2 0x12E3 DUP2 PUSH2 0x1290 JUMP JUMPDEST SWAP1 POP SWAP4 SWAP3 POP POP POP JUMP JUMPDEST PUSH0 DUP2 SWAP1 POP SWAP2 SWAP1 POP JUMP JUMPDEST PUSH0 PUSH2 0x130F PUSH2 0x130A PUSH2 0x1305 DUP5 PUSH2 0x12EC JUMP JUMPDEST PUSH2 0xAC3 JUMP JUMPDEST PUSH2 0xABA JUMP JUMPDEST SWAP1 POP SWAP2 SWAP1 POP JUMP JUMPDEST PUSH2 0x131F DUP2 PUSH2 0x12F5 JUMP JUMPDEST DUP3 MSTORE POP POP JUMP JUMPDEST PUSH0 PUSH1 0x20 DUP3 ADD SWAP1 POP PUSH2 0x1338 PUSH0 DUP4 ADD DUP5 PUSH2 0x1316 JUMP JUMPDEST SWAP3 SWAP2 POP POP JUMP JUMPDEST PUSH2 0x1347 DUP2 PUSH2 0x12F5 JUMP JUMPDEST DUP3 MSTORE POP POP JUMP JUMPDEST PUSH32 0x42616C616E63652073686F756C6420626520302E352045544820616674657220 PUSH0 DUP3 ADD MSTORE PUSH32 0x7769746864726177616C00000000000000000000000000000000000000000000 PUSH1 0x20 DUP3 ADD MSTORE POP JUMP JUMPDEST PUSH0 PUSH2 0x13A7 PUSH1 0x2A DUP4 PUSH2 0xC50 JUMP JUMPDEST SWAP2 POP PUSH2 0x13B2 DUP3 PUSH2 0x134D JUMP JUMPDEST PUSH1 0x40 DUP3 ADD SWAP1 POP SWAP2 SWAP1 POP JUMP JUMPDEST PUSH0 PUSH1 0x60 DUP3 ADD SWAP1 POP PUSH2 0x13D0 PUSH0 DUP4 ADD DUP6 PUSH2 0x1070 JUMP JUMPDEST PUSH2 0x13DD PUSH1 0x20 DUP4 ADD DUP5 PUSH2 0x133E JUMP JUMPDEST DUP2 DUP2 SUB PUSH1 0x40 DUP4 ADD MSTORE PUSH2 0x13EE DUP2 PUSH2 0x139B JUMP JUMPDEST SWAP1 POP SWAP4 SWAP3 POP POP POP JUMP JUMPDEST PUSH32 0x436F6E74726163742073686F756C642068617665207265636569766564204554 PUSH0 DUP3 ADD MSTORE PUSH32 0x4800000000000000000000000000000000000000000000000000000000000000 PUSH1 0x20 DUP3 ADD MSTORE POP JUMP JUMPDEST PUSH0 PUSH2 0x1451 PUSH1 0x21 DUP4 PUSH2 0xC50 JUMP JUMPDEST SWAP2 POP PUSH2 0x145C DUP3 PUSH2 0x13F7 JUMP JUMPDEST PUSH1 0x40 DUP3 ADD SWAP1 POP SWAP2 SWAP1 POP JUMP JUMPDEST PUSH0 PUSH1 0x40 DUP3 ADD SWAP1 POP PUSH2 0x147A PUSH0 DUP4 ADD DUP5 PUSH2 0xE0A JUMP JUMPDEST DUP2 DUP2 SUB PUSH1 0x20 DUP4 ADD MSTORE PUSH2 0x148B DUP2 PUSH2 0x1445 JUMP JUMPDEST SWAP1 POP SWAP3 SWAP2 POP POP JUMP INVALID PUSH1 0x80 PUSH1 0x40 MSTORE CALLVALUE DUP1 ISZERO PUSH1 0xE JUMPI PUSH0 PUSH0 REVERT JUMPDEST POP CALLER PUSH0 PUSH0 PUSH2 0x100 EXP DUP2 SLOAD DUP2 PUSH20 0xFFFFFFFFFFFFFFFFFFFFFFFFFFFFFFFFFFFFFFFF MUL NOT AND SWAP1 DUP4 PUSH20 0xFFFFFFFFFFFFFFFFFFFFFFFFFFFFFFFFFFFFFFFF AND MUL OR SWAP1 SSTORE POP PUSH2 0x81D DUP1 PUSH2 0x5B PUSH0 CODECOPY PUSH0 RETURN INVALID PUSH1 0x80 PUSH1 0x40 MSTORE PUSH1 0x4 CALLDATASIZE LT PUSH2 0x54 JUMPI PUSH0 CALLDATALOAD PUSH1 0xE0 SHR DUP1 PUSH4 0x27E235E3 EQ PUSH2 0x58 JUMPI DUP1 PUSH4 0x2E1A7D4D EQ PUSH2 0x94 JUMPI DUP1 PUSH4 0x2E4176CF EQ PUSH2 0xBC JUMPI DUP1 PUSH4 0x968ED600 EQ PUSH2 0xE6 JUMPI DUP1 PUSH4 0xD0E30DB0 EQ PUSH2 0x110 JUMPI DUP1 PUSH4 0xD624A4E0 EQ PUSH2 0x11A JUMPI JUMPDEST PUSH0 PUSH0 REVERT JUMPDEST CALLVALUE DUP1 ISZERO PUSH2 0x63 JUMPI PUSH0 PUSH0 REVERT JUMPDEST POP PUSH2 0x7E PUSH1 0x4 DUP1 CALLDATASIZE SUB DUP2 ADD SWAP1 PUSH2 0x79 SWAP2 SWAP1 PUSH2 0x4CC JUMP JUMPDEST PUSH2 0x144 JUMP JUMPDEST PUSH1 0x40 MLOAD PUSH2 0x8B SWAP2 SWAP1 PUSH2 0x50F JUMP JUMPDEST PUSH1 0x40 MLOAD DUP1 SWAP2 SUB SWAP1 RETURN JUMPDEST CALLVALUE DUP1 ISZERO PUSH2 0x9F JUMPI PUSH0 PUSH0 REVERT JUMPDEST POP PUSH2 0xBA PUSH1 0x4 DUP1 CALLDATASIZE SUB DUP2 ADD SWAP1 PUSH2 0xB5 SWAP2 SWAP1 PUSH2 0x552 JUMP JUMPDEST PUSH2 0x159 JUMP JUMPDEST STOP JUMPDEST CALLVALUE DUP1 ISZERO PUSH2 0xC7 JUMPI PUSH0 PUSH0 REVERT JUMPDEST POP PUSH2 0xD0 PUSH2 0x33E JUMP JUMPDEST PUSH1 0x40 MLOAD PUSH2 0xDD SWAP2 SWAP1 PUSH2 0x58C JUMP JUMPDEST PUSH1 0x40 MLOAD DUP1 SWAP2 SUB SWAP1 RETURN JUMPDEST CALLVALUE DUP1 ISZERO PUSH2 0xF1 JUMPI PUSH0 PUSH0 REVERT JUMPDEST POP PUSH2 0xFA PUSH2 0x362 JUMP JUMPDEST PUSH1 0x40 MLOAD PUSH2 0x107 SWAP2 SWAP1 PUSH2 0x50F JUMP JUMPDEST PUSH1 0x40 MLOAD DUP1 SWAP2 SUB SWAP1 RETURN JUMPDEST PUSH2 0x118 PUSH2 0x368 JUMP JUMPDEST STOP JUMPDEST CALLVALUE DUP1 ISZERO PUSH2 0x125 JUMPI PUSH0 PUSH0 REVERT JUMPDEST POP PUSH2 0x12E PUSH2 0x465 JUMP JUMPDEST PUSH1 0x40 MLOAD PUSH2 0x13B SWAP2 SWAP1 PUSH2 0x50F JUMP JUMPDEST PUSH1 0x40 MLOAD DUP1 SWAP2 SUB SWAP1 RETURN JUMPDEST PUSH1 0x1 PUSH1 0x20 MSTORE DUP1 PUSH0 MSTORE PUSH1 0x40 PUSH0 KECCAK256 PUSH0 SWAP2 POP SWAP1 POP SLOAD DUP2 JUMP JUMPDEST DUP1 PUSH1 0x1 PUSH0 CALLER PUSH20 0xFFFFFFFFFFFFFFFFFFFFFFFFFFFFFFFFFFFFFFFF AND PUSH20 0xFFFFFFFFFFFFFFFFFFFFFFFFFFFFFFFFFFFFFFFF AND DUP2 MSTORE PUSH1 0x20 ADD SWAP1 DUP2 MSTORE PUSH1 0x20 ADD PUSH0 KECCAK256 SLOAD LT ISZERO PUSH2 0x1D9 JUMPI PUSH1 0x40 MLOAD PUSH32 0x8C379A000000000000000000000000000000000000000000000000000000000 DUP2 MSTORE PUSH1 0x4 ADD PUSH2 0x1D0 SWAP1 PUSH2 0x625 JUMP JUMPDEST PUSH1 0x40 MLOAD DUP1 SWAP2 SUB SWAP1 REVERT JUMPDEST DUP1 PUSH1 0x1 PUSH0 CALLER PUSH20 0xFFFFFFFFFFFFFFFFFFFFFFFFFFFFFFFFFFFFFFFF AND PUSH20 0xFFFFFFFFFFFFFFFFFFFFFFFFFFFFFFFFFFFFFFFF AND DUP2 MSTORE PUSH1 0x20 ADD SWAP1 DUP2 MSTORE PUSH1 0x20 ADD PUSH0 KECCAK256 PUSH0 DUP3 DUP3 SLOAD PUSH2 0x225 SWAP2 SWAP1 PUSH2 0x670 JUMP JUMPDEST SWAP3 POP POP DUP2 SWAP1 SSTORE POP DUP1 PUSH1 0x2 PUSH0 DUP3 DUP3 SLOAD PUSH2 0x23D SWAP2 SWAP1 PUSH2 0x670 JUMP JUMPDEST SWAP3 POP POP DUP2 SWAP1 SSTORE POP PUSH0 CALLER PUSH20 0xFFFFFFFFFFFFFFFFFFFFFFFFFFFFFFFFFFFFFFFF AND DUP3 PUSH1 0x40 MLOAD PUSH2 0x269 SWAP1 PUSH2 0x6D0 JUMP JUMPDEST PUSH0 PUSH1 0x40 MLOAD DUP1 DUP4 SUB DUP2 DUP6 DUP8 GAS CALL SWAP3 POP POP POP RETURNDATASIZE DUP1 PUSH0 DUP2 EQ PUSH2 0x2A3 JUMPI PUSH1 0x40 MLOAD SWAP2 POP PUSH1 0x1F NOT PUSH1 0x3F RETURNDATASIZE ADD AND DUP3 ADD PUSH1 0x40 MSTORE RETURNDATASIZE DUP3 MSTORE RETURNDATASIZE PUSH0 PUSH1 0x20 DUP5 ADD RETURNDATACOPY PUSH2 0x2A8 JUMP JUMPDEST PUSH1 0x60 SWAP2 POP JUMPDEST POP POP SWAP1 POP DUP1 PUSH2 0x2EC JUMPI PUSH1 0x40 MLOAD PUSH32 0x8C379A000000000000000000000000000000000000000000000000000000000 DUP2 MSTORE PUSH1 0x4 ADD PUSH2 0x2E3 SWAP1 PUSH2 0x72E JUMP JUMPDEST PUSH1 0x40 MLOAD DUP1 SWAP2 SUB SWAP1 REVERT JUMPDEST CALLER PUSH20 0xFFFFFFFFFFFFFFFFFFFFFFFFFFFFFFFFFFFFFFFF AND PUSH32 0xBC158BB64F05D6383AEA69BBB0B20C1BBF4B7A18F63359C5649B7C39E29D3884 DUP4 PUSH1 0x40 MLOAD PUSH2 0x332 SWAP2 SWAP1 PUSH2 0x50F JUMP JUMPDEST PUSH1 0x40 MLOAD DUP1 SWAP2 SUB SWAP1 LOG2 POP POP JUMP JUMPDEST PUSH0 PUSH0 SWAP1 SLOAD SWAP1 PUSH2 0x100 EXP SWAP1 DIV PUSH20 0xFFFFFFFFFFFFFFFFFFFFFFFFFFFFFFFFFFFFFFFF AND DUP2 JUMP JUMPDEST PUSH1 0x2 SLOAD DUP2 JUMP JUMPDEST PUSH0 CALLVALUE GT PUSH2 0x3AA JUMPI PUSH1 0x40 MLOAD PUSH32 0x8C379A000000000000000000000000000000000000000000000000000000000 DUP2 MSTORE PUSH1 0x4 ADD PUSH2 0x3A1 SWAP1 PUSH2 0x796 JUMP JUMPDEST PUSH1 0x40 MLOAD DUP1 SWAP2 SUB SWAP1 REVERT JUMPDEST CALLVALUE PUSH1 0x1 PUSH0 CALLER PUSH20 0xFFFFFFFFFFFFFFFFFFFFFFFFFFFFFFFFFFFFFFFF AND PUSH20 0xFFFFFFFFFFFFFFFFFFFFFFFFFFFFFFFFFFFFFFFF AND DUP2 MSTORE PUSH1 0x20 ADD SWAP1 DUP2 MSTORE PUSH1 0x20 ADD PUSH0 KECCAK256 PUSH0 DUP3 DUP3 SLOAD PUSH2 0x3F6 SWAP2 SWAP1 PUSH2 0x7B4 JUMP JUMPDEST SWAP3 POP POP DUP2 SWAP1 SSTORE POP CALLVALUE PUSH1 0x2 PUSH0 DUP3 DUP3 SLOAD PUSH2 0x40E SWAP2 SWAP1 PUSH2 0x7B4 JUMP JUMPDEST SWAP3 POP POP DUP2 SWAP1 SSTORE POP CALLER PUSH20 0xFFFFFFFFFFFFFFFFFFFFFFFFFFFFFFFFFFFFFFFF AND PUSH32 0xD15C9547EA5C06670C0010CE19BC32D54682A4B3801ECE7F3AB0C3F17106B4BB CALLVALUE PUSH1 0x40 MLOAD PUSH2 0x45B SWAP2 SWAP1 PUSH2 0x50F JUMP JUMPDEST PUSH1 0x40 MLOAD DUP1 SWAP2 SUB SWAP1 LOG2 JUMP JUMPDEST PUSH0 PUSH1 0x2 SLOAD SWAP1 POP SWAP1 JUMP JUMPDEST PUSH0 PUSH0 REVERT JUMPDEST PUSH0 PUSH20 0xFFFFFFFFFFFFFFFFFFFFFFFFFFFFFFFFFFFFFFFF DUP3 AND SWAP1 POP SWAP2 SWAP1 POP JUMP JUMPDEST PUSH0 PUSH2 0x49B DUP3 PUSH2 0x472 JUMP JUMPDEST SWAP1 POP SWAP2 SWAP1 POP JUMP JUMPDEST PUSH2 0x4AB DUP2 PUSH2 0x491 JUMP JUMPDEST DUP2 EQ PUSH2 0x4B5 JUMPI PUSH0 PUSH0 REVERT JUMPDEST POP JUMP JUMPDEST PUSH0 DUP2 CALLDATALOAD SWAP1 POP PUSH2 0x4C6 DUP2 PUSH2 0x4A2 JUMP JUMPDEST SWAP3 SWAP2 POP POP JUMP JUMPDEST PUSH0 PUSH1 0x20 DUP3 DUP5 SUB SLT ISZERO PUSH2 0x4E1 JUMPI PUSH2 0x4E0 PUSH2 0x46E JUMP JUMPDEST JUMPDEST PUSH0 PUSH2 0x4EE DUP5 DUP3 DUP6 ADD PUSH2 0x4B8 JUMP JUMPDEST SWAP2 POP POP SWAP3 SWAP2 POP POP JUMP JUMPDEST PUSH0 DUP2 SWAP1 POP SWAP2 SWAP1 POP JUMP JUMPDEST PUSH2 0x509 DUP2 PUSH2 0x4F7 JUMP JUMPDEST DUP3 MSTORE POP POP JUMP JUMPDEST PUSH0 PUSH1 0x20 DUP3 ADD SWAP1 POP PUSH2 0x522 PUSH0 DUP4 ADD DUP5 PUSH2 0x500 JUMP JUMPDEST SWAP3 SWAP2 POP POP JUMP JUMPDEST PUSH2 0x531 DUP2 PUSH2 0x4F7 JUMP JUMPDEST DUP2 EQ PUSH2 0x53B JUMPI PUSH0 PUSH0 REVERT JUMPDEST POP JUMP JUMPDEST PUSH0 DUP2 CALLDATALOAD SWAP1 POP PUSH2 0x54C DUP2 PUSH2 0x528 JUMP JUMPDEST SWAP3 SWAP2 POP POP JUMP JUMPDEST PUSH0 PUSH1 0x20 DUP3 DUP5 SUB SLT ISZERO PUSH2 0x567 JUMPI PUSH2 0x566 PUSH2 0x46E JUMP JUMPDEST JUMPDEST PUSH0 PUSH2 0x574 DUP5 DUP3 DUP6 ADD PUSH2 0x53E JUMP JUMPDEST SWAP2 POP POP SWAP3 SWAP2 POP POP JUMP JUMPDEST PUSH2 0x586 DUP2 PUSH2 0x491 JUMP JUMPDEST DUP3 MSTORE POP POP JUMP JUMPDEST PUSH0 PUSH1 0x20 DUP3 ADD SWAP1 POP PUSH2 0x59F PUSH0 DUP4 ADD DUP5 PUSH2 0x57D JUMP JUMPDEST SWAP3 SWAP2 POP POP JUMP JUMPDEST PUSH0 DUP3 DUP3 MSTORE PUSH1 0x20 DUP3 ADD SWAP1 POP SWAP3 SWAP2 POP POP JUMP JUMPDEST PUSH32 0x496E73756666696369656E742062616C616E636520696E20796F757220616363 PUSH0 DUP3 ADD MSTORE PUSH32 0x6F756E7400000000000000000000000000000000000000000000000000000000 PUSH1 0x20 DUP3 ADD MSTORE POP JUMP JUMPDEST PUSH0 PUSH2 0x60F PUSH1 0x24 DUP4 PUSH2 0x5A5 JUMP JUMPDEST SWAP2 POP PUSH2 0x61A DUP3 PUSH2 0x5B5 JUMP JUMPDEST PUSH1 0x40 DUP3 ADD SWAP1 POP SWAP2 SWAP1 POP JUMP JUMPDEST PUSH0 PUSH1 0x20 DUP3 ADD SWAP1 POP DUP2 DUP2 SUB PUSH0 DUP4 ADD MSTORE PUSH2 0x63C DUP2 PUSH2 0x603 JUMP JUMPDEST SWAP1 POP SWAP2 SWAP1 POP JUMP JUMPDEST PUSH32 0x4E487B7100000000000000000000000000000000000000000000000000000000 PUSH0 MSTORE PUSH1 0x11 PUSH1 0x4 MSTORE PUSH1 0x24 PUSH0 REVERT JUMPDEST PUSH0 PUSH2 0x67A DUP3 PUSH2 0x4F7 JUMP JUMPDEST SWAP2 POP PUSH2 0x685 DUP4 PUSH2 0x4F7 JUMP JUMPDEST SWAP3 POP DUP3 DUP3 SUB SWAP1 POP DUP2 DUP2 GT ISZERO PUSH2 0x69D JUMPI PUSH2 0x69C PUSH2 0x643 JUMP JUMPDEST JUMPDEST SWAP3 SWAP2 POP POP JUMP JUMPDEST PUSH0 DUP2 SWAP1 POP SWAP3 SWAP2 POP POP JUMP JUMPDEST POP JUMP JUMPDEST PUSH0 PUSH2 0x6BB PUSH0 DUP4 PUSH2 0x6A3 JUMP JUMPDEST SWAP2 POP PUSH2 0x6C6 DUP3 PUSH2 0x6AD JUMP JUMPDEST PUSH0 DUP3 ADD SWAP1 POP SWAP2 SWAP1 POP JUMP JUMPDEST PUSH0 PUSH2 0x6DA DUP3 PUSH2 0x6B0 JUMP JUMPDEST SWAP2 POP DUP2 SWAP1 POP SWAP2 SWAP1 POP JUMP JUMPDEST PUSH32 0x5472616E73666572206661696C65640000000000000000000000000000000000 PUSH0 DUP3 ADD MSTORE POP JUMP JUMPDEST PUSH0 PUSH2 0x718 PUSH1 0xF DUP4 PUSH2 0x5A5 JUMP JUMPDEST SWAP2 POP PUSH2 0x723 DUP3 PUSH2 0x6E4 JUMP JUMPDEST PUSH1 0x20 DUP3 ADD SWAP1 POP SWAP2 SWAP1 POP JUMP JUMPDEST PUSH0 PUSH1 0x20 DUP3 ADD SWAP1 POP DUP2 DUP2 SUB PUSH0 DUP4 ADD MSTORE PUSH2 0x745 DUP2 PUSH2 0x70C JUMP JUMPDEST SWAP1 POP SWAP2 SWAP1 POP JUMP JUMPDEST PUSH32 0x596F75206D757374206465706F73697420736F6D652045544800000000000000 PUSH0 DUP3 ADD MSTORE POP JUMP JUMPDEST PUSH0 PUSH2 0x780 PUSH1 0x19 DUP4 PUSH2 0x5A5 JUMP JUMPDEST SWAP2 POP PUSH2 0x78B DUP3 PUSH2 0x74C JUMP JUMPDEST PUSH1 0x20 DUP3 ADD SWAP1 POP SWAP2 SWAP1 POP JUMP JUMPDEST PUSH0 PUSH1 0x20 DUP3 ADD SWAP1 POP DUP2 DUP2 SUB PUSH0 DUP4 ADD MSTORE PUSH2 0x7AD DUP2 PUSH2 0x774 JUMP JUMPDEST SWAP1 POP SWAP2 SWAP1 POP JUMP JUMPDEST PUSH0 PUSH2 0x7BE DUP3 PUSH2 0x4F7 JUMP JUMPDEST SWAP2 POP PUSH2 0x7C9 DUP4 PUSH2 0x4F7 JUMP JUMPDEST SWAP3 POP DUP3 DUP3 ADD SWAP1 POP DUP1 DUP3 GT ISZERO PUSH2 0x7E1 JUMPI PUSH2 0x7E0 PUSH2 0x643 JUMP JUMPDEST JUMPDEST SWAP3 SWAP2 POP POP JUMP INVALID LOG2 PUSH5 0x6970667358 0x22 SLT KECCAK256 0xCC 0xAB EXTSTATICCALL CALLDATALOAD 0x27 RETURN ORIGIN 0xB5 0xDA 0xA9 PUSH3 0x9D5D99 0xCF DUP6 CHAINID 0xD8 SSTORE 0x4B 0xF7 DUP16 SHL ISZERO 0xB6 0xDE SDIV JUMPF 0x2FA1 BALANCE PUSH9 0x64736F6C634300081F STOP CALLER LOG2 PUSH5 0x6970667358 0x22 SLT KECCAK256 PUSH27 0xC3EFFF71AE582BA424E1B4418556F6409B3E5CB8BE755155060AAF TLOAD 0xAA 0xDD PREVRANDAO PUSH5 0x736F6C6343 STOP ADDMOD 0x1F STOP CALLER "
				},
				"gasEstimates": {
					"creation": {
						"codeDepositCost": "1497800",
						"executionCost": "1566",
						"totalCost": "1499366"
					},
					"external": {
						"beforeAll()": "infinite",
						"testDeposit()": "infinite",
						"testFailDepositZero()": "infinite",
						"testFailOverWithdraw()": "infinite",
						"testInitialChairperson()": "infinite",
						"testTotalFunds()": "infinite",
						"testWithdrawal()": "infinite"
					}
				},
				"methodIdentifiers": {
					"beforeAll()": "7fea0d4b",
					"testDeposit()": "7f924c4e",
					"testFailDepositZero()": "b5b9af13",
					"testFailOverWithdraw()": "3dd04a80",
					"testInitialChairperson()": "5bc07a74",
					"testTotalFunds()": "c417572c",
					"testWithdrawal()": "cc8af67e"
				}
			},
			"storageLayout": {
				"storage": [
					{
						"astId": 129,
						"contract": "browse/test/Chama_test.sol:ChamaTest",
						"label": "chama",
						"offset": 0,
						"slot": "0",
						"type": "t_contract(SimpleChama)122"
					}
				],
				"types": {
					"t_contract(SimpleChama)122": {
						"encoding": "inplace",
						"label": "contract SimpleChama",
						"numberOfBytes": "20"
					}
				}
			},
			"userdoc": {
				"kind": "user",
				"methods": {
					"testDeposit()": {
						"notice": "#value: 1 ether"
					}
				},
				"version": 1
			}
		}
	}
}